:020000040800F2
:10000000E8040020B923000895230008972300087E
:10001000992300089B2300089D230008000000008E
:100020000000000000000000000000009F23000806
:10003000A123000800000000A3230008A523000856
:10004000E1230008E5230008E9230008ED23000868
:10005000F1230008F5230008F9230008FD23000818
:100060000124000805240008092400080D240008C4
:100070001124000815240008192400081D24000874
:10008000212400082524000829240008000000007D
:100090000000000000000000000000002D24000807
:1000A0003124000835240008392400083D240008C4
:1000B0004124000845240008492400084D24000874
:1000C0005124000855240008592400085D24000824
:1000D000612400086524000869240008000000006D
:1000E0006D24000871240008752400080000000039
:1000F000000000000000000000000000792400085B
:10010000000000007D2400088124000885240008E8
:1001100000000000000000000000000000000000DF
:10012000892400088D2400089124000895240008E3
:1001300099240008000000000000000000000000FA
:100140000000000000000000000000009D240008E6
:10015000A1240008A5240008A9240008AD24000853
:10016000B1240008B52400080000000000000000D1
:10017000000000000000000000000000000000007F
:1001800000000000B924000800000000000000008A
:10019000BD24000838B5040001D1012032BD00F0B3
:1001A00093F818B900F05BF900F0DDFAFFE70220E0
:1001B0006870211D206800F056F90120A872A8700F
:1001C000E87028716871A871E871287268726870A7
:1001D000002032BD886800F00700062870470846F6
:1001E000016841F001010160704738B5040001D198
:1001F000012032BD00F068F818B900F030F900F0C5
:100200001FFBD4E710B5044604F13E0009B902789B
:1002100007E0042908BF427803D008290CBF827880
:10022000C278012A01D0012010BD11B9022202704A
:100230000AE0042902D10222427005E0082907BF22
:10024000022282700223C3702068012200F023FA88
:1002500000F021F818BFB1F1804F0DD000F017F871
:100260001CBFDFF85820914206D000F00CF81CBFEC
:10027000DFF85020914202D1FFF7ACFF01D0FFF729
:10028000AEFF002010BDDFF8380081427047DFF874
:100290002800814270472168DFF81800814205D1AB
:1002A000DFF82C100A6842F400420A60216881429B
:1002B00070470000000001400004004000080040BA
:1002C000000C00400040014004F13C056878704794
:1002D00044000140002084F83C002846704770B577
:1002E00000F058F801D1022070BD012084F83C00D4
:1002F00032B1042A15D0082A25D00C2A34D045E082
:10030000206800F0EDF82168886940F008008861F5
:10031000886920F0040088618A69306902438A6133
:1003200035E0206800F001F92068816941F400613E
:100330008161816921F4806181618169326941EA69
:100340000221816123E0206800F018F92168C86962
:1003500040F00800C861C86920F00400C861CA699B
:1003600030690243CA6112E0206800F02FF920686A
:10037000C16941F40061C161C16921F48061C16159
:10038000C169326941EA0221C16100E00125FFF73C
:10039000A1FF70BD0446002594F83C0001280E46DC
:1003A000704770B5064606F13C0500242878012800
:1003B00001D1022070BD0120287002226A70DFF88E
:1003C0004C0232689368034093600868020018BFCB
:1003D000102830D0202818BF30282CD0402826D014
:1003E000502819D060281BD0702806D0B0F5805F47
:1003F00027D0B0F5005F07D022E000F02BF830687E
:10040000816841F0770105E000F024F830688168E8
:1004100041F48041816014E000F018F850210BE0B5
:10042000CA684968306800F012F9602104E000F001
:100430000DF8402100E00146306800F01AF900E0B4
:1004400001240120687000F00AF870BDCA6849688C
:100450003068EDE0CB684A688968306811E10021B6
:10046000297020467047F0B5694B0468694D6A4EA3
:100470006A4F984218BFB0F1804F04D0B8421CBFF9
:10048000B042A8420CD14A6824F070041443984248
:1004900018BFB0F1804F0ED0B84218BFB0420AD09A
:1004A000A8421CBF5E4A904205D05E4DA8421CBFC8
:1004B0005D4A904203D1CA6824F4407414434A69E7
:1004C00024F080041443046098428C68C4620A6873
:1004D000826202D10969554A116001234361F0BD6E
:1004E00070B5026A520852000262066A4468856961
:1004F0000B688A6825F073051D4326F00206164333
:10050000434B98420BD1CA684B6926F0080624F485
:10051000407416438A691C4326F004061443446061
:10052000856149684163066270BD70B5026A384EE4
:1005300022F010020262B042056A436884690A68C8
:1005400024F4E64444EA02248A6825F0200545EABA
:1005500002150DD1CA684E6925F0800545EA0215DD
:100560008A6923F44063164325F0400543EA860375
:100570004360846149688163056270BD70B5026A39
:1005800022F480720262056A4368C4690A688E6850
:1005900024F0730414431E4A25F40075904245EA82
:1005A00006250DD1CA684E6925F4006545EA022585
:1005B0008A6923F44053164325F4806543EA061301
:1005C0004360C4614968C163056270BD70B5026A69
:1005D0000F4E22F480520262B042046A4268C3693C
:1005E0000D6823F4E64343EA05238D6824F40054A0
:1005F00044EA053404D14D6922F4804242EA85126E
:100600004260C36149680164046270BD8800FFFFF5
:1006100000000140000C00400008004000040040C1
:1006200000400140004401400048014030000140CA
:1006300010B5036A046A64086400046223F00A03C4
:10064000846924F0F00444EA021484612EE010B5B9
:10065000036A23F0100303628369046A23F470437E
:1006600043EA023324F0A004836144EA01140462E3
:1006700010BD826822F07002114341F007018160D1
:10068000704710B5846824F47F442143114341EA44
:100690000321816010BD10B501F01F01036A012420
:1006A0008C40A343036202FA01F1036A1943016219
:1006B00010BD0EE002684368024408305FEAC37C64
:1006C00044BF4B445B1E52F804CB43F804CB091FD4
:1006D000F9D150F8041B0029ECD1704782B00020FA
:1006E000009000225148416841F4804141604168D6
:1006F00001F48041009100990092036843F0805317
:100700000360006800F0805000900098072002B05D
:1007100000F0A5B810B586B000F052F82168444842
:1007200081421ED1002243480092416941F4807108
:100730004161416901F480710091009900920321A7
:10074000036843F001030360006800F001000090BB
:100750000098019102910021039101A9364800F00F
:10076000C7F806B010BD81B00068B0F1804F0BD162
:1007700000212E480091026842F0010202600068E8
:1007800000F001000090009801B0704710B586B0ED
:1007900000F016F82168B1F1804F0FD100200090D1
:1007A00002222448016841F001010160202100F08B
:1007B00031F80121059101A900F09AF806B010BDA9
:1007C00004461422002101A800F078B910B586B0C3
:1007D000FFF7F6FF21681948814219D10022154818
:1007E0000092016941F400310161016901F40031B5
:1007F0000091009900920C21036843F0010303600B
:10080000022200F007F80721059101A900F070F815
:1008100006B010BD006800F0010000900098064886
:1008200001910292002103910491704740380240E7
:1008300000200140303802400000024000440040E7
:10084000704700000901020002D424488154704717
:10085000234B02F00F021A4402F8041C7047214B8C
:1008600019684FF6FF020002114000F4E0600843EF
:100870001D4908431860704770B51A4B1C68C4F3D3
:1008800002230124C3F10705052D2EBF0F2504FA0D
:1008900005F56D1E1E1D072E34BF0023DB1E2940EB
:1008A000994004FA03F3BDE870405B1E1A401143FF
:1008B000C8E710B5401EB0F1807F01D3012010BD04
:1008C0000A4C60600F214FF0FF30FFF7BBFF0021A3
:1008D000A16007202060002010BD000000E400E0BF
:1008E00018ED00E00CED00E00000FA0510E000E07B
:1008F0002DE9F84F0D4600266849694A0F23044642
:1009000001202F68B04000EA0708804540F0BB8016
:100910004FEA460C032707FA0CF76FEA070E6F68D9
:1009200007F00309B9F1010F1CBF07F00307022FFD
:1009300012D1A768D5F80C900EEA070709FA0CF94E
:1009400049EA0707A760676827EA00006F68C7F3EE
:100950000017B74038436060B0002F7907F00307F5
:10096000032F21D0E768D5F808900EEA070709FAA7
:100970000CF949EA0707E7602F7907F00307022F10
:1009800012D1F70804EB870700F01C09D7F820A064
:1009900003FA09FB2AEA0B0AD5F810B00BFA09F999
:1009A00049EA0A09C7F8209027680EEA070E2F794E
:1009B00007F0030707FA0CF747EA0E0727606F688E
:1009C00017F4403F5FD0002700974FEA960C176856
:1009D00047F48047176000F00C00176807F4804761
:1009E000009703FA00FE009F2E4F57F82C7027EA5D
:1009F0000E0E2D4FBC4208BF002713D02B4FBC4218
:100A000008BF01270ED02A4FBC4208BF022709D0D9
:100A1000284FBC4208BF032704D0274FBC420CBF5D
:100A20000427072707FA00F01E4F40EA0E0047F898
:100A30002C006FEA08000F6800EA070C6F68FF03DC
:100A400048BF48EA0C0CC1F800C04F6800EA070C28
:100A50006F68BF0348BF48EA0C0CC1F804C08F6838
:100A600000EA070C6F68FF0248BF48EA0C0CC1F8A7
:100A700008C0CF6800EA070C6868800248BF48EAEF
:100A80000C0CC1F80CC0761C0F2E7FF639AFBDE8F8
:100A9000F18F02B90904816170470000003C0140F8
:100AA000443802400838014000000240000402407F
:100AB00000080240000C02400010024010B504463D
:100AC00010460A460146204600F002F8204610BDB6
:100AD00062F30F2262F31F42401810F0030308D0A4
:100AE000C91A1FD3DB0748BF00F8012D28BF20F823
:100AF000022D130030B414461546103928BF20E9E2
:100B00003C00FAD8490728BF20E90C0048BF40F84C
:100B1000042D890028BF20F8022D48BF00F8012DC0
:100B200030BC7047C91818BF00F8012DCB0728BF8B
:100B300000F8012D7047000070B5044600250CB97F
:100B4000012070BD04F13006306920B92046FFF75E
:100B5000E1FD756135733069C10600F1928030693D
:100B6000DFF8601420F4885040F00200306108681B
:100B700020F4403008600A68606802430A60206818
:100B8000416821F48071416020684168226941EA2E
:100B9000022141602068416821F040714160216874
:100BA0004A68A06802434A602068816821F40061B5
:100BB000816021688A68E06802438A602068A16ACF
:100BC000DFF804249142816821F0706181600CD0CB
:100BD00021688A68A06A02438A6000F05BF8216895
:100BE0008A68E06A02438A6001E000F053F82068F6
:100BF000816821F0020100F049F8227E41EA4201B9
:100C0000816094F820002168002848680FD040F4E3
:100C1000006048602068416821F4604141602068BC
:100C20004168626A521E41EA4231416002E020F4AA
:100C3000006048602068C16A21F47001C1622068C8
:100C4000C16AE269521E41EA0251C16220688168AC
:100C500021F4007100F01AF8327841EA422100F0E4
:100C600015F821F4806100F011F8626941EA8221EF
:100C700081607561316921F0020141F0010131614A
:100C800000E0012500203073284670BD8160206897
:100C9000816870472068816821F040518160704709
:100CA00038B500F0C5F801D1022032BD00F0CDF812
:100CB00022D500F0A5F846BF906820F0060000207D
:100CC00000F08CF8DFF8FC120B6813F01F0F06D150
:100CD000816811F0405F11D100F0B2F80EE0DFF84A
:100CE000EC12884202BFDFF8E802026812F0405FAF
:100CF00004D100F098F801E000F079F8002032BD4E
:100D000000F13C010A78012A01D10220704701223A
:100D10000A70026893685B085B00936000688268F1
:100D2000D00705D44A6822F4885242F001024A6092
:100D3000002008707047F8B50C46064606F13C05E1
:100D4000306881684A050AD58068C10507D568689A
:100D500040F020006860002129700120F2BD00F001
:100D600041F90746306801688A0714D414F1010F6D
:100D7000F8D024B100F036F9C01B8442F2D23068BA
:100D800001688A07EED4686840F0040068600021BA
:100D900029700320F2BD6FF012020260686840F40F
:100DA000007068603168886810F0405F04BF307E72
:100DB000002811D1C86A10F4700F02D0886841056C
:100DC0000AD4686820F4807068606868C10403D43D
:100DD000686840F0010068600020F2BD9060002368
:100DE00013706FF022000A6810600868704750683E
:100DF00040F010005060906840F001009060704733
:100E00005568DFF8D001054045F480755560586895
:100E1000430505D5506820F4005040F480505060E0
:100E20005068C3047047016841F080410160704719
:100E30000146002001F13C0200901378012B70471D
:100E4000816841F08041816070470120107008681E
:100E50008368DC0714D48368DFF87C4143F0010326
:100E60008360DFF878010368B3FBF4F404EB440417
:100E7000009402E00098401E009000980028F9D1EC
:100E80000B689868C40770470068C06C704778B5F5
:100E900002460020009092F83C30012B01D1022044
:100EA00072BD012082F83C0007240B6810680A2BF1
:100EB00012D30A3BC56803EB43039C4025EA0404B4
:100EC000C460C3680D688C68A5F10A0606EB460687
:100ED000B4402343C3600FE0056903EB430304FA06
:100EE00003F325EA0303036103690D688C6805EBCE
:100EF0004505AC40234303611F244B68072B0CD2EC
:100F00005B1E456B00F050F84463436B4D680C88E2
:100F10006E1E00F044F843631BE00D2B0CD2DB1F68
:100F2000056B00F041F80463036B4D680C88EE1FFD
:100F300000F035F803630CE00D3BC56A00F034F8AF
:100F4000C462C36A4D680C88A5F10D0600F027F84D
:100F5000C3621E4B98421DD10C681A48122C03D153
:100F6000036843F4800303600B68102B18BF112B38
:100F700010D1036843F4000303600868102809D106
:100F80001649154C0B68B3FBF4F40A204443009453
:100F900000F010F8002182F83C10002072BD06EB32
:100FA0008606B4402343704703EB83039C4025EA45
:100FB0000404704702E00098401E0090009800284A
:100FC000F9D17047042301400100000F00200140C7
:100FD00008200140FEF9FFFF40420F000C000020F6
:100FE000006C704701484068704700BF0000002057
:100FF0002DE9F8432DED0A8B8EB000F02BFA00F0AE
:10100000B3F9142200F0A3F900200590DFF8FC43A7
:10101000DFF8FC03DFF8FC830168DFF8FC53DFF83E
:10102000FC6341F00401016006F13007026802F040
:1010300004020592002205990592036843F080039B
:101040000360016801F0800105910599059203682C
:1010500043F001030360016801F001010591059966
:1010600005928021036843F002030360006800F0EA
:1010700002000590059800F067F9002280214046A3
:10108000FFF707FD002240212846FFF702FD4FF43D
:1010900000504FF404110090019100220292694621
:1010A0004046FFF725FC00F056F92046FFF720FCEC
:1010B00000F051F94046FFF71BFC402100F04CF9CD
:1010C0002846FFF715FC1022002108A8FFF7F6FCC0
:1010D000202200F03CF9D24830604FF480310120EA
:1010E00030610022CF48B06271600120B260327678
:1010F00086F82020F262F260F0613A70706130464A
:10110000FFF71AFD08B100F0A3F9002001210890B3
:1011100009910A9008A93046FFF7B9FE08B100F01E
:1011200097F9012101910020BF490090022202900D
:1011300007900691ADF8140003900492694630467A
:1011400000F0A2F908B100F083F901210091022218
:1011500001926946304600F097F908B100F078F93D
:10116000B248B8614FF4E131F96100203862786229
:10117000B8620C21F9623863786306F1480000F028
:101180004BFA08B100F064F91022002109A8FFF71A
:1011900095FC082200F0DBF81C22002102A8FFF7D2
:1011A0008DFC4FF08040F86500213966002078669C
:1011B0009F49B966F866786706F18C073846FEF7EE
:1011C000E9FF08B100F044F94FF48050099009A9F3
:1011D0003846FFF7E6F808B100F03AF93846FFF76D
:1011E00004F808B100F034F900210091019138466B
:1011F000694600F0B1FA08B100F02AF960210291C5
:10120000002203920492069202A93846FFF767F87B
:1012100008B100F01DF93846FFF7B8FA002138464A
:10122000FEF7F0FF012000219FED828B9FED819B57
:101230009FED80AB9FED7FBB01900291039103E096
:1012400000F081F8012271E0002000F077F83046CC
:10125000FFF726FD0A213046FFF76DFD3046FFF708
:10126000BFFE800506D53046FFF70EFE00F0B0FA4F
:1012700041EC1A0B3046FFF743FD012000F05EF809
:101280003046FFF70DFD0A213046FFF754FD30468A
:10129000FFF7A6FE800506D53046FFF7F5FD00F006
:1012A00097FA41EC1B0B3046FFF72AFD53EC192B44
:1012B00051EC180B00F09AFA41EC190B51EC1A0B97
:1012C00053EC1B2B00F050FBB0EE48CAF0EE68CA9E
:1012D00041EC180B012280214046FFF7DAFB53EC6A
:1012E000192B5648564900F0B1FB53EC182B00F06F
:1012F0007DFA0746894651EC180B53EC1C2B00F085
:1013000033FB0022002300F0A1FB3A464B4600F0DD
:101310006DFA00224C4B00F099FB0022002300F0F4
:101320006BFC8DD2012200F00EF8002240212846ED
:10133000FFF7AFFB052000F079FC85E700906946D8
:101340003046FFF7A4BD80212046FFF7A2BB002155
:101350006846FFF7B3BB8021009101220021029172
:10136000039101926946704780B592B03022002106
:1013700006A8FFF7A3FB1422002101A8FFF79EFB9C
:10138000002000902F48016841F080510160002149
:10139000006800F08050009000982C4800910221D5
:1013A000026822F4404242F40042026001220068D6
:1013B00000F44040009000980691099210210A9193
:1013C000022200210C920D9110224FF4A8710E926E
:1013D0000F91042207211092119106A800F03AFC07
:1013E00008B172B6FEE7022102910F204FF480513E
:1013F00001900022049103920592022101A800F0BD
:10140000B7FD08B172B6FEE713B000BD00000240A0
:101410003038024000080240000402401000002062
:10142000002001400100000F01000F0000440040B7
:101430003F420F000000000000000000F168E38858
:10144000B5F8E43E403802400000344000700040EF
:1014500072B6FEE780B50B48016841F40071016087
:10146000026842F480620260016841F480710160A8
:101470000320FFF7F4F9002000F020FEFFF72EF91B
:10148000002002BD003C024070B590F83C20012ACB
:1014900001D1022070BD012280F83C2007240A6897
:1014A00003680A2A12D30A3ADD6802EB420294402A
:1014B00025EA0404DC60DA680D688C68A5F10A0688
:1014C00006EB4606B4402243DA600FE01D6902EBEA
:1014D000420204FA02F225EA02021A611A690D6850
:1014E0008C6805EB4505AC4022431A611F259A6BB9
:1014F00022F440129A639A6B0C69641E42EA045209
:101500009A639C6B4E680A6900F079F8AC439C635F
:101510009C6B4E680A690D8800F071F82C439C633F
:101520008A693C4CA2429A6822F470229A600CD0DC
:101530009C688A6914439C609C6824F440149C60F5
:101540009C68CA6914439C6003E09A6822F44012C4
:101550009A604A7D002A5A6814BF42F4806222F4DD
:1015600080625A600A7D002A5A6814BF42F4805291
:1015700022F480525A604A68012A04D01ED3032AFA
:1015800013D009D31AE05C69240B24035C615C6905
:10159000CA6814435C6119E09A69120B12039A61DC
:1015A0009C69CA6814439C6110E0DA69120B12034B
:1015B000DA61DC69CA681443DC6107E01A6A120B5D
:1015C00012031A621C6ACA6814431C62104CA342BC
:1015D00010D10B680D4A122B03D1146844F4800417
:1015E00014600968102918BF112903D1116841F44A
:1015F00000011160002280F83C20002070BDF61C24
:10160000B61A06EB8606B540704700000423014079
:101610000020014001000F0038B5040001D1012075
:1016200032BD00F017F808B900F018F800F01BF808
:1016300000F023F8FFE7416100F001F832BD2068B7
:10164000C16841F40051C1600020686020216970C8
:10165000A970704704F13C05687870470021297033
:101660002046FFF7B3B8242068702068C16821F4D1
:101670000051C160204600F00AB82068016921F4D9
:10168000904101612068416921F02A01704770B5DD
:10169000044622681169E06821F440510143116158
:1016A000D3682748A168034020690B43616903435D
:1016B000E0690B430343D3605169A06921F4407191
:1016C000014351611F498A421CBF1F48824202D117
:1016D00000F0DCFC01E000F0D1FC62682568E46900
:1016E0001921B4F5004FA1FB00016FF0630612D180
:1016F000D30F520000F002FD00F028F8F600323659
:101700006420B6FBF0F0420002F4F87202EB011222
:1017100000F0070010E0930F920000F0EFFC00F0E3
:1017200015F8360132366420B6FBF0F000F0F00216
:1017300002EB011200F00F008018A86070BD0000DD
:10174000F369FFFF00100140001401406421B0FB69
:10175000F1F106FB0106704770B500F13C031A7801
:10176000012A01D1022070BD01221A7002245C708E
:1017700005686E68AC680A6826F0700616436E60ED
:1017800002680E48824218BFB2F1804F0BD00D485C
:1017900082421CBF0C4DAA4205D0094882421CBFA0
:1017A0000A4DAA4204D1486824F08004044394609E
:1017B000012159700020187070BD00000000014028
:1017C000000C0040000400400008004000400140C0
:1017D00050B1B0FA80F18840C91CC1F58461090597
:1017E00001EBD021400570470146704770B491EA83
:1017F000030F4FF0004540F1BF806B40841A71EB3E
:10180000030604D26E40001BB141121973414FF41C
:10181000001C1CEB410F34BF7CEB430683E00C0D36
:10182000A4EB1356362E00F37C80012E45EAC32329
:1018300041DC43EA525312BFD20292025B082405F4
:1018400045EAC12141EA5051D2EBC020994125D44B
:1018500007D1B0FA80F610FA06F162D000202036E7
:1018600008E0B1FA81F6B140C6F1200220FA02F296
:101870001143B0404FEAF474B4EB465434F001061F
:101880004FEA74040AD8D6F50016760D04F0004429
:10189000F04061FA06F25040F1404840C00A40EA88
:1018A000415021F0004128BF5FEA500550F100008F
:1018B00044EBD12135E0DB0A45EAC121C90AB6F182
:1018C00020050EDD42EA0242120CC5F1200603FAA1
:1018D00006F6EB4042EA06056D42984161F10001CF
:1018E0000DE062FA06F5F240554063FA06FC82EA22
:1018F0000C02F3405A406D42904161EB030111F438
:10190000801F05D1641E620502D06D00404149412F
:1019100021F48011430875F1004350F1000041EBC0
:10192000045170BC70471CEB410F15D223F00043EB
:1019300052EA43060BD04FEA4C0CBCEB410F04D8E3
:101940000C0D661E342EB7DDEBE7801A994150EA84
:10195000410608BF0021E4E708BF1CEB430F28BF86
:101960006FF00001DDE7000070B491EA030F4FF063
:1019700000457FF543AF6B40841A71EB030603D239
:10198000001BB141121973414FF4001C1CEB410FB5
:1019900034BF7CEB430442E00C0DA4EB1356352E10
:1019A0004FDC45EAC323DB0A45EAC121C912B6F17F
:1019B00020050DDD63FA05F6EB4086EA03051242C9
:1019C00018BF45F00105C01851F100010CD213E019
:1019D00062FA06F5F2405540F3415A40B340F340F5
:1019E0005A408018594107D349085FEA30005FEA3E
:1019F000350528BF45F0010501F58011420875F154
:101A0000004250F1000041EB04514E0016F5001F5A
:101A100070BC38BF70470020090D090570471CEBEA
:101A2000410F10D252EA43060BD0BCEB410F05D850
:101A30000C0DAB43661E342EB6DD02E0AB438018BE
:101A4000594170BC704770BC7047000030B540F21F
:101A5000FF7C1CEA11541DBF1CEA13556445654503
:101A60003FE0641981EA030C6FF35F530CF0004C04
:101A700043F48013C90241F0004141EA505EC502BF
:101A80001100A5FB020200284FF00000EEFB012030
:101A90004FF00001E3FB052118BF42F0010240189E
:101AA00000214941E3FB0E01A4F580640D0302D23D
:101AB00092184041494154F1010470DD450872F12A
:101AC000004250F1000051EB0451A1F5801102D405
:101AD00041EA0C0130BD40F2FF7E4CEA0E5100207D
:101AE00030BD0CEA1355644518BF654581EA030C07
:101AF0000CF0004C41D050EA410E1CBF52EA430E9C
:101B000002E06146002030BD24422C441BD15FEA34
:101B1000050EF6D0090302BF01460020AEF1140EF7
:101B2000B1FA81F5AEEB050401FA05FE0C35C5F1FD
:101B3000200100FA05F5C8404EEA000E6FF35F532E
:101B400043F480139CE733F00043B3FA83F504BFFA
:101B5000B2FA82FE75440B3D641BB5F1200E2FBF17
:101B600002FA0EF3AB40C5F1200E22FA0EFE38BF8A
:101B700043EA0E03AA40641C7CE750EA410E14BFFE
:101B800052EA430E6FF000014FF4001515EB430FBE
:101B90008EBF194615EB410F9DE7B4D830BDD4F187
:101BA0000104B4F120050FDAC4F12005520828BF62
:101BB00042F0010210FA05FE01FA05F57244E2BF97
:101BC000E0402843E1400FE0352C9ADCC5F12004C9
:101BD00052EA400220FA05F218BF42F0010231FA3F
:101BE00005F0A1400A43002172F1004250F10000CB
:101BF00051EB0C0130BD000041EA030C50EA4C0CE3
:101C000052EA0C0C4FF4001C09D307D01CEB410F17
:101C10009CBF1CEB430F8B4208BF824270471CEBFA
:101C2000430FFBD8994208BF9042704738B504462D
:101C3000FFF7D8F914F1010F054602D004480178E6
:101C40006418FFF7CFF9401BA042FAD331BD00BFA3
:101C5000000000202DE9F843040016D02078DFF8BA
:101C60000063C10713D5B06800F00C00042807D04A
:101C7000B06800F00C0008283DD1706841023AD5E8
:101C80003068810303D56068002800F06381207804
:101C9000B44F810719D5B06810F00C0F07D0B068A9
:101CA00000F00C0008285BD17068410258D43068FD
:101CB000810703D5E068012840F04C813168206934
:101CC00021F0F80141EAC00131602178080779D597
:101CD0006069A549002868D001220A60FFF782F9EF
:101CE0000546706F81076DD4FFF77CF9401B022811
:101CF000F7D9032031E16068B0F5803F04D1306846
:101D000040F48030306011E0B0F5A02F306806D18B
:101D100040F480203060316841F4803105E020F4E7
:101D200080303060316821F480213160606858B1C2
:101D3000FFF758F9054630688103A8D4FFF752F938
:101D4000401B6528F7D3D4E7FFF74CF90546306808
:101D500081039CD5FFF746F9401B6528F7D3C8E7F8
:101D6000E068A8B101213960FFF73CF90546306809
:101D7000810705D4FFF736F9401B0228F7D9B8E7E9
:101D80003068216920F0F80040EAC10030609CE72B
:101D90003860FFF727F905463168880795D5FFF7C2
:101DA00021F9401B0228F7D9A3E70860FFF71AF9C9
:101DB0000546706F810705D5FFF714F9401B02280F
:101DC000F7D996E7207841075FD5306C0025C10030
:101DD0000AD400950125316C41F080513164306C9A
:101DE00000F0805000900098DFF88081D8F8000063
:101DF000C10513D4D8F8000040F48070C8F8000082
:101E0000FFF7F0F88146D8F80000C10506D4FFF7C7
:101E1000E9F8A0EB09000228F5D96AE7A0680128D3
:101E200005D00528306F06D140F004003067306FD0
:101E300040F0010005E0400840003067306F20F0BE
:101E40000400306741F28938A06860B1FFF7CAF832
:101E50008146306F810713D4FFF7C4F8A0EB090067
:101E60004045F6D345E7FFF7BDF88146306F81075F
:101E700006D5FFF7B7F8A0EB09004045F6D338E7E1
:101E80001DB1306C20F080503064A069002863D010
:101E9000B16801F00C0108293AD002282AD10020AB
:101EA0003866FFF79FF805463068810105D5FFF7D2
:101EB00099F8401B0228F7D91BE7E069216A626A9A
:101EC0000843A16A490840EA8210491E40EA0140DD
:101ED000E16A40EA0160706001203866FFF782F82D
:101EE00004463068810137D4FFF77CF8001B0228D4
:101EF000F7D9FEE600203866FFF774F8044630682C
:101F0000810129D5FFF76EF8001B0228F7D9F0E60A
:101F100001281FD07068E26900F48001914202BF7D
:101F200000F03F01226A914201BF47F6C0710140B3
:101F3000626AB1EB821F0DD1A26A520800F44031EF
:101F4000521EB1EB024F02BF00F07060E16AB0EBCD
:101F5000016F01D0012000E00020BDE8F28300BF46
:101F60000038024000004742800E474200700040A7
:101F70002DE9F04104000F4654D0494E306800F07E
:101F80000700B84202D200F073F84BD12068454DEB
:101F9000810712D5400703D5A96841F4E051A96033
:101FA0002078010703D5A86840F46040A860A968BC
:101FB000A06821F0F0010143A9602178C80729D564
:101FC0006068012802D129688A0305E0022818BF49
:101FD000032803D129688A0103D423E029688A07EA
:101FE00020D5A968890840EA8100A860FEF7FAFFB9
:101FF0008046A868616800F00C00B0EB810F09D042
:10200000FEF7F0FFA0EB080041F289318842F0D3DF
:1020100003202BE0306800F00700874204D200F074
:1020200027F801D0012021E02078410705D5AA68D2
:10203000E06822F4E0520243AA602178080706D53E
:10204000A968206921F4604141EAC001A96000F05B
:10205000D9F8AA681449154BC2F30312895CC84029
:1020600018601348006800F029F80020BDE8F081EE
:102070003770316801F00701B94270470B480D4ACB
:10208000006813680C49C3F3822206E00748094A36
:10209000006813680849C3F34232895CC84070473E
:1020A000003C024000380240202300080C000020C1
:1020B0000800002008380240D823000838B50D4D2C
:1020C0000D4B2A7804464FF47A711868B1FBF2F28E
:1020D000B0FBF2F0FEF7EDFB50B9102C08D2002255
:1020E00021464FF0FF30FEF7C7FBAC60002032BD49
:1020F000012032BD000000200C000020D3BBD9B16C
:10210000B2F5803F5BD2022A1ED98C46B1FBF2F1B8
:1021100002FB11C31B0443EA1043B3FBF2FC02FBB6
:102120001C3380B240EA0343B3FBF2F002FB1032EF
:1021300040EA0C4000237047022A05D98446B0FBD0
:10214000F2F002FB10C270474AB105D100F0010263
:1021500049085FEA3000704700220023704700F012
:1021600081B80B000200002100207047F7D3002245
:1021700000237047904271EB030CF2D370B5B1FAB3
:1021800081F4B3FA83F52C1BA340C4F1200532FA85
:1021900005F63343A2405FF00046E64002E05B08EC
:1021A0005FEA3202841A71EB030524BF20462946F8
:1021B0007641F4D302000B003000002170BD70B5F1
:1021C000B1FA81F4B2FA82F5C4F120046419B4F1D1
:1021D0002006DAD3B2405FF00044F440002502E06C
:1021E00052085FEA3303C61A71EB020E24BF304671
:1021F000714664416D41F3D302000B0020002900B9
:1022000070BD000030B5144C606800F00C0004286C
:1022100002D0082802D01DE0104830BD2268206896
:102220000023410202F03F0204D525680B49C5F3A3
:10223000881003E020680A49C0F38810A1FB000160
:10224000FFF75CFF2168C1F30141491C4900B0FB65
:10225000F1F030BD024830BD0438024000127A006F
:102260000024F400704730B4002512E050F8042B2D
:10227000D30744BF4A44521E091F042942F8045B95
:10228000FAD213468C0744BF15809B1CC90748BF70
:102290001D7050F8041B0029E8D130BC70470000C5
:1022A00010B5074979441831064C7C44163404E0D3
:1022B0000A68081D114488470146A142F8D110BDA3
:1022C0002C0000004C0000004EF68851CEF20001B8
:1022D000086840F470000860BFF34F8FBFF36F8F42
:1022E0004FF00070E1EE100A704700007BFFFFFF27
:1022F000D40000001000002000000000B7E3FFFF42
:1023000010000000C40000000000002000000000D9
:102310000248016841F470010160704788ED00E0F7
:102320000000000000000000010203040607080985
:1023300000F00DF8002801D0FFF7B2FFAFF30080E6
:102340000020AFF30080FEF753FE00F002F80120FA
:10235000704700F001B800000746384600F002F868
:10236000FBE7000080B5AFF30080024A110018209F
:10237000ABBEFBE7260002000548014603B46846F1
:1023800080F30988AFF30080FFF79EFFFFF7D0FFCF
:10239000A5EDF5FEFEE7FEE7FEE7FEE7FEE7704788
:1023A0007047704700F000B80248416802788A1808
:1023B0004260704700000020014880470148004704
:1023C000112300087923000801000000000000002C
:1023D000100000000024F4000000000001020304CB
:1023E000FFF7FEBFFFF7FEBFFFF7FEBFFFF7FEBF21
:1023F000FFF7FEBFFFF7FEBFFFF7FEBFFFF7FEBF11
:10240000FFF7FEBFFFF7FEBFFFF7FEBFFFF7FEBF00
:10241000FFF7FEBFFFF7FEBFFFF7FEBFFFF7FEBFF0
:10242000FFF7FEBFFFF7FEBFFFF7FEBFFFF7FEBFE0
:10243000FFF7FEBFFFF7FEBFFFF7FEBFFFF7FEBFD0
:10244000FFF7FEBFFFF7FEBFFFF7FEBFFFF7FEBFC0
:10245000FFF7FEBFFFF7FEBFFFF7FEBFFFF7FEBFB0
:10246000FFF7FEBFFFF7FEBFFFF7FEBFFFF7FEBFA0
:10247000FFF7FEBFFFF7FEBFFFF7FEBFFFF7FEBF90
:10248000FFF7FEBFFFF7FEBFFFF7FEBFFFF7FEBF80
:10249000FFF7FEBFFFF7FEBFFFF7FEBFFFF7FEBF70
:1024A000FFF7FEBFFFF7FEBFFFF7FEBFFFF7FEBF60
:1024B000FFF7FEBFFFF7FEBFFFF7FEBFFFF7FEBF50
:040000050800237953
:00000001FF
