:020000040800F2
:1000000058040020F90F0008B10F0008B30F0008D2
:10001000B50F0008B70F0008B90F00080000000076
:10002000000000000000000000000000BB0F0008FE
:10003000BD0F000800000000BF0F0008C10F00083E
:100040001110000815100008191000081D100008F4
:100050002110000825100008291000082D100008A4
:100060003110000835100008391000083D10000854
:100070004110000845100008491000084D10000804
:100080005110000855100008591000080000000029
:100090000000000000000000000000005D100008EB
:1000A0006110000865100008691000086D10000854
:1000B0007110000875100008791000087D10000804
:1000C0008110000885100008891000088D100008B4
:1000D0009110000895100008991000080000000019
:1000E000C50F00089D100008A110000800000000C6
:1000F000000000000000000000000000A510000843
:1001000000000000A9100008AD100008B1100008A0
:1001100000000000000000000000000000000000DF
:10012000B5100008B9100008BD100008C110000883
:10013000C5100008000000000000000000000000E2
:10014000000000000000000000000000C9100008CE
:10015000CD100008D1100008D5100008D9100008F3
:10016000DD100008E11000080000000000000000A1
:10017000000000000000000000000000000000007F
:1001800000000000E5100008000000000000000072
:10019000E91000082DE9F843040016D02078DFF8B4
:1001A0000063C10713D5B06800F00C00042807D025
:1001B000B06800F00C0008283DD1706841023AD5C3
:1001C0003068810303D56068002800F063812078DF
:1001D000B44F810719D5B06810F00C0F07D0B06884
:1001E00000F00C0008285BD17068410258D43068D8
:1001F000810703D5E068012840F04C81316820690F
:1002000021F0F80141EAC00131602178080779D571
:100210006069A549002868D001220A6000F048F909
:100220000546706F81076DD400F042F9401B02282B
:10023000F7D9032031E16068B0F5803F04D1306820
:1002400040F48030306011E0B0F5A02F306806D166
:1002500040F480203060316841F4803105E020F4C2
:1002600080303060316821F480213160606858B19D
:1002700000F01EF9054630688103A8D400F018F993
:10028000401B6528F7D3D4E700F012F90546306823
:1002900081039CD500F00CF9401B6528F7D3C8E713
:1002A000E068A8B10121396000F002F90546306824
:1002B000810705D400F0FCF8401B0228F7D9B8E705
:1002C0003068216920F0F80040EAC10030609CE706
:1002D000386000F0EDF805463168880795D500F0E4
:1002E000E7F8401B0228F7D9A3E7086000F0E0F820
:1002F0000546706F810705D500F0DAF8401B02282B
:10030000F7D996E7207841075FD5306C0025C1000A
:100310000AD400950125316C41F080513164306C74
:1003200000F0805000900098DFF88081D8F800003D
:10033000C10513D4D8F8000040F48070C8F800005C
:1003400000F0B6F88146D8F80000C10506D400F0E8
:10035000AFF8A0EB09000228F5D96AE7A0680128E8
:1003600005D00528306F06D140F004003067306FAB
:1003700040F0010005E0400840003067306F20F099
:100380000400306741F28938A06860B100F090F84D
:100390008146306F810713D400F08AF8A0EB090082
:1003A0004045F6D345E700F083F88146306F81077A
:1003B00006D500F07DF8A0EB09004045F6D338E7FC
:1003C0001DB1306C20F080503064A069002863D0EB
:1003D000B16801F00C0108293AD002282AD1002086
:1003E000386600F065F805463068810105D500F0F3
:1003F0005FF8401B0228F7D91BE7E069216A626AAF
:100400000843A16A490840EA8210491E40EA0140B7
:10041000E16A40EA016070600120386600F048F847
:1004200004463068810137D400F042F8001B0228EE
:10043000F7D9FEE60020386600F03AF80446306846
:10044000810129D500F034F8001B0228F7D9F0E625
:1004500001281FD07068E26900F48001914202BF58
:1004600000F03F01226A914201BF47F6C07101408E
:10047000626AB1EB821F0DD1A26A520800F44031CA
:10048000521EB1EB024F02BF00F07060E16AB0EBA8
:10049000016F01D0012000E00020BDE8F28300BF21
:1004A0000038024000004742800E47420070004082
:1004B00001484068704700BF000000202DE9F84F58
:1004C0000D4600266C496D4A0F23044601202F6813
:1004D000B04000EA0708804540F0BB804FEA460C78
:1004E000032707FA0CF76FEA070E6F6807F0030996
:1004F000B9F1010F1CBF07F00307022F12D1A76843
:10050000D5F80C900EEA070709FA0CF949EA070733
:10051000A760676827EA00006F68C7F30017B74055
:1005200038436060B0002F7907F00307032F21D014
:10053000E768D5F808900EEA070709FA0CF949EAC6
:100540000707E7602F7907F00307022F12D1F7089A
:1005500004EB870700F01C09D7F820A003FA09FB79
:100560002AEA0B0AD5F810B00BFA09F949EA0A0988
:10057000C7F8209027680EEA070E2F7907F00307C7
:1005800007FA0CF747EA0E0727606F6817F4403F39
:100590005FD0002700974FEA960C176847F4804712
:1005A000176000F00C00176807F48047009703FA03
:1005B00000FE009F324F57F82C7027EA0E0E314F85
:1005C000BC4208BF002713D02F4FBC4208BF0127F1
:1005D0000ED02E4FBC4208BF022709D02C4FBC4280
:1005E00008BF032704D02B4FBC420CBF04270727AA
:1005F00007FA00F0224F40EA0E0047F82C006FEA9D
:1006000008000F6800EA070C6F68FF0348BF48EA5C
:100610000C0CC1F800C04F6800EA070C6F68BF03FC
:1006200048BF48EA0C0CC1F804C08F6800EA070C08
:100630006F68FF0248BF48EA0C0CC1F808C0CF68D9
:1006400000EA070C6868800248BF48EA0C0CC1F851
:100650000CC0761C0F2E7FF639AFBDE8F18F02B9C2
:100660000904816170470C4A136803421CBF106083
:1006700000F014B870470000003C014044380240CC
:100680000838014000000240000402400008024017
:10069000000C024000100240143C014063480188F5
:1006A000491C0180704738B586B000F0F3F800F0BF
:1006B0006EF800F0CBF8002000904FF488155C48ED
:1006C0005C4C016841F004010160026802F0040220
:1006D0000092002200990092036843F080030360B7
:1006E000016801F08001009100990092036843F0D5
:1006F00001030360016801F001010091009900927B
:100700002021036843F002030360006800F0020048
:10071000009000982046FFF7A2FF4FF40050002100
:1007200001900391029501A94348FFF7C7FE0221FA
:100730000191029500210391204601A9FFF7BEFE19
:10074000202101910122002103910491029201A92B
:100750002046FFF7B3FE00220021282000F0CEF84B
:10076000282000F0E8F83548354901604FF416526A
:1007700000230C2142608360C36003614161836197
:10078000C36100F003F908B100F065F8FEE780B539
:1007900092B03022002106A800F098F900F056F837
:1007A000002000902748016841F08051016000213D
:1007B000006800F0805000900098234800910221CA
:1007C000026822F4404242F40042026001220068C2
:1007D00000F44040009000980691099210210A917F
:1007E000022200210C920D9110224FF4A8710E925A
:1007F0000F91042207211092119106A8FFF7CAFC5D
:1008000008B172B6FEE7022102910F204FF4805129
:1008100001900022049103920592022101A800F0A8
:100820005FF908B172B6FEE713B000BD54000020B6
:100830003038024000000240000802401000002052
:100840000044004040380240007000401422002163
:1008500001A800F03BB972B6FEE730B501688468C4
:100860004218416802EB5103C90703D54C4401E02B
:10087000491C08D19A4218BF12F9011B01D10C3052
:1008800030BD12F8015B002904F8015BF0D4491E69
:10089000F7D5EFE780B50B48016841F400710160BE
:1008A000026842F480620260016841F48071016074
:1008B000032000F016F8002000F0B8F900F0D6F997
:1008C000002002BD003C02400901020002D4294878
:1008D00081547047284B02F00F021A4402F8041C9E
:1008E0007047264B19684FF6FF020002114000F4D2
:1008F000E0600843224908431860704770B51F4BF9
:100900001C68C4F302230124C3F10705052D2EBF83
:100910000F2504FA05F56D1E1E1D072E34BF00239A
:10092000DB1E2940994004FA03F3BDE870405B1ECA
:100930001A401143C8E7010007D4012200F01F014B
:10094000104B8A40400943F82020704710B5401EE4
:10095000B0F1807F01D3012010BD0B4C60600F21EE
:100960004FF0FF30FFF7B0FF0021A16007202060AB
:10097000002010BD00E400E018ED00E00CED00E008
:100980000000FA0500E100E010E000E038B50400E6
:1009900001D1012032BD00F017F808B900F018F8B5
:1009A00000F01BF800F023F8FFE7416100F001F8C8
:1009B00032BD2068C16841F40051C1600020686008
:1009C00020216970A970704704F13C056878704770
:1009D00000212970204600F065B924206870206845
:1009E000C16821F40051C160204600F00AB82068B7
:1009F000016921F4904101612068416921F02A01D7
:100A0000704770B5044622681169E06821F44051CE
:100A100001431161D3682748A168034020690B4353
:100A200061690343E0690B430343D3605169A069E3
:100A300021F44071014351611F498A421CBF1F4884
:100A4000824202D100F0DAF801E000F0CFF86268EB
:100A50002568E4691921B4F5004FA1FB00016FF08E
:100A6000630612D1D30F520000F056F900F028F8B7
:100A7000F60032366420B6FBF0F0420002F4F87261
:100A800002EB011200F0070010E0930F920000F05B
:100A900043F900F015F8360132366420B6FBF0F069
:100AA00000F0F00202EB011200F00F008018A860C5
:100AB00070BD0000F369FFFF001001400014014009
:100AC0006421B0FBF1F106FB0106704710B5044646
:100AD00010460A460146204600F0A2F9204610BD05
:100AE0002DE9F04104000F4654D0494E306800F023
:100AF0000700B84202D200F073F84BD12068454D90
:100B0000810712D5400703D5A96841F4E051A960D7
:100B10002078010703D5A86840F46040A860A96860
:100B2000A06821F0F0010143A9602178C80729D508
:100B30006068012802D129688A0305E0022818BFED
:100B4000032803D129688A0103D423E029688A078E
:100B500020D5A968890840EA8100A860FFF7A8FCB1
:100B60008046A868616800F00C00B0EB810F09D0E6
:100B7000FFF79EFCA0EB080041F289318842F0D3D8
:100B800003202BE0306800F00700874204D200F019
:100B900027F801D0012021E02078410705D5AA6877
:100BA000E06822F4E0520243AA602178080706D5E3
:100BB000A968206921F4604141EAC001A96000F000
:100BC00063F9AA681449154BC2F30312895CC84043
:100BD00018601348006800F029F80020BDE8F08193
:100BE0003770316801F00701B94270470B480D4A70
:100BF000006813680C49C3F3822206E00748094ADB
:100C0000006813680849C3F34232895CC8407047E2
:100C1000003C024000380240580F00080C00002041
:100C200008000020083802400810000838B50D4DB3
:100C30000D4B2A7804464FF47A711868B1FBF2F232
:100C4000B0FBF2F0FFF782FE50B9102C08D2002260
:100C500021464FF0FF30FFF751FEAC60002032BD5F
:100C6000012032BD000000200C00002082B00020D6
:100C7000009000222448416841F48041416041686D
:100C800001F48041009100990092036843F0805381
:100C90000360006800F0805000900098072002B0C8
:100CA000FFF71FBE10B586B004461422002101A82C
:100CB000FFF70CFF21681548814222D10022144819
:100CC0000092016941F400310161016901F40031D0
:100CD0000091009900920C21036843F00103036026
:100CE0000222006800F0010000900098094801917C
:100CF00002920021039104910721059101A9FFF7B8
:100D0000DDFB06B010BD000040380240004400404A
:100D10003038024000000240D3BBD9B1B2F5803F69
:100D20005BD2022A1ED98C46B1FBF2F102FB11C341
:100D30001B0443EA1043B3FBF2FC02FB1C3380B2FA
:100D400040EA0343B3FBF2F002FB103240EA0C40EE
:100D500000237047022A05D98446B0FBF2F002FB5B
:100D600010C270474AB105D100F0010249085FEA9C
:100D70003000704700220023704700F0B5B80B0028
:100D80000200002100207047F7D3002200237047A3
:100D9000904271EB030CF2D370B5B1FA81F4B3FA5F
:100DA00083F52C1BA340C4F1200532FA05F633432A
:100DB000A2405FF00046E64002E05B085FEA3202D4
:100DC000841A71EB030524BF204629467641F4D3EB
:100DD00002000B003000002170BD70B5B1FA81F443
:100DE000B2FA82F5C4F120046419B4F12006DAD312
:100DF000B2405FF00044F440002502E052085FEA90
:100E00003303C61A71EB020E24BF304671466441AB
:100E10006D41F3D302000B002000290070BD0000DB
:100E200062F30F2262F31F42401810F0030308D050
:100E3000C91A1FD3DB0748BF00F8012D28BF20F8CF
:100E4000022D130030B414461546103928BF20E98E
:100E50003C00FAD8490728BF20E90C0048BF40F8F9
:100E6000042D890028BF20F8022D48BF00F8012D6D
:100E700030BC7047C91818BF00F8012DCB0728BF38
:100E800000F8012D7047000030B5144C606800F088
:100E90000C00042802D0082802D01DE0104830BD04
:100EA000226820680023410202F03F0204D5256831
:100EB0000B49C5F3881003E020680A49C0F3881085
:100EC000A1FB0001FFF728FF2168C1F30141491C84
:100ED0004900B0FBF1F030BD024830BD043802409B
:100EE00000127A000024F4007047000010B5074992
:100EF00079441831064C7C44163404E00A68081D15
:100F0000114488470146A142F8D110BD2C000000D1
:100F1000380000004EF68851CEF20001086840F417
:100F200070000860BFF34F8FBFF36F8F4FF00070FA
:100F3000E1EE100A7047000023F9FFFFB001000046
:100F40001A000000000000200248016841F470010E
:100F50000160704788ED00E0000000000000000024
:100F6000010203040607080900F00DF8002801D06B
:100F7000FFF7BCFFAFF300800020AFF30080FFF766
:100F800092FB00F002F80120704700F001B8000069
:100F90000746384600F002F8FBE7000080B5AFF3E3
:100FA0000080024A11001820ABBEFBE726000200B9
:100FB000FEE7FEE7FEE7FEE7FEE770477047704793
:100FC00000F004B84FF40050FFF74DBB02484168F1
:100FD00002788A18426070470000002005480146E8
:100FE00003B4684680F30988AFF30080FFF792FFEF
:100FF000FFF7BAFFA5EDF5FE01488047014800471D
:10100000490F0008DD0F0008000000000102030482
:10101000FFF7FEBFFFF7FEBFFFF7FEBFFFF7FEBF04
:10102000FFF7FEBFFFF7FEBFFFF7FEBFFFF7FEBFF4
:10103000FFF7FEBFFFF7FEBFFFF7FEBFFFF7FEBFE4
:10104000FFF7FEBFFFF7FEBFFFF7FEBFFFF7FEBFD4
:10105000FFF7FEBFFFF7FEBFFFF7FEBFFFF7FEBFC4
:10106000FFF7FEBFFFF7FEBFFFF7FEBFFFF7FEBFB4
:10107000FFF7FEBFFFF7FEBFFFF7FEBFFFF7FEBFA4
:10108000FFF7FEBFFFF7FEBFFFF7FEBFFFF7FEBF94
:10109000FFF7FEBFFFF7FEBFFFF7FEBFFFF7FEBF84
:1010A000FFF7FEBFFFF7FEBFFFF7FEBFFFF7FEBF74
:1010B000FFF7FEBFFFF7FEBFFFF7FEBFFFF7FEBF64
:1010C000FFF7FEBFFFF7FEBFFFF7FEBFFFF7FEBF54
:1010D000FFF7FEBFFFF7FEBFFFF7FEBFFFF7FEBF44
:1010E000FFF7FEBFFFF7FEBFFFF7FEBF0001F900ED
:0910F0000010FC000124F4B90019
:0400000508000FDD03
:00000001FF
