:020000040800F2
:10000000E8040020951D0008E11C0008E31C00081E
:10001000E51C0008E71C0008E91C000800000000BF
:10002000000000000000000000000000EB1C0008C1
:10003000ED1C000800000000EF1C0008F11C000887
:10004000BD1D0008C11D0008C51D0008C91D000810
:10005000CD1D0008D11D0008D51D0008D91D0008C0
:10006000DD1D0008E11D0008E51D0008E91D000870
:10007000ED1D0008F11D0008F51D0008F91D000820
:10008000FD1D0008011E0008051E000800000000FC
:10009000000000000000000000000000091E000831
:1000A0000D1E0008111E0008151E0008191E00086C
:1000B000F51C00081D1E0008211E0008251E000852
:1000C000291E00082D1E0008311E0008351E0008DC
:1000D000391E00083D1E0008411E000800000000F7
:1000E000451E0008491E00084D1E000800000000C3
:1000F000000000000000000000000000511E000889
:1001000000000000551E0008591E00085D1E000872
:1001100000000000000000000000000000000000DF
:10012000611E0008651E0008691E00086D1E00089B
:10013000711E000800000000000000000000000028
:10014000000000000000000000000000751E000814
:10015000791E00087D1E0008811E0008851E00080B
:10016000891E00088D1E000800000000000000002D
:10017000000000000000000000000000000000007F
:1001800000000000911E00080000000000000000B8
:10019000951E000838B5040001D1012032BD00F0E1
:1001A00093F818B900F0FFF900F07EFBFFE702209A
:1001B0006870211D206800F0FAF90120A872A8706B
:1001C000E87028716871A871E871287268726870A7
:1001D000002032BD886800F00700062870470846F6
:1001E000016841F001010160704738B5040001D198
:1001F000012032BD00F068F818B900F0D4F900F021
:10020000CBFBD4E710B5044604F13E0009B90278EF
:1002100007E0042908BF427803D008290CBF827880
:10022000C278012A01D0012010BD11B9022202704A
:100230000AE0042902D10222427005E0082907BF22
:10024000022282700223C3702068012200F0C7FAE4
:1002500000F021F818BFB1F1804F0DD000F017F871
:100260001CBFDFF85820914206D000F00CF81CBFEC
:10027000DFF85020914202D1FFF7ACFF01D0FFF729
:10028000AEFF002010BDDFF8380081427047DFF874
:100290002800814270472168DFF81800814205D1AB
:1002A000DFF82C100A6842F400420A60216881429B
:1002B00070470000000001400004004000080040BA
:1002C000000C00400040014004F13C056878704794
:1002D0004400014010B50446206801698A0715D51D
:1002E000C1688A0712D56FF00201016101222277ED
:1002F000806910F0030F204602D000F04EFB03E0AF
:1003000000F04CFB00F087F800202077206801699E
:100310004A0715D5C1684A0712D56FF0040101617B
:1003200002222277806910F4407F204602D000F03C
:1003300034FB03E000F032FB00F06DF80020207782
:10034000206801690A0715D5C1680A0712D56FF040
:100350000801016104222277C06910F0030F2046D2
:1003600002D000F01AFB03E000F018FB00F053F895
:100370000020207720680169CA0615D5C168CA0621
:1003800012D56FF01001016108222277C06910F4C4
:10039000407F204602D000F000FB03E000F0FEFAB0
:1003A00000F039F80020207720680169CA0708D5D5
:1003B000C168CA0705D56FF001010161204600F050
:1003C000EEFA206801690A0608D5C1680A0605D553
:1003D0006FF080010161204600F0E2FA20680169B7
:1003E0004A0608D5C1684A0605D56FF0400101618B
:1003F000204600F0D6FA206801698A060AD5C1684D
:100400008A0607D56FF0200101612046BDE8104043
:1004100000F0C8BA10BD204600F0C5BA002084F82C
:100420003C002846704770B500F058F801D1022012
:1004300070BD012084F83C0032B1042A15D0082A8E
:1004400025D00C2A34D045E0206800F0EDF8216872
:10045000886940F008008861886920F0040088619C
:100460008A69306902438A6135E0206800F001F949
:100470002068816941F400618161816921F48061B2
:1004800081618169326941EA0221816123E020684A
:1004900000F018F92168C86940F00800C861C8690F
:1004A00020F00400C861CA6930690243CA6112E0E1
:1004B000206800F02FF92068C16941F40061C16132
:1004C000C16921F48061C161C169326941EA0221D7
:1004D000C16100E00125FFF7A1FF70BD04460025C2
:1004E00094F83C0001280E46704770B5064606F1A8
:1004F0003C0500242878012801D1022070BD01208C
:10050000287002226A70DFF84C0232689368034058
:1005100093600868020018BF102830D0202818BF48
:1005200030282CD0402826D0502819D060281BD045
:10053000702806D0B0F5805F27D0B0F5005F07D0F7
:1005400022E000F02BF83068816841F0770105E087
:1005500000F024F83068816841F48041816014E043
:1005600000F018F850210BE0CA684968306800F0C4
:1005700012F9602104E000F00DF8402100E001468E
:10058000306800F01AF900E001240120687000F0E2
:100590000AF870BDCA6849683068EDE0CB684A68FF
:1005A0008968306811E10021297020467047F0B554
:1005B000694B0468694D6A4E6A4F984218BFB0F1A2
:1005C000804F04D0B8421CBFB042A8420CD14A6848
:1005D00024F070041443984218BFB0F1804F0ED03D
:1005E000B84218BFB0420AD0A8421CBF5E4A90422F
:1005F00005D05E4DA8421CBF5D4A904203D1CA6837
:1006000024F4407414434A6924F0800414430460C1
:1006100098428C68C4620A68826202D10969554AAC
:10062000116001234361F0BD70B5026A52085200A7
:100630000262066A446885690B688A6825F073055A
:100640001D4326F002061643434B98420BD1CA685D
:100650004B6926F0080624F4407416438A691C434B
:1006600026F00406144344608561496841630662CC
:1006700070BD70B5026A384E22F010020262B042BC
:10068000056A436884690A6824F4E64444EA02245B
:100690008A6825F0200545EA02150DD1CA684E6921
:1006A00025F0800545EA02158A6923F44063164364
:1006B00025F0400543EA860343608461496881630D
:1006C000056270BD70B5026A22F480720262056A2A
:1006D0004368C4690A688E6824F0730414431E4A90
:1006E00025F40075904245EA06250DD1CA684E6989
:1006F00025F4006545EA02258A6923F44053164330
:1007000025F4806543EA06134360C4614968C16308
:10071000056270BD70B5026A0F4E22F4805202620B
:10072000B042046A4268C3690D6823F4E64343EAB1
:1007300005238D6824F4005444EA053404D14D693E
:1007400022F4804242EA85124260C3614968016432
:10075000046270BD8800FFFF00000140000C0040F3
:1007600000080040000400400040014000440140F7
:10077000004801403000014010B5036A046A640873
:100780006400046223F00A03846924F0F00444EA5C
:10079000021484612EE010B5036A23F01003036293
:1007A0008369046A23F4704343EA023324F0A0040B
:1007B000836144EA0114046210BD826822F0700271
:1007C000114341F007018160704710B5846824F43B
:1007D0007F442143114341EA0321816010BD10B5DC
:1007E00001F01F01036A01248C40A343036202FA53
:1007F00001F1036A1943016210BD0EE0026843680B
:10080000024408305FEAC37C44BF4B445B1E52F88D
:1008100004CB43F804CB091FF9D150F8041B00297D
:10082000ECD1704782B0002000900022554841680A
:1008300041F480414160416801F480410091009998
:100840000092036843F080530360006800F080501A
:1008500000900098072002B000F0B3B810B586B041
:1008600000F05CF82168484881421BD100224748CB
:100870000092416941F480714161416901F48071E4
:100880000091009900920121036843F00103036085
:10089000032200F021F83E480191029200210391C9
:1008A00000F039F806B010BD0068B0F1804F00D0FC
:1008B000704780B5002133480091026842F0010280
:1008C0000260002200F008F81C2000F087F8BDE864
:1008D00002401C2000F09FB8006800F0010000906A
:1008E0000098704710B586B000F018F82168B1F193
:1008F000804F0DD10020009002222448016841F071
:1009000001010160202100F031F8012100F002F81E
:1009100006B010BD059101A900F0A8B80446142244
:10092000002101A800F084B910B586B0FFF7F6FFEA
:1009300021681848814217D10022144800920169A9
:1009400041F400310161016901F400310091009925
:1009500000920C21036843F001030360022200F0BF
:1009600005F80721FFF7D6FF06B010BD006800F0BC
:100970000100009000980648019102920021039125
:100980000491704740380240002001403038024056
:1009900000000240004400407047704770477047B5
:1009A00070477047704770470901020002D4294818
:1009B00081547047284B02F00F021A4402F8041CBD
:1009C0007047264B19684FF6FF020002114000F4F1
:1009D000E0600843224908431860704770B51F4B18
:1009E0001C68C4F302230124C3F10705052D2EBFA3
:1009F0000F2504FA05F56D1E1E1D072E34BF0023BA
:100A0000DB1E2940994004FA03F3BDE870405B1EE9
:100A10001A401143C8E7010007D4012200F01F016A
:100A2000104B8A40400943F82020704710B5401E03
:100A3000B0F1807F01D3012010BD0B4C60600F210D
:100A40004FF0FF30FFF7B0FF0021A16007202060CA
:100A5000002010BD00E400E018ED00E00CED00E027
:100A60000000FA0500E100E010E000E02DE9F84F99
:100A70000D4600266649674A0F23044601202F6869
:100A8000B04000EA0708804540F0BB804FEA460CC2
:100A9000032707FA0CF76FEA070E6F6807F00309E0
:100AA000B9F1010F1CBF07F00307022F12D1A7688D
:100AB000D5F80C900EEA070709FA0CF949EA07077E
:100AC000A760676827EA00006F68C7F30017B740A0
:100AD00038436060B0002F7907F00307032F21D05F
:100AE000E768D5F808900EEA070709FA0CF949EA11
:100AF0000707E7602F7907F00307022F12D1F708E5
:100B000004EB870700F01C09D7F820A003FA09FBC3
:100B10002AEA0B0AD5F810B00BFA09F949EA0A09D2
:100B2000C7F8209027680EEA070E2F7907F0030711
:100B300007FA0CF747EA0E0727606F6817F4403F83
:100B40005FD0002700974FEA960C176847F480475C
:100B5000176000F00C00176807F48047009703FA4D
:100B600000FE009F2C4F57F82C7027EA0E0E2B4FDB
:100B7000BC4208BF002713D0294FBC4208BF012741
:100B80000ED0284FBC4208BF022709D0264FBC42D6
:100B900008BF032704D0254FBC420CBF04270727FA
:100BA00007FA00F01C4F40EA0E0047F82C006FEAED
:100BB00008000F6800EA070C6F68FF0348BF48EAA7
:100BC0000C0CC1F800C04F6800EA070C6F68BF0347
:100BD00048BF48EA0C0CC1F804C08F6800EA070C53
:100BE0006F68FF0248BF48EA0C0CC1F808C0CF6824
:100BF00000EA070C6868800248BF48EA0C0CC1F89C
:100C00000CC0761C0F2E7FF639AFBDE8F18F0000C7
:100C1000003C0140443802400838014000000240D6
:100C20000004024000080240000C02400010024094
:100C300010B5044610460A460146204600F002F868
:100C4000204610BD62F30F2262F31F42401810F0DD
:100C5000030308D0C91A1FD3DB0748BF00F8012DD2
:100C600028BF20F8022D130030B414461546103961
:100C700028BF20E93C00FAD8490728BF20E90C002A
:100C800048BF40F8042D890028BF20F8022D48BF36
:100C900000F8012D30BC7047C91818BF00F8012DAD
:100CA000CB0728BF00F8012D7047000070B504463F
:100CB00000250CB9012070BD04F13006306920B95F
:100CC0002046FFF7CBFD756135733069C10600F131
:100CD00092803069DFF8601420F4885040F0020000
:100CE0003061086820F4403008600A686068024398
:100CF0000A602068416821F4807141602068416881
:100D0000226941EA022141602068416821F0407176
:100D1000416021684A68A06802434A60206881688F
:100D200021F40061816021688A68E06802438A607A
:100D30002068A16ADFF804249142816821F0706183
:100D400081600CD021688A68A06A02438A6000F042
:100D50005BF821688A68E06A02438A6001E000F07B
:100D600053F82068816821F0020100F049F8227EE2
:100D700041EA4201816094F8200021680028486817
:100D80000FD040F4006048602068416821F4604161
:100D9000416020684168626A521E41EA4231416006
:100DA00002E020F4006048602068C16A21F470010C
:100DB000C1622068C16AE269521E41EA0251C16201
:100DC0002068816821F4007100F01AF8327841EA55
:100DD000422100F015F821F4806100F011F86269F9
:100DE00041EA822181607561316921F0020141F09F
:100DF0000101316100E0012500203073284670BDFB
:100E000081602068816870472068816821F04051C6
:100E10008160704738B500F0C5F801D1022032BDBD
:100E200000F0CDF822D500F0A5F846BF906820F07C
:100E30000600002000F08CF8DFF8FC120B6813F0BD
:100E40001F0F06D1816811F0405F11D100F0B2F898
:100E50000EE0DFF8EC12884202BFDFF8E802026819
:100E600012F0405F04D100F098F801E000F079F84A
:100E7000002032BD00F13C010A78012A01D1022094
:100E8000704701220A70026893685B085B009360F8
:100E900000688268D00705D44A6822F4885242F07C
:100EA00001024A60002008707047F8B50C460646FB
:100EB00006F13C05306881684A050AD58068C1059D
:100EC00007D5686840F02000686000212970012083
:100ED000F2BD00F041F90746306801688A0714D472
:100EE00014F1010FF8D024B100F036F9C01B844290
:100EF000F2D2306801688A07EED4686840F00400D6
:100F00006860002129700320F2BD6FF012020260B8
:100F1000686840F4007068603168886810F0405F6D
:100F200004BF307E002811D1C86A10F4700F02D0BF
:100F3000886841050AD4686820F480706860686831
:100F4000C10403D4686840F0010068600020F2BD6D
:100F50009060002313706FF022000A681060086828
:100F60007047506840F010005060906840F00100F9
:100F7000906070475568DFF8D001054045F48075F2
:100F800055605868430505D5506820F4005040F47A
:100F9000805050605068C3047047016841F0804140
:100FA000016070470146002001F13C020090137877
:100FB000012B7047816841F08041816070470120BA
:100FC000107008688368DC0714D48368DFF87C41FC
:100FD00043F001038360DFF878010368B3FBF4F4A6
:100FE00004EB4404009402E00098401E0090009836
:100FF0000028F9D10B689868C40770470068C06C76
:10100000704778B502460020009092F83C30012BE2
:1010100001D1022072BD012082F83C0007240B6838
:1010200010680A2B12D30A3BC56803EB43039C40AC
:1010300025EA0404C460C3680D688C68A5F10A063B
:1010400006EB4606B4402343C3600FE0056903EB9B
:10105000430304FA03F325EA0303036103690D68FC
:101060008C6805EB4505AC40234303611F244B68A6
:10107000072B0CD25B1E456B00F050F84463436BAA
:101080004D680C886E1E00F044F843631BE00D2B86
:101090000CD2DB1F056B00F041F80463036B4D6855
:1010A0000C88EE1F00F035F803630CE00D3BC56AB9
:1010B00000F034F8C462C36A4D680C88A5F10D06CF
:1010C00000F027F8C3621E4B98421DD10C681A48E5
:1010D000122C03D1036843F4800303600B68102BC8
:1010E00018BF112B10D1036843F400030360086894
:1010F000102809D11649154C0B68B3FBF4F40A20EB
:101100004443009400F010F8002182F83C100020C5
:1011100072BD06EB8606B4402343704703EB83039E
:101120009C4025EA0404704702E00098401E0090AD
:1011300000980028F9D17047042301400100000FF6
:101140000020014008200140FEF9FFFF40420F004F
:101150000C000020006C704701484068704700BFD9
:10116000000000202DE9F843040016D02078DFF8B5
:101170000063C10713D5B06800F00C00042807D045
:10118000B06800F00C0008283DD1706841023AD5E3
:101190003068810303D56068002800F063812078FF
:1011A000B44F810719D5B06810F00C0F07D0B068A4
:1011B00000F00C0008285BD17068410258D43068F8
:1011C000810703D5E068012840F04C81316820692F
:1011D00021F0F80141EAC00131602178080779D592
:1011E0006069A549002868D001220A60FFF7B4FFB2
:1011F0000546706F81076DD4FFF7AEFF401B0228D4
:10120000F7D9032031E16068B0F5803F04D1306840
:1012100040F48030306011E0B0F5A02F306806D186
:1012200040F480203060316841F4803105E020F4E2
:1012300080303060316821F480213160606858B1BD
:10124000FFF78AFF054630688103A8D4FFF784FFC3
:10125000401B6528F7D3D4E7FFF77EFF05463068CB
:1012600081039CD5FFF778FF401B6528F7D3C8E7BB
:10127000E068A8B101213960FFF76EFF05463068CC
:10128000810705D4FFF768FF401B0228F7D9B8E7AC
:101290003068216920F0F80040EAC10030609CE726
:1012A0003860FFF759FF05463168880795D5FFF785
:1012B00053FF401B0228F7D9A3E70860FFF74CFF54
:1012C0000546706F810705D5FFF746FF401B0228D2
:1012D000F7D996E7207841075FD5306C0025C1002B
:1012E0000AD400950125316C41F080513164306C95
:1012F00000F0805000900098DFF88081D8F800005E
:10130000C10513D4D8F8000040F48070C8F800007C
:10131000FFF722FF8146D8F80000C10506D4FFF789
:101320001BFFA0EB09000228F5D96AE7A068012895
:1013300005D00528306F06D140F004003067306FCB
:1013400040F0010005E0400840003067306F20F0B9
:101350000400306741F28938A06860B1FFF7FCFEF5
:101360008146306F810713D4FFF7F6FEA0EB09002A
:101370004045F6D345E7FFF7EFFE8146306F810722
:1013800006D5FFF7E9FEA0EB09004045F6D338E7A4
:101390001DB1306C20F080503064A069002863D00B
:1013A000B16801F00C0108293AD002282AD10020A6
:1013B0003866FFF7D1FE05463068810105D5FFF795
:1013C000CBFE401B0228F7D91BE7E069216A626A5D
:1013D0000843A16A490840EA8210491E40EA0140D8
:1013E000E16A40EA0160706001203866FFF7B4FEF0
:1013F00004463068810137D4FFF7AEFE001B022897
:10140000F7D9FEE600203866FFF7A6FE04463068EE
:10141000810129D5FFF7A0FE001B0228F7D9F0E6CD
:1014200001281FD07068E26900F48001914202BF78
:1014300000F03F01226A914201BF47F6C0710140AE
:10144000626AB1EB821F0DD1A26A520800F44031EA
:10145000521EB1EB024F02BF00F07060E16AB0EBC8
:10146000016F01D0012000E00020BDE8F28300BF41
:101470000038024000004742800E474200700040A2
:1014800078B58DB000F052F900F0E5F800F046F9BB
:1014900000200090984C9948016841F004010160D7
:1014A00004F13005026802F0040200920022009963
:1014B0000092036843F080030360016801F080013B
:1014C000009100990092036843F0010303600168F2
:1014D00001F001010091009900924FF4005103685E
:1014E00043F0020303604FF40412006800F00200AE
:1014F000009000988248019102920021039101A975
:10150000FFF7B4FA102200216846FFF791FB7D48EF
:1015100020604FF480317C48A06200220120E0610D
:1015200060616160A2602261227684F82020E2621C
:10153000E2602A702046FFF7B9FB08B100F0F3F82B
:101540000020012100900191029069462046FFF79A
:1015500058FD08B100F0E7F81022002109A8FFF7B4
:1015600067FB082200216846FFF762FB1C2200216E
:1015700002A8FFF75DFB002129664FF08040E86577
:1015800000206249A9666866E8668021696704F1FF
:101590008C063046FEF7FEFD08B100F0C4F84FF4AB
:1015A0008050099009A93046FEF79FFF08B100F06E
:1015B000BAF83046FEF719FE08B100F0B4F8002181
:1015C000009101913046694600F0CAF808B100F078
:1015D000AAF860210291002203920492069202A9C5
:1015E0003046FEF720FF08B100F09DF83046FFF7C7
:1015F00079F94748A8614FF4E131E9610020286298
:101600006862A8620C2128636863E96204F14800FB
:1016100000F0E2F808B100F086F800213046FEF74D
:10162000F1FD2046FFF7F6FB0A212046FFF73DFCBF
:101630002046FFF78FFD800509D52046FFF7DEFC29
:10164000EA6D0A2148435063642000F065F92046A2
:10165000FFF710FCE5E780B592B03022002106A824
:10166000FFF7E6FA00F05AF80020009029480168D8
:1016700041F0805101600021006800F0805000902E
:101680000098254800910221026822F4404242F469
:10169000004202600122006800F44040009000987F
:1016A0000691099210210A91022200210C920D91BB
:1016B00010224FF4A8710E920F910422072110926C
:1016C000119106A8FFF74EFD08B172B6FEE70221A0
:1016D00002910F204FF48051019000220491039257
:1016E0000592022101A800F02BF908B172B6FEE7BD
:1016F00013B000BD00000000100000203038024090
:1017000000080240002001400100000F3F420F008E
:101710000044004040380240007000401422002184
:1017200001A8FFF785BA72B6FEE7000080B50B4846
:10173000016841F400710160026842F48062026055
:10174000016841F4807101600320FFF73AF900203D
:1017500000F09CF9FFF766F8002002BD003C024053
:1017600070B500F13C031A78012A01D1022070BD46
:1017700001221A7002245C7005686E68AC680A6801
:1017800026F0700616436E6002680E48824218BF4B
:10179000B2F1804F0BD00D4882421CBF0C4DAA42C3
:1017A00005D0094882421CBF0A4DAA4204D14868AC
:1017B00024F08004044394600121597000201870C3
:1017C00070BD000000000140000C0040000400401B
:1017D000000800400040014038B5040001D101205C
:1017E00032BD00F017F808B900F018F800F01BF847
:1017F00000F023F8FFE7416100F001F832BD2068F6
:10180000C16841F40051C160002068602021697006
:10181000A970704704F13C05687870470021297071
:101820002046FFF781B8242068702068C16821F441
:101830000051C160204600F00AB82068016921F417
:10184000904101612068416921F02A01704770B51B
:10185000044622681169E06821F440510143116196
:10186000D3682748A168034020690B43616903439B
:10187000E0690B430343D3605169A06921F44071CF
:10188000014351611F498A421CBF1F48824202D155
:1018900000F0E4F801E000F0D9F862682568E46936
:1018A0001921B4F5004FA1FB00016FF0630612D1BE
:1018B000D30F520000F00AF900F028F8F600323693
:1018C0006420B6FBF0F0420002F4F87202EB011261
:1018D00000F0070010E0930F920000F0F7F800F01E
:1018E00015F8360132366420B6FBF0F000F0F00255
:1018F00002EB011200F00F008018A86070BD00001C
:10190000F369FFFF00100140001401406421B0FBA7
:10191000F1F106FB0106704738B50446FFF71CFCE1
:1019200014F1010F054602D0044801786418FFF74E
:1019300013FC401BA042FAD331BD00BF00000020C1
:101940002DE9F04104000F4654D0494E306800F0B4
:101950000700B84202D200F073F84BD12068454D21
:10196000810712D5400703D5A96841F4E051A96069
:101970002078010703D5A86840F46040A860A968F2
:10198000A06821F0F0010143A9602178C80729D59A
:101990006068012802D129688A0305E0022818BF7F
:1019A000032803D129688A0103D423E029688A0720
:1019B00020D5A968890840EA8100A860FFF7CCFB20
:1019C0008046A868616800F00C00B0EB810F09D078
:1019D000FFF7C2FBA0EB080041F289318842F0D347
:1019E00003202BE0306800F00700874204D200F0AB
:1019F00027F801D0012021E02078410705D5AA6809
:101A0000E06822F4E0520243AA602178080706D574
:101A1000A968206921F4604141EAC001A96000F091
:101A2000D9F8AA681449154BC2F30312895CC8405F
:101A300018601348006800F029F80020BDE8F08124
:101A40003770316801F00701B94270470B480D4A01
:101A5000006813680C49C3F3822206E00748094A6C
:101A6000006813680849C3F34232895CC840704774
:101A7000003C024000380240201D00080C000020FD
:101A80000800002008380240B41D000838B50D4D8C
:101A90000D4B2A7804464FF47A711868B1FBF2F2C4
:101AA000B0FBF2F0FEF7C2FF50B9102C08D20022B2
:101AB00021464FF0FF30FEF791FFAC60002032BDB1
:101AC000012032BD000000200C000020D3BBD9B1A2
:101AD000B2F5803F5BD2022A1ED98C46B1FBF2F1EF
:101AE00002FB11C31B0443EA1043B3FBF2FC02FBED
:101AF0001C3380B240EA0343B3FBF2F002FB103226
:101B000040EA0C4000237047022A05D98446B0FB06
:101B1000F2F002FB10C270474AB105D100F0010299
:101B200049085FEA3000704700220023704700F048
:101B300081B80B000200002100207047F7D300227B
:101B400000237047904271EB030CF2D370B5B1FAE9
:101B500081F4B3FA83F52C1BA340C4F1200532FABB
:101B600005F63343A2405FF00046E64002E05B0822
:101B70005FEA3202841A71EB030524BF204629462E
:101B80007641F4D302000B003000002170BD70B527
:101B9000B1FA81F4B2FA82F5C4F120046419B4F107
:101BA0002006DAD3B2405FF00044F440002502E0A2
:101BB00052085FEA3303C61A71EB020E24BF3046A7
:101BC000714664416D41F3D302000B0020002900EF
:101BD00070BD000030B5144C606800F00C000428A3
:101BE00002D0082802D01DE0104830BD22682068CD
:101BF0000023410202F03F0204D525680B49C5F3DA
:101C0000881003E020680A49C0F38810A1FB000196
:101C1000FFF75CFF2168C1F30141491C4900B0FB9B
:101C2000F1F030BD024830BD0438024000127A00A5
:101C30000024F400704730B4002512E050F8042B63
:101C4000D30744BF4A44521E091F042942F8045BCB
:101C5000FAD213468C0744BF15809B1CC90748BFA6
:101C60001D7050F8041B0029E8D130BC70470000FB
:101C700010B5074979441831064C7C44163404E009
:101C80000A68081D114488470146A142F8D110BDD9
:101C90002C0000004C0000004EF68851CEF20001EE
:101CA000086840F470000860BFF34F8FBFF36F8F78
:101CB0004FF00070E1EE100A704700007BFFFFFF5D
:101CC000D400000010000020000000002FEBFFFFF8
:101CD00010000000D0000000000000200000000004
:101CE000FEE7FEE7FEE7FEE7FEE770477047704756
:101CF00000F006B80148FEF7EDBA00009C00002095
:101D00000248416802788A1842607047000000204B
:101D10000248016841F470010160704788ED00E0FD
:101D2000000000000000000001020304060708098B
:101D300000F00DF8002801D0FFF79AFFAFF3008004
:101D40000020AFF30080FFF79BFB00F002F80120BA
:101D5000704700F001B800000746384600F002F86E
:101D6000FBE7000080B5AFF30080024A11001820A5
:101D7000ABBEFBE7260002000548014603B46846F7
:101D800080F30988AFF30080FFF786FFFFF7D0FFED
:101D9000A5EDF5FE0148804701480047111D0008E8
:101DA000791D000801000000000000001000000084
:101DB0000024F4000000000001020304FFF7FEBF4E
:101DC000FFF7FEBFFFF7FEBFFFF7FEBFFFF7FEBF47
:101DD000FFF7FEBFFFF7FEBFFFF7FEBFFFF7FEBF37
:101DE000FFF7FEBFFFF7FEBFFFF7FEBFFFF7FEBF27
:101DF000FFF7FEBFFFF7FEBFFFF7FEBFFFF7FEBF17
:101E0000FFF7FEBFFFF7FEBFFFF7FEBFFFF7FEBF06
:101E1000FFF7FEBFFFF7FEBFFFF7FEBFFFF7FEBFF6
:101E2000FFF7FEBFFFF7FEBFFFF7FEBFFFF7FEBFE6
:101E3000FFF7FEBFFFF7FEBFFFF7FEBFFFF7FEBFD6
:101E4000FFF7FEBFFFF7FEBFFFF7FEBFFFF7FEBFC6
:101E5000FFF7FEBFFFF7FEBFFFF7FEBFFFF7FEBFB6
:101E6000FFF7FEBFFFF7FEBFFFF7FEBFFFF7FEBFA6
:101E7000FFF7FEBFFFF7FEBFFFF7FEBFFFF7FEBF96
:101E8000FFF7FEBFFFF7FEBFFFF7FEBFFFF7FEBF86
:081E9000FFF7FEBFFFF7FEBFE4
:0400000508001D7959
:00000001FF
