:020000040800F2
:100000005804002021100008FD0F0008FF0F000811
:10001000011000080310000805100008000000008F
:1000200000000000000000000000000007100008B1
:1000300009100008000000000B1000080D10000857
:10004000391000083D100008411000084510000854
:10005000491000084D100008511000085510000804
:10006000591000085D1000086110000865100008B4
:10007000691000086D100008711000087510000864
:10008000791000087D1000088110000800000000B1
:1000900000000000000000000000000085100008C3
:1000A000891000088D1000089110000895100008B4
:1000B000991000089D100008A1100008A510000864
:1000C000A9100008AD100008B1100008B510000814
:1000D000B9100008BD100008C110000800000000A1
:1000E000C5100008C9100008CD100008000000006D
:1000F000000000000000000000000000D110000817
:1001000000000000D5100008D9100008DD1000081C
:1001100000000000000000000000000000000000DF
:10012000E1100008E5100008E9100008ED100008D3
:10013000F1100008000000000000000000000000B6
:10014000000000000000000000000000F5100008A2
:10015000F9100008FD100008011100080511000841
:10016000091100080D110008000000000000000047
:10017000000000000000000000000000000000007F
:100180000000000011110008000000000000000045
:10019000151100082DE9F843040016D02078DFF887
:1001A0000063C10713D5B06800F00C00042807D025
:1001B000B06800F00C0008283DD1706841023AD5C3
:1001C0003068810303D56068002800F063812078DF
:1001D000B44F810719D5B06810F00C0F07D0B06884
:1001E00000F00C0008285BD17068410258D43068D8
:1001F000810703D5E068012840F04C81316820690F
:1002000021F0F80141EAC00131602178080779D571
:100210006069A549002868D001220A6000F048F909
:100220000546706F81076DD400F042F9401B02282B
:10023000F7D9032031E16068B0F5803F04D1306820
:1002400040F48030306011E0B0F5A02F306806D166
:1002500040F480203060316841F4803105E020F4C2
:1002600080303060316821F480213160606858B19D
:1002700000F01EF9054630688103A8D400F018F993
:10028000401B6528F7D3D4E700F012F90546306823
:1002900081039CD500F00CF9401B6528F7D3C8E713
:1002A000E068A8B10121396000F002F90546306824
:1002B000810705D400F0FCF8401B0228F7D9B8E705
:1002C0003068216920F0F80040EAC10030609CE706
:1002D000386000F0EDF805463168880795D500F0E4
:1002E000E7F8401B0228F7D9A3E7086000F0E0F820
:1002F0000546706F810705D500F0DAF8401B02282B
:10030000F7D996E7207841075FD5306C0025C1000A
:100310000AD400950125316C41F080513164306C74
:1003200000F0805000900098DFF88081D8F800003D
:10033000C10513D4D8F8000040F48070C8F800005C
:1003400000F0B6F88146D8F80000C10506D400F0E8
:10035000AFF8A0EB09000228F5D96AE7A0680128E8
:1003600005D00528306F06D140F004003067306FAB
:1003700040F0010005E0400840003067306F20F099
:100380000400306741F28938A06860B100F090F84D
:100390008146306F810713D400F08AF8A0EB090082
:1003A0004045F6D345E700F083F88146306F81077A
:1003B00006D500F07DF8A0EB09004045F6D338E7FC
:1003C0001DB1306C20F080503064A069002863D0EB
:1003D000B16801F00C0108293AD002282AD1002086
:1003E000386600F065F805463068810105D500F0F3
:1003F0005FF8401B0228F7D91BE7E069216A626AAF
:100400000843A16A490840EA8210491E40EA0140B7
:10041000E16A40EA016070600120386600F048F847
:1004200004463068810137D400F042F8001B0228EE
:10043000F7D9FEE60020386600F03AF80446306846
:10044000810129D500F034F8001B0228F7D9F0E625
:1004500001281FD07068E26900F48001914202BF58
:1004600000F03F01226A914201BF47F6C07101408E
:10047000626AB1EB821F0DD1A26A520800F44031CA
:10048000521EB1EB024F02BF00F07060E16AB0EBA8
:10049000016F01D0012000E00020BDE8F28300BF21
:1004A0000038024000004742800E47420070004082
:1004B00001484068704700BF0000002038B586B092
:1004C00000F0F0F800F08CF814220021684600F0EB
:1004D00003F9002005906B4C6B486C4D016841F0AE
:1004E00004010160026802F00402059200220599ED
:1004F0000592036843F080030360016801F0800106
:10050000059105990592036843F0010303600168B2
:1005100001F001010591059905922021036843F03E
:1005200002030360006800F0020005900598204671
:1005300000F0B3F9002200F046F84FF400504FF4F9
:10054000041100900191002202926946284600F0B1
:10055000CDF8202100F03CF8204600F0C7F84FF419
:10056000806000210090019102912846694600F0C8
:10057000BDF84FF4006100F02BF8284600F0B6F803
:100580004348444901604FF4E13200230C214260AA
:100590008360C360036141618361C36100F092F9CC
:1005A00008B100F07DF84FF48061284600F06FF943
:1005B000C043C00754BF0022012200F004F8C82045
:1005C00000F020FAEFE74FF40061284600F065B92B
:1005D0000091012200210291039101926946704726
:1005E00080B592B03022002106A800F075F81422E0
:1005F000002101A800F070F8002000902648016852
:1006000041F0805101600021006800F080500090AE
:100610000098224800910221026822F4404242F4EC
:10062000004202600122006800F4404000900098FF
:100630000691099210210A91022200210C920D913B
:1006400010224FF4A8710E920F91042207211092EC
:10065000119106A8FFF79EFD08B172B6FEE70221D0
:1006600002910F204FF480510190002204910392D7
:100670000592022101A800F0D9F908B172B6FEE78F
:1006800013B000BD000002403038024000080240B4
:10069000100000200044004040380240007000403C
:1006A00072B6FEE780B50B48016841F40071016045
:1006B000026842F480620260016841F48071016066
:1006C000032000F066FA002000F0ACFA00F0CAFA4D
:1006D000002002BD003C024010B5044610460A4608
:1006E0000146204600F014FB204610BD2DE9F84FCE
:1006F0000D4600266B496C4A0F23044601202F68E3
:10070000B04000EA0708804540F0BB804FEA460C45
:10071000032707FA0CF76FEA070E6F6807F0030963
:10072000B9F1010F1CBF07F00307022F12D1A76810
:10073000D5F80C900EEA070709FA0CF949EA070701
:10074000A760676827EA00006F68C7F30017B74023
:1007500038436060B0002F7907F00307032F21D0E2
:10076000E768D5F808900EEA070709FA0CF949EA94
:100770000707E7602F7907F00307022F12D1F70868
:1007800004EB870700F01C09D7F820A003FA09FB47
:100790002AEA0B0AD5F810B00BFA09F949EA0A0956
:1007A000C7F8209027680EEA070E2F7907F0030795
:1007B00007FA0CF747EA0E0727606F6817F4403F07
:1007C0005FD0002700974FEA960C176847F48047E0
:1007D000176000F00C00176807F48047009703FAD1
:1007E00000FE009F314F57F82C7027EA0E0E304F55
:1007F000BC4208BF002713D02E4FBC4208BF0127C0
:100800000ED02D4FBC4208BF022709D02B4FBC424F
:1008100008BF032704D02A4FBC420CBF0427072778
:1008200007FA00F0214F40EA0E0047F82C006FEA6B
:1008300008000F6800EA070C6F68FF0348BF48EA2A
:100840000C0CC1F800C04F6800EA070C6F68BF03CA
:1008500048BF48EA0C0CC1F804C08F6800EA070CD6
:100860006F68FF0248BF48EA0C0CC1F808C0CF68A7
:1008700000EA070C6868800248BF48EA0C0CC1F81F
:100880000CC0761C0F2E7FF639AFBDE8F18F0069E2
:10089000084018BF0120C0B2704702B90904816145
:1008A00070470000003C01404438024008380140D5
:1008B000000002400004024000080240000C024018
:1008C0000010024038B5040001D1012032BD00F013
:1008D00017F808B900F018F800F01BF800F023F83A
:1008E000FFE7416100F001F832BD2068C16841F4C2
:1008F0000051C1600020686020216970A9707047B4
:1009000004F13C056878704700212970204600F00A
:10091000C5B9242068702068C16821F40051C16005
:10092000204600F00AB82068016921F49041016175
:100930002068416921F02A01704770B50446226899
:100940001169E06821F4405101431161D3682748DF
:10095000A168034020690B4361690343E0690B43CD
:100960000343D3605169A06921F44071014351618F
:100970001F498A421CBF1F48824202D100F0E4F89E
:1009800001E000F0D9F862682568E4691921B4F53E
:10099000004FA1FB00016FF0630612D1D30F52008C
:1009A00000F006FA00F028F8F60032366420B6FBB4
:1009B000F0F0420002F4F87202EB011200F00700BE
:1009C00010E0930F920000F0F3F900F015F83601F3
:1009D00032366420B6FBF0F000F0F00202EB0112B8
:1009E00000F00F008018A86070BD0000F369FFFFE1
:1009F00000100140001401406421B0FBF1F106FB3E
:100A00000106704738B50446FFF752FD14F1010F97
:100A1000054602D0044801786418FFF749FD401BE1
:100A2000A042FAD331BD00BF000000202DE9F04103
:100A300004000F4654D0494E306800F00700B84219
:100A400002D200F073F84BD12068454D810712D5D2
:100A5000400703D5A96841F4E051A9602078010757
:100A600003D5A86840F46040A860A968A06821F098
:100A7000F0010143A9602178C80729D560680128E1
:100A800002D129688A0305E0022818BF032803D190
:100A900029688A0103D423E029688A0720D5A96838
:100AA000890840EA8100A860FFF702FD8046A86837
:100AB000616800F00C00B0EB810F09D0FFF7F8FC83
:100AC000A0EB080041F289318842F0D303202BE0EB
:100AD000306800F00700874204D200F027F801D008
:100AE000012021E02078410705D5AA68E06822F4BA
:100AF000E0520243AA602178080706D5A968206958
:100B000021F4604141EAC001A96000F0D5F9AA686A
:100B10001449154BC2F30312895CC840186013488E
:100B2000006800F07FF80020BDE8F0813770316880
:100B300001F00701B94270470B480D4A006813687D
:100B40000C49C3F3822206E00748094A006813688B
:100B50000849C3F34232895CC8407047003C0240F8
:100B600000380240880F00080C0000200800002018
:100B700008380240301000080901020002D424485D
:100B800081547047234B02F00F021A4402F8041CF0
:100B90007047214B19684FF6FF020002114000F424
:100BA000E06008431D4908431860704770B51A4B50
:100BB0001C68C4F302230124C3F10705052D2EBFD1
:100BC0000F2504FA05F56D1E1E1D072E34BF0023E8
:100BD000DB1E2940994004FA03F3BDE870405B1E18
:100BE0001A401143C8E710B5401EB0F1807F01D311
:100BF000012010BD0A4C60600F214FF0FF30FFF75D
:100C0000BBFF0021A16007202060002010BD000074
:100C100000E400E018ED00E00CED00E00000FA0553
:100C200010E000E038B50D4D0D4B2A7804464FF426
:100C30007A711868B1FBF2F2B0FBF2F0FFF7D3FF64
:100C400050B9102C08D2002221464FF0FF30FFF798
:100C5000ADFFAC60002032BD012032BD000000209D
:100C60000C00002082B0002000900022244841683F
:100C700041F480414160416801F480410091009954
:100C80000092036843F080530360006800F08050D6
:100C900000900098072002B0FFF77BBF10B586B028
:100CA00004461422002101A8FFF716FD216815480B
:100CB000814222D1002214480092016941F400319E
:100CC0000161016901F400310091009900920C2149
:100CD000036843F0010303600222006800F0010092
:100CE000009000980948019102920021039104911B
:100CF0000721059101A9FFF7F9FC06B010BD00001E
:100D000040380240004400403038024000000240B9
:100D100062F30F2262F31F42401810F0030308D061
:100D2000C91A1FD3DB0748BF00F8012D28BF20F8E0
:100D3000022D130030B414461546103928BF20E99F
:100D40003C00FAD8490728BF20E90C0048BF40F80A
:100D5000042D890028BF20F8022D48BF00F8012D7E
:100D600030BC7047C91818BF00F8012DCB0728BF49
:100D700000F8012D704730B5016884684218416859
:100D800002EB5103C90703D54C4401E0491C08D1CB
:100D90009A4218BF12F9011B01D10C3030BD12F874
:100DA000015B002904F8015BF0D4491EF7D5EFE799
:100DB000D3BBD9B1B2F5803F5BD2022A1ED98C4693
:100DC000B1FBF2F102FB11C31B0443EA1043B3FB76
:100DD000F2FC02FB1C3380B240EA0343B3FBF2F0A7
:100DE00002FB103240EA0C4000237047022A05D96A
:100DF0008446B0FBF2F002FB10C270474AB105D145
:100E000000F0010249085FEA300070470022002329
:100E1000704700F081B80B000200002100207047ED
:100E2000F7D3002200237047904271EB030CF2D3FA
:100E300070B5B1FA81F4B3FA83F52C1BA340C4F169
:100E4000200532FA05F63343A2405FF00046E64043
:100E500002E05B085FEA3202841A71EB030524BFEB
:100E6000204629467641F4D302000B0030000021D1
:100E700070BD70B5B1FA81F4B2FA82F5C4F1200404
:100E80006419B4F12006DAD3B2405FF00044F440B4
:100E9000002502E052085FEA3303C61A71EB020E26
:100EA00024BF3046714664416D41F3D302000B000C
:100EB0002000290070BD000030B5144C606800F0BF
:100EC0000C00042802D0082802D01DE0104830BDD4
:100ED000226820680023410202F03F0204D5256801
:100EE0000B49C5F3881003E020680A49C0F3881055
:100EF000A1FB0001FFF75CFF2168C1F30141491C20
:100F00004900B0FBF1F030BD024830BD043802406A
:100F100000127A000024F4007047000010B5074961
:100F200079441831064C7C44163404E00A68081DE4
:100F3000114488470146A142F8D110BD2C000000A1
:100F4000380000004EF68851CEF20001086840F4E7
:100F500070000860BFF34F8FBFF36F8F4FF00070CA
:100F6000E1EE100A704700000FFEFFFFAC01000029
:100F70001A000000000000200248016841F47001DE
:100F80000160704788ED00E00000000000000000F4
:100F9000010203040607080900F00DF8002801D03B
:100FA000FFF7BCFFAFF300800020AFF30080FFF736
:100FB00085FA00F002F80120704700F001B8000047
:100FC0000746384600F002F8FBE7000080B5AFF3B3
:100FD0000080024A11001820ABBEFBE72600020089
:100FE0000548014603B4684680F30988AFF30080E2
:100FF000FFF7A8FFFFF7D0FFA5EDF5FEFEE7FEE740
:10100000FEE7FEE7FEE770477047704700F000B864
:101010000248416802788A18426070470000002048
:101020000148804701480047790F0008E10F000898
:101030000000000001020304FFF7FEBFFFF7FEBF40
:10104000FFF7FEBFFFF7FEBFFFF7FEBFFFF7FEBFD4
:10105000FFF7FEBFFFF7FEBFFFF7FEBFFFF7FEBFC4
:10106000FFF7FEBFFFF7FEBFFFF7FEBFFFF7FEBFB4
:10107000FFF7FEBFFFF7FEBFFFF7FEBFFFF7FEBFA4
:10108000FFF7FEBFFFF7FEBFFFF7FEBFFFF7FEBF94
:10109000FFF7FEBFFFF7FEBFFFF7FEBFFFF7FEBF84
:1010A000FFF7FEBFFFF7FEBFFFF7FEBFFFF7FEBF74
:1010B000FFF7FEBFFFF7FEBFFFF7FEBFFFF7FEBF64
:1010C000FFF7FEBFFFF7FEBFFFF7FEBFFFF7FEBF54
:1010D000FFF7FEBFFFF7FEBFFFF7FEBFFFF7FEBF44
:1010E000FFF7FEBFFFF7FEBFFFF7FEBFFFF7FEBF34
:1010F000FFF7FEBFFFF7FEBFFFF7FEBFFFF7FEBF24
:10110000FFF7FEBFFFF7FEBFFFF7FEBFFFF7FEBF13
:10111000FFF7FEBFFFF7FEBF0001F9000010FC0063
:051120000124F4BB00F6
:0400000508000FE1FF
:00000001FF
