:020000040800F2
:10000000A804002029150008051500080715000898
:10001000091500080B1500080D1500080000000068
:100020000000000000000000000000000F150008A4
:100030001115000800000000131500081515000830
:100040004115000845150008491500084D15000820
:100050005115000855150008591500085D150008D0
:100060006115000865150008691500086D15000880
:100070007115000875150008791500087D15000830
:10008000811500088515000889150008000000008A
:100090000000000000000000000000008D150008B6
:1000A0009115000895150008991500089D15000880
:1000B000A1150008A5150008A9150008AD15000830
:1000C000B1150008B5150008B9150008BD150008E0
:1000D000C1150008C5150008C9150008000000007A
:1000E000CD150008D1150008D51500080000000046
:1000F000000000000000000000000000D91500080A
:1001000000000000DD150008E1150008E5150008F5
:1001100000000000000000000000000000000000DF
:10012000E9150008ED150008F1150008F51500089F
:10013000F9150008000000000000000000000000A9
:10014000000000000000000000000000FD15000895
:100150000116000805160008091600080D1600080B
:10016000111600081516000800000000000000002D
:10017000000000000000000000000000000000007F
:100180000000000019160008000000000000000038
:100190001D16000870B5044600250CB9012070BD7D
:1001A00004F13006306920B9204600F063FA756129
:1001B00035733069C10600F192803069DFF8601450
:1001C00020F4885040F002003061086820F440308C
:1001D00008600A68606802430A602068416821F488
:1001E0008071416020684168226941EA02214160D2
:1001F0002068416821F04071416021684A68A06828
:1002000002434A602068816821F4006181602168AE
:100210008A68E06802438A602068A16ADFF80424E3
:100220009142816821F0706181600CD021688A68F8
:10023000A06A02438A6000F05BF821688A68E06A7D
:1002400002438A6001E000F053F82068816821F0E1
:10025000020100F049F8227E41EA4201816094F8EF
:1002600020002168002848680FD040F400604860F2
:100270002068416821F46041416020684168626AF9
:10028000521E41EA4231416002E020F400604860C1
:100290002068C16A21F47001C1622068C16AE26904
:1002A000521E41EA0251C1622068816821F4007146
:1002B00000F01AF8327841EA422100F015F821F4F2
:1002C000806100F011F8626941EA82218160756104
:1002D000316921F0020141F00101316100E00125A5
:1002E00000203073284670BD8160206881687047A7
:1002F0002068816821F040518160704738B500F076
:10030000C5F801D1022032BD00F0CDF822D500F0B1
:10031000A5F846BF906820F00600002000F08CF899
:10032000DFF8FC120B6813F01F0F06D1816811F083
:10033000405F11D100F0B2F80EE0DFF8EC12884215
:1003400002BFDFF8E802026812F0405F04D100F05B
:1003500098F801E000F079F8002032BD00F13C018E
:100360000A78012A01D10220704701220A7002682E
:1003700093685B085B00936000688268D00705D4CF
:100380004A6822F4885242F001024A600020087054
:100390007047F8B50C46064606F13C0530688168A2
:1003A0004A050AD58068C10507D5686840F0200075
:1003B0006860002129700120F2BD00F0BDF90746F8
:1003C000306801688A0714D414F1010FF8D024B101
:1003D00000F0B2F9C01B8442F2D2306801688A078B
:1003E000EED4686840F004006860002129700320A2
:1003F000F2BD6FF012020260686840F4007068603D
:100400003168886810F0405F04BF307E002811D149
:10041000C86A10F4700F02D0886841050AD4686871
:1004200020F4807068606868C10403D4686840F094
:10043000010068600020F2BD9060002313706FF02F
:1004400022000A68106008687047506840F0100089
:100450005060906840F00100906070475568DFF888
:10046000D001054045F4807555605868430505D5B1
:10047000506820F4005040F4805050605068C3042D
:100480007047016841F080410160704701460020DB
:1004900001F13C0200901378012B7047816841F014
:1004A0008041816070470120107008688368DC0714
:1004B00014D48368DFF87C4143F001038360DFF8E4
:1004C00078010368B3FBF4F404EB4404009402E005
:1004D0000098401E009000980028F9D10B68986899
:1004E000C40770470068C06C704778B502460020AA
:1004F000009092F83C30012B01D1022072BD012006
:1005000082F83C0007240B6810680A2B12D30A3BC0
:10051000C56803EB43039C4025EA0404C460C36838
:100520000D688C68A5F10A0606EB4606B440234325
:10053000C3600FE0056903EB430304FA03F325EA04
:100540000303036103690D688C6805EB4505AC4046
:10055000234303611F244B68072B0CD25B1E456BA2
:1005600000F050F84463436B4D680C886E1E00F039
:1005700044F843631BE00D2B0CD2DB1F056B00F02E
:1005800041F80463036B4D680C88EE1F00F035F8EA
:1005900003630CE00D3BC56A00F034F8C462C36A23
:1005A0004D680C88A5F10D0600F027F8C3621E4BBC
:1005B00098421DD10C681A48122C03D1036843F4E9
:1005C000800303600B68102B18BF112B10D1036838
:1005D00043F4000303600868102809D11649154C3C
:1005E0000B68B3FBF4F40A204443009400F010F8C5
:1005F000002182F83C10002072BD06EB8606B44054
:100600002343704703EB83039C4025EA04047047AF
:1006100002E00098401E009000980028F9D1704731
:10062000042301400100000F002001400820014088
:10063000FEF9FFFF40420F00A000002082B0002022
:10064000009000223748416841F480414160416890
:1006500001F48041009100990092036843F08053B7
:100660000360006800F0805000900098072002B0FE
:1006700000F075B810B586B000F043F821682A483C
:10068000814217D1002229480092416941F48071CA
:100690004161416901F48071009100990092022149
:1006A000036843F001030360032200F030F801A95E
:1006B00000F09EF806B010BD10B586B000F021F82D
:1006C00021681B4881421AD1002218480092016912
:1006D00041F400310161016901F400310091009998
:1006E00000920C21036843F001030360022200F032
:1006F0000EF804910721059101A900F079F806B0E0
:1007000010BD04461422002101A800F057B900686A
:1007100000F001000090009806480191029200212B
:1007200003917047403802400020014030380240B9
:10073000004400400000024001484068704700BF8C
:10074000940000200901020002D42448815470471B
:10075000234B02F00F021A4402F8041C7047214B8D
:1007600019684FF6FF020002114000F4E0600843F0
:100770001D4908431860704770B51A4B1C68C4F3D4
:1007800002230124C3F10705052D2EBF0F2504FA0E
:1007900005F56D1E1E1D072E34BF0023DB1E2940EC
:1007A000994004FA03F3BDE870405B1E1A40114300
:1007B000C8E710B5401EB0F1807F01D3012010BD05
:1007C0000A4C60600F214FF0FF30FFF7BBFF0021A4
:1007D000A16007202060002010BD000000E400E0C0
:1007E00018ED00E00CED00E00000FA0510E000E07C
:1007F0002DE9F84F0D4600266849694A0F23044643
:1008000001202F68B04000EA0708804540F0BB8017
:100810004FEA460C032707FA0CF76FEA070E6F68DA
:1008200007F00309B9F1010F1CBF07F00307022FFE
:1008300012D1A768D5F80C900EEA070709FA0CF94F
:1008400049EA0707A760676827EA00006F68C7F3EF
:100850000017B74038436060B0002F7907F00307F6
:10086000032F21D0E768D5F808900EEA070709FAA8
:100870000CF949EA0707E7602F7907F00307022F11
:1008800012D1F70804EB870700F01C09D7F820A065
:1008900003FA09FB2AEA0B0AD5F810B00BFA09F99A
:1008A00049EA0A09C7F8209027680EEA070E2F794F
:1008B00007F0030707FA0CF747EA0E0727606F688F
:1008C00017F4403F5FD0002700974FEA960C176857
:1008D00047F48047176000F00C00176807F4804762
:1008E000009703FA00FE009F2E4F57F82C7027EA5E
:1008F0000E0E2D4FBC4208BF002713D02B4FBC4219
:1009000008BF01270ED02A4FBC4208BF022709D0DA
:10091000284FBC4208BF032704D0274FBC420CBF5E
:100920000427072707FA00F01E4F40EA0E0047F899
:100930002C006FEA08000F6800EA070C6F68FF03DD
:1009400048BF48EA0C0CC1F800C04F6800EA070C29
:100950006F68BF0348BF48EA0C0CC1F804C08F6839
:1009600000EA070C6F68FF0248BF48EA0C0CC1F8A8
:1009700008C0CF6800EA070C6868800248BF48EAF0
:100980000C0CC1F80CC0761C0F2E7FF639AFBDE8F9
:10099000F18F02B90904816170470000003C0140F9
:1009A0004438024008380140000002400004024080
:1009B00000080240000C02400010024010B504463E
:1009C00010460A460146204600F002F8204610BDB7
:1009D00062F30F2262F31F42401810F0030308D0A5
:1009E000C91A1FD3DB0748BF00F8012D28BF20F824
:1009F000022D130030B414461546103928BF20E9E3
:100A00003C00FAD8490728BF20E90C0048BF40F84D
:100A1000042D890028BF20F8022D48BF00F8012DC1
:100A200030BC7047C91818BF00F8012DCB0728BF8C
:100A300000F8012D704730B501688468421841689C
:100A400002EB5103C90703D54C4401E0491C08D10E
:100A50009A4218BF12F9011B01D10C3030BD12F8B7
:100A6000015B002904F8015BF0D4491EF7D5EFE7DC
:100A70002DE9F843040016D02078DFF80063C107A1
:100A800013D5B06800F00C00042807D0B06800F05F
:100A90000C0008283DD1706841023AD530688103C6
:100AA00003D56068002800F063812078B44F810787
:100AB00019D5B06810F00C0F07D0B06800F00C002A
:100AC00008285BD17068410258D43068810703D58B
:100AD000E068012840F04C813168206921F0F8017C
:100AE00041EAC00131602178080779D56069A549DC
:100AF000002868D001220A60FFF71EFE0546706FCD
:100B000081076DD4FFF718FE401B0228F7D9032098
:100B100031E16068B0F5803F04D1306840F4803046
:100B2000306011E0B0F5A02F306806D140F480208D
:100B30003060316841F4803105E020F4803030606D
:100B4000316821F480213160606858B1FFF7F4FD0D
:100B5000054630688103A8D4FFF7EEFD401B6528E9
:100B6000F7D3D4E7FFF7E8FD0546306881039CD54D
:100B7000FFF7E2FD401B6528F7D3C8E7E068A8B19E
:100B800001213960FFF7D8FD05463068810705D49B
:100B9000FFF7D2FD401B0228F7D9B8E7306821697A
:100BA00020F0F80040EAC10030609CE73860FFF7B1
:100BB000C3FD05463168880795D5FFF7BDFD401B8D
:100BC0000228F7D9A3E70860FFF7B6FD0546706F66
:100BD000810705D5FFF7B0FD401B0228F7D996E73E
:100BE000207841075FD5306C0025C1000AD40095FC
:100BF0000125316C41F080513164306C00F080503F
:100C000000900098DFF88081D8F80000C10513D467
:100C1000D8F8000040F48070C8F80000FFF78CFDA1
:100C20008146D8F80000C10506D4FFF785FDA0EB8A
:100C300009000228F5D96AE7A068012805D005282F
:100C4000306F06D140F004003067306F40F0010093
:100C500005E0400840003067306F20F00400306746
:100C600041F28938A06860B1FFF766FD8146306FB8
:100C7000810713D4FFF760FDA0EB09004045F6D3D0
:100C800045E7FFF759FD8146306F810706D5FFF72D
:100C900053FDA0EB09004045F6D338E71DB1306C99
:100CA00020F080503064A069002863D0B16801F062
:100CB0000C0108293AD002282AD100203866FFF713
:100CC0003BFD05463068810105D5FFF735FD401B2A
:100CD0000228F7D91BE7E069216A626A0843A16A22
:100CE000490840EA8210491E40EA0140E16A40EAB0
:100CF0000160706001203866FFF71EFD0446306811
:100D0000810137D4FFF718FD001B0228F7D9FEE652
:100D100000203866FFF710FD04463068810129D5B0
:100D2000FFF70AFD001B0228F7D9F0E601281FD0C3
:100D30007068E26900F48001914202BF00F03F0157
:100D4000226A914201BF47F6C0710140626AB1EB6D
:100D5000821F0DD1A26A520800F44031521EB1EB3D
:100D6000024F02BF00F07060E16AB0EB016F01D08A
:100D7000012000E00020BDE8F28300BF00380240FF
:100D800000004742800E47420070004038B586B0F0
:100D900000F012F900F0A7F800F006F9002000902A
:100DA000784C7948016841F004010160026802F062
:100DB00004020092002200990092036843F080032D
:100DC0000360016801F080010091009900920368BE
:100DD00043F001030360016801F0010100910099F3
:100DE00000922021036843F002030360006800F0D2
:100DF0000200009000982046FFF7CBFD4FF4005012
:100E00004FF40411019002910022039201A95F485E
:100E1000FFF7EEFC202101910122002103910491B2
:100E2000029201A92046FFF7E3FC594C594804F10E
:100E300030054FF4E131286269620020A862E8625F
:100E400028630C21A863E863696304F1500000F093
:100E5000CDF808B100F0ADF8102200216846FFF788
:100E6000ADFD4D4820604FF480314C48A062002217
:100E70000120E06160616160A2602261227684F8F5
:100E80002020E262E2602A702046FFF783F908B171
:100E900000F08FF801200090019000220292694634
:100EA0002046FFF722FB50B100F083F807E0B4F8CA
:100EB0004C3081B2994288BF1946A9830EE0204682
:100EC000FFF71CFA0A212046FFF763FA2046FFF7D6
:100ED00009FB698B82B29142E9D26883288320465C
:100EE000FFF73CFAEBE780B592B03022002106A86C
:100EF000FFF764FD00F058F80020009028480168D2
:100F000041F0805101600021006800F080500090A5
:100F10000098244800910221026822F4404242F4E1
:100F2000004202600122006800F4404000900098F6
:100F30000691099210210A91022200210C920D9132
:100F400010224FF4A8710E920F91042207211092E3
:100F5000119106A8FFF78CFD08B172B6FEE70221D9
:100F600002910F204FF480510190002204910392CE
:100F70000592022101A800F0D9F808B172B6FEE787
:100F800013B000BD000002403038024000080240AB
:100F90000000002000440040002001400100000F3C
:100FA00040380240007000401422002101A8FFF7E1
:100FB00005BD72B6FEE7000080B50B48016841F43C
:100FC00000710160026842F480620260016841F4CD
:100FD000807101600320FFF7C2FB002000F04CF994
:100FE000FFF72CFB002002BD003C024038B5040096
:100FF00001D1012032BD00F017F808B900F018F84F
:1010000000F01BF800F023F8FFE7416100F001F861
:1010100032BD2068C16841F40051C16000206860A1
:1010200020216970A970704704F13C056878704709
:10103000002129702046FFF73FBB242068702068FC
:10104000C16821F40051C160204600F00AB8206850
:10105000016921F4904101612068416921F02A0170
:10106000704770B5044622681169E06821F4405168
:1010700001431161D3682748A168034020690B43ED
:1010800061690343E0690B430343D3605169A0697D
:1010900021F44071014351611F498A421CBF1F481E
:1010A000824202D100F0D0F801E000F0C5F8626899
:1010B0002568E4691921B4F5004FA1FB00016FF028
:1010C000630612D1D30F520000F0F6F800F028F8B2
:1010D000F60032366420B6FBF0F0420002F4F872FB
:1010E00002EB011200F0070010E0930F920000F0F5
:1010F000E3F800F015F8360132366420B6FBF0F064
:1011000000F0F00202EB011200F00F008018A8605E
:1011100070BD0000F369FFFF0010014000140140A2
:101120006421B0FBF1F106FB010670472DE9F041A7
:1011300004000F4654D0494E306800F00700B84212
:1011400002D200F073F84BD12068454D810712D5CB
:10115000400703D5A96841F4E051A9602078010750
:1011600003D5A86840F46040A860A968A06821F091
:10117000F0010143A9602178C80729D560680128DA
:1011800002D129688A0305E0022818BF032803D189
:1011900029688A0103D423E029688A0720D5A96831
:1011A000890840EA8100A860FFF7C6FA8046A8686F
:1011B000616800F00C00B0EB810F09D0FFF7BCFABA
:1011C000A0EB080041F289318842F0D303202BE0E4
:1011D000306800F00700874204D200F027F801D001
:1011E000012021E02078410705D5AA68E06822F4B3
:1011F000E0520243AA602178080706D5A968206951
:1012000021F4604141EAC001A96000F0D9F8AA6860
:101210001449154BC2F30312895CC8401860134887
:10122000006800F029F80020BDE8F08137703168CF
:1012300001F00701B94270470B480D4A0068136876
:101240000C49C3F3822206E00748094A0068136884
:101250000849C3F34232895CC8407047003C0240F1
:101260000038024090140008A00000209C000020DC
:10127000083802403815000838B50D4D0D4B2A7856
:1012800004464FF47A711868B1FBF2F2B0FBF2F049
:10129000FFF78FFA50B9102C08D2002221464FF0E8
:1012A000FF30FFF769FAAC60002032BD012032BD8B
:1012B00094000020A0000020D3BBD9B1B2F5803F3C
:1012C0005BD2022A1ED98C46B1FBF2F102FB11C39C
:1012D0001B0443EA1043B3FBF2FC02FB1C3380B255
:1012E00040EA0343B3FBF2F002FB103240EA0C4049
:1012F00000237047022A05D98446B0FBF2F002FBB6
:1013000010C270474AB105D100F0010249085FEAF6
:101310003000704700220023704700F081B80B00B6
:101320000200002100207047F7D3002200237047FD
:10133000904271EB030CF2D370B5B1FA81F4B3FAB9
:1013400083F52C1BA340C4F1200532FA05F6334384
:10135000A2405FF00046E64002E05B085FEA32022E
:10136000841A71EB030524BF204629467641F4D345
:1013700002000B003000002170BD70B5B1FA81F49D
:10138000B2FA82F5C4F120046419B4F12006DAD36C
:10139000B2405FF00044F440002502E052085FEAEA
:1013A0003303C61A71EB020E24BF30467146644106
:1013B0006D41F3D302000B002000290070BD000036
:1013C00030B5144C606800F00C00042802D00828E6
:1013D00002D01DE0104830BD226820680023410281
:1013E00002F03F0204D525680B49C5F3881003E0DD
:1013F00020680A49C0F38810A1FB0001FFF75CFFD9
:101400002168C1F30141491C4900B0FBF1F030BD36
:10141000024830BD0438024000127A000024F40073
:101420007047000010B5074979441831064C7C44D8
:10143000163404E00A68081D114488470146A14299
:10144000F8D110BD2C000000380000004EF6885185
:10145000CEF20001086840F470000860BFF34F8FBF
:10146000BFF36F8F4FF00070E1EE100A704700007D
:10147000C7F5FFFFAC0100002600000000000020BF
:101480000248016841F470010160704788ED00E096
:101490000000000000000000010203040607080924
:1014A00000F00DF8002801D0FFF7BCFFAFF300807B
:1014B0000020AFF30080FFF769FC00F002F8012084
:1014C000704700F001B800000746384600F002F807
:1014D000FBE7000080B5AFF30080024A110018203E
:1014E000ABBEFBE7260002000548014603B4684690
:1014F00080F30988AFF30080FFF7A8FFFFF7D0FF64
:10150000A5EDF5FEFEE7FEE7FEE7FEE7FEE7704726
:101510007047704700F000B80248416802788A18A6
:10152000426070479400002001488047014800470E
:1015300081140008E91400080000000001020304FF
:10154000FFF7FEBFFFF7FEBFFFF7FEBFFFF7FEBFCF
:10155000FFF7FEBFFFF7FEBFFFF7FEBFFFF7FEBFBF
:10156000FFF7FEBFFFF7FEBFFFF7FEBFFFF7FEBFAF
:10157000FFF7FEBFFFF7FEBFFFF7FEBFFFF7FEBF9F
:10158000FFF7FEBFFFF7FEBFFFF7FEBFFFF7FEBF8F
:10159000FFF7FEBFFFF7FEBFFFF7FEBFFFF7FEBF7F
:1015A000FFF7FEBFFFF7FEBFFFF7FEBFFFF7FEBF6F
:1015B000FFF7FEBFFFF7FEBFFFF7FEBFFFF7FEBF5F
:1015C000FFF7FEBFFFF7FEBFFFF7FEBFFFF7FEBF4F
:1015D000FFF7FEBFFFF7FEBFFFF7FEBFFFF7FEBF3F
:1015E000FFF7FEBFFFF7FEBFFFF7FEBFFFF7FEBF2F
:1015F000FFF7FEBFFFF7FEBFFFF7FEBFFFF7FEBF1F
:10160000FFF7FEBFFFF7FEBFFFF7FEBFFFF7FEBF0E
:10161000FFF7FEBFFFF7FEBFFFF7FEBFFFF7FEBFFE
:10162000B40001FF0FBA000001F9000010FC000235
:0316300024F4009F
:04000005080014E9F2
:00000001FF
