:020000040800F2
:10000000E8040020B51D0008011D0008031D0008BC
:10001000051D0008071D0008091D0008000000005C
:100020000000000000000000000000000B1D0008A0
:100030000D1D0008000000000F1D0008111D000824
:10004000DD1D0008E11D0008E51D0008E91D000890
:10005000ED1D0008F11D0008F51D0008F91D000840
:10006000FD1D0008011E0008051E0008091E0008ED
:100070000D1E0008111E0008151E0008191E00089C
:100080001D1E0008211E0008151D000800000000AC
:10009000000000000000000000000000251E000815
:1000A000291E00082D1E0008311E0008351E0008FC
:1000B000391E00083D1E0008411E0008451E0008AC
:1000C000491E00084D1E0008511E0008551E00085C
:1000D000591E00085D1E0008611E00080000000097
:1000E000651E0008691E00086D1E00080000000063
:1000F000000000000000000000000000711E000869
:1001000000000000751E0008791E00087D1E000812
:1001100000000000000000000000000000000000DF
:10012000811E0008851E0008891E00088D1E00081B
:10013000911E000800000000000000000000000008
:10014000000000000000000000000000951E0008F4
:10015000991E00089D1E0008A11E0008A51E00088B
:10016000A91E0008AD1E00080000000000000000ED
:10017000000000000000000000000000000000007F
:1001800000000000B11E0008000000000000000098
:10019000B51E000870B5044600250CB9012070BDDD
:1001A00004F13006306920B9204600F035FB756156
:1001B00035733069C10600F192803069DFF80016AE
:1001C00020F4885040F002003061086820F440308C
:1001D00008600A68606802430A602068416821F488
:1001E0008071416020684168226941EA02214160D2
:1001F0002068416821F04071416021684A68A06828
:1002000002434A602068816821F4006181602168AE
:100210008A68E06802438A602068A16ADFF8A42542
:100220009142816821F0706181600CD021688A68F8
:10023000A06A02438A6000F05BF821688A68E06A7D
:1002400002438A6001E000F053F82068816821F0E1
:10025000020100F049F8227E41EA4201816094F8EF
:1002600020002168002848680FD040F400604860F2
:100270002068416821F46041416020684168626AF9
:10028000521E41EA4231416002E020F400604860C1
:100290002068C16A21F47001C1622068C16AE26904
:1002A000521E41EA0251C1622068816821F4007146
:1002B00000F01AF8327841EA422100F015F821F4F2
:1002C000806100F011F8626941EA82218160756104
:1002D000316921F0020141F00101316100E00125A5
:1002E00000203073284670BD8160206881687047A7
:1002F0002068816821F040518160704738B500F076
:10030000F9F801D1022032BD00F001F922D500F048
:10031000D9F846BF906820F00600002000F0C0F831
:10032000DFF89C140B6813F01F0F06D1816811F0E1
:10033000405F11D100F0E6F80EE0DFF88C1488423F
:1003400002BFDFF88804026812F0405F04D100F0B9
:10035000CCF801E000F0ADF8002032BD00F13C0126
:100360000A78012A01D10220704701220A7002682E
:1003700093685B085B00936000688268D00705D4CF
:100380004A6822F4885242F001024A600020087054
:100390007047F8B50C46064606F13C0530688168A2
:1003A0004A050AD58068C10507D5686840F0200075
:1003B0006860002129700120F2BD00F0CBFA0746E9
:1003C000306801688A0714D414F1010FF8D024B101
:1003D00000F0C0FAC01B8442F2D2306801688A077C
:1003E000EED4686840F004006860002129700320A2
:1003F000F2BD6FF012020260686840F4007068603D
:100400003168886810F0405F04BF307E002811D149
:10041000C86A10F4700F02D0886841050AD4686871
:1004200020F4807068606868C10403D4686840F094
:10043000010068600020F2BD38B500F05BF801D122
:10044000022032BD00F063F826D500F03BF846BF2D
:10045000906820F00600002000F022F8436843F086
:10046000806343F020034360086800F006F906D17A
:10047000816811F0405F11D100F044F80EE0DFF820
:100480004813884202BFDFF84403026812F0405F5D
:1004900004D100F02AF801E000F00BF8002032BD92
:1004A0009060002313706FF022000A6810600868E3
:1004B0007047506840F010005060906840F00100B4
:1004C000906070475568DFF80803054045F4807573
:1004D00055605868430505D5506820F4005040F435
:1004E000805050605068C3047047016841F08041FB
:1004F000016070470146002001F13C020090137832
:10050000012B7047816841F0804181607047012074
:10051000107008688368DC0714D48368DFF8B4427D
:1005200043F001038360DFF8B0020368B3FBF4F427
:1005300004EB4404009402E00098401E00900098F0
:100540000028F9D10B689868C407704738B504468D
:100550002068016802468907506829D5800627D59A
:10056000216CC80603D4216C41F4007121649168A8
:1005700011F0405F04BF207E002812D1D06A10F431
:10058000700F02D0916848050BD4506820F020000D
:100590005060206C20F480702064206CC10400F056
:1005A00066F8204600F0DCF921686FF01200086060
:1005B000226811685068490730D500062ED5216C95
:1005C000C80603D4216C41F400512164916811F4F0
:1005D000401F1CD1916B11F4401F02D09168480557
:1005E00015D45068410512D4916811F0405F04BFE2
:1005F000207E00280BD1506820F080005060206CD5
:1006000020F480502064206CC10500F030F82046B2
:1006100000F0F9FA21686FF00C00086020680268A9
:100620004168D2070FD549060DD50068C1070AD524
:10063000206C40F480302064204600F0E5FA216808
:100640006FF00100086020680268416892060DD5CD
:1006500049010BD5626C42F0020262646FF0200522
:100660000560204600F0D1FA2068056031BD03D452
:10067000206C40F001002064704751490A6812F074
:100680001F0F70470068C06C704778B502460020A5
:10069000009092F83C30012B01D1022072BD012064
:1006A00082F83C0007240B6810680A2B12D30A3B1F
:1006B000C56803EB43039C4025EA0404C460C36897
:1006C0000D688C68A5F10A0606EB4606B440234384
:1006D000C3600FE0056903EB430304FA03F325EA63
:1006E0000303036103690D688C6805EB4505AC40A5
:1006F000234303611F244B68072B0CD25B1E456B01
:1007000000F050F84463436B4D680C886E1E00F097
:1007100044F843631BE00D2B0CD2DB1F056B00F08C
:1007200041F80463036B4D680C88EE1F00F035F848
:1007300003630CE00D3BC56A00F034F8C462C36A81
:100740004D680C88A5F10D0600F027F8C3621E4B1A
:1007500098421DD10C681A48122C03D1036843F447
:10076000800303600B68102B18BF112B10D1036896
:1007700043F4000303600868102809D11649154C9A
:100780000B68B3FBF4F40A204443009400F010F823
:10079000002182F83C10002072BD06EB8606B440B2
:1007A0002343704703EB83039C4025EA040470470E
:1007B00002E00098401E009000980028F9D1704790
:1007C000042301400100000F0020014008200140E7
:1007D000FEF9FFFF40420F000C000020006C704744
:1007E00082B00020009000225548416841F48041C9
:1007F0004160416801F480410091009900920368D2
:1008000043F080530360006800F08050009000982F
:10081000072002B000F007BA10B586B000F05CF80F
:1008200021684848814226D1002247480092416908
:1008300041F480714161416901F480710091009936
:1008400000920121036843F0010303600322006862
:1008500000F00100009000983C48019102920021B4
:10086000039100F036F800220021122000F0E8F990
:10087000122000F002FA06B010BD81B00068B0F19D
:10088000804F0BD100212E480091026842F00102F6
:100890000260006800F001000090009801B070470D
:1008A00010B586B000F018F82168B1F1804F0DD175
:1008B0000020009002222448016841F001010160FB
:1008C000202100F031F8012100F002F806B010BD3F
:1008D000059101A900F0FCB904461422002101A8E9
:1008E00000F0D8BA10B586B0FFF7F6FF21681848B7
:1008F000814217D1002214480092016941F400316D
:100900000161016901F400310091009900920C210C
:10091000036843F001030360022200F005F8072199
:10092000FFF7D6FF06B010BD006800F00100009090
:1009300000980648019102920021039104917047AA
:1009400040380240002001403038024000000240A0
:100950000044004001484068704700BF000000208C
:1009600080B5FFF78FFE9A49088001BD30B58DB084
:1009700000F09AFA00F0DCF800F03EF90020009058
:10098000944C9548016841F00401016004F1300580
:10099000026802F0040200920022009900920368AB
:1009A00043F080030360016801F080010091009929
:1009B0000092036843F001030360016801F0010144
:1009C0000091009900924FF40051036843F0020334
:1009D00003604FF40412006800F0020000900098D9
:1009E0007E48019102920021039101A900F070F963
:1009F0007B48A8614FF4E131E96100202862686218
:100A0000A8620C2128636863E96204F1480000F0E1
:100A100065FA08B100F0F5F810220021684600F0F0
:100A200039FA704820604FF480316F48A06200228C
:100A30000120E0616160A2602261227684F82020BA
:100A4000E262E2602A7062612046FFF7A3FB08B110
:100A500000F0D7F800200121009001910290694632
:100A60002046FFF712FE08B100F0CBF8102200215B
:100A700009A800F00FFA08220021684600F00AFADF
:100A80001C22002102A800F005FA002129664FF07F
:100A900080405649E865A966002080216866E866BE
:100AA000696704F18C05284600F0B8FA08B100F037
:100AB000A8F84FF48050099009A9284600F0B5FB2A
:100AC00008B100F09EF8284600F0D3FA08B100F013
:100AD00098F80021009101912846694600F042FDF6
:100AE00008B100F08EF86021029100220392049276
:100AF000069202A9284600F036FB08B100F081F802
:100B00002846FFF7CDFE0021284600F0BFFA204618
:100B1000FFF792FC2046FFF7F1FB0A212046FFF782
:100B200038FC2046FFF75AFE2046FFF717FCF1E796
:100B300080B592B03022002106A800F0ABF900F099
:100B40005BF8002000902A48016841F08051016064
:100B50000021006800F08050009000982548009126
:100B60000221026822F4404242F400420260012263
:100B7000006800F44040009000980691099210210E
:100B80000A91022200210C920D9110224FF4A871BB
:100B90000E920F91042207211092119106A800F0E5
:100BA0001DFD08B172B6FEE7022102910F204FF43D
:100BB000805101900022049103920592022101A824
:100BC00000F09AFE08B172B6FEE713B000BD000057
:100BD000E4000020100000203038024000080240ED
:100BE00000440040002001400100000F3F420F0080
:100BF00040380240007000401422002101A800F09B
:100C000049B972B6FEE770477047704709010200A4
:100C100002D4294881547047284B02F00F021A442D
:100C200002F8041C7047264B19684FF6FF020002B9
:100C3000114000F4E06008432249084318607047FF
:100C400070B51F4B1C68C4F302230124C3F10705D0
:100C5000052D2EBF0F2504FA05F56D1E1E1D072E4E
:100C600034BF0023DB1E2940994004FA03F3BDE89A
:100C700070405B1E1A401143C8E7010007D40122EF
:100C800000F01F01104B8A40400943F820207047B4
:100C900010B5401EB0F1807F01D3012010BD0B4C78
:100CA00060600F214FF0FF30FFF7B0FF0021A1601F
:100CB00007202060002010BD00E400E018ED00E0F7
:100CC0000CED00E00000FA0500E100E010E000E0BB
:100CD0002DE9F84F0D4600266649674A0F23044662
:100CE00001202F68B04000EA0708804540F0BB8033
:100CF0004FEA460C032707FA0CF76FEA070E6F68F6
:100D000007F00309B9F1010F1CBF07F00307022F19
:100D100012D1A768D5F80C900EEA070709FA0CF96A
:100D200049EA0707A760676827EA00006F68C7F30A
:100D30000017B74038436060B0002F7907F0030711
:100D4000032F21D0E768D5F808900EEA070709FAC3
:100D50000CF949EA0707E7602F7907F00307022F2C
:100D600012D1F70804EB870700F01C09D7F820A080
:100D700003FA09FB2AEA0B0AD5F810B00BFA09F9B5
:100D800049EA0A09C7F8209027680EEA070E2F796A
:100D900007F0030707FA0CF747EA0E0727606F68AA
:100DA00017F4403F5FD0002700974FEA960C176872
:100DB00047F48047176000F00C00176807F480477D
:100DC000009703FA00FE009F2C4F57F82C7027EA7B
:100DD0000E0E2B4FBC4208BF002713D0294FBC4238
:100DE00008BF01270ED0284FBC4208BF022709D0F8
:100DF000264FBC4208BF032704D0254FBC420CBF7E
:100E00000427072707FA00F01C4F40EA0E0047F8B6
:100E10002C006FEA08000F6800EA070C6F68FF03F8
:100E200048BF48EA0C0CC1F800C04F6800EA070C44
:100E30006F68BF0348BF48EA0C0CC1F804C08F6854
:100E400000EA070C6F68FF0248BF48EA0C0CC1F8C3
:100E500008C0CF6800EA070C6868800248BF48EA0B
:100E60000C0CC1F80CC0761C0F2E7FF639AFBDE814
:100E7000F18F0000003C0140443802400838014036
:100E8000000002400004024000080240000C024042
:100E90000010024010B5044610460A46014620469E
:100EA00000F0D0FD204610BD80B50B48016841F42C
:100EB00000710160026842F480620260016841F4DE
:100EC000807101600320FFF7AEFE002000F0EEFD10
:100ED000FFF786FC002002BD003C024038B504004C
:100EE00001D1012032BD00F017F808B900F018F860
:100EF00000F01BF800F023F8FFE7416100F001F873
:100F000032BD2068C16841F40051C16000206860B2
:100F100020216970A970704704F13C05687870471A
:100F2000002129702046FFF7DDBC2420687020686E
:100F3000C16821F40051C160204600F00AB8206861
:100F4000016921F4904101612068416921F02A0181
:100F5000704770B5044622681169E06821F4405179
:100F600001431161D3682748A168034020690B43FE
:100F700061690343E0690B430343D3605169A0698E
:100F800021F44071014351611F498A421CBF1F482F
:100F9000824202D100F03EFD01E000F033FD6268C4
:100FA0002568E4691921B4F5004FA1FB00016FF039
:100FB000630612D1D30F520000F098FD00F028F81C
:100FC000F60032366420B6FBF0F0420002F4F8720C
:100FD00002EB011200F0070010E0930F920000F006
:100FE00085FD00F015F8360132366420B6FBF0F0CE
:100FF00000F0F00202EB011200F00F008018A86070
:1010000070BD0000F369FFFF0010014000140140B3
:101010006421B0FBF1F106FB0106704738B504000E
:1010200001D1012032BD00F093F818B900F05BF94E
:10103000FFF723FCFFE702206870211D206800F005
:1010400056F90120A872A870E87028716871A8711B
:10105000E871287268726870002032BD886800F0FC
:101060000700062870470846016841F00101016049
:10107000704738B5040001D1012032BD00F068F896
:1010800018B900F030F900F0B4FDD4E710B504460B
:1010900004F13E0009B9027807E0042908BF42784C
:1010A00003D008290CBF8278C278012A01D0012020
:1010B00010BD11B9022202700AE0042902D10222F5
:1010C000427005E0082907BF022282700223C37024
:1010D0002068012200F023FA00F021F818BFB1F1D6
:1010E000804F0DD000F017F81CBFDFF85820914258
:1010F00006D000F00CF81CBFDFF85020914202D15E
:10110000FFF7ACFF01D0FFF7AEFF002010BDDFF806
:10111000380081427047DFF828008142704721681B
:10112000DFF81800814205D1DFF82C100A6842F47C
:1011300000420A60216881427047000000000140BF
:101140000004004000080040000C00400040014046
:1011500004F13C056878704744000140002084F8A1
:101160003C002846704770B500F058F801D10220C5
:1011700070BD012084F83C0032B1042A15D0082A41
:1011800025D00C2A34D045E0206800F0EDF8216825
:10119000886940F008008861886920F0040088614F
:1011A0008A69306902438A6135E0206800F001F9FC
:1011B0002068816941F400618161816921F4806165
:1011C00081618169326941EA0221816123E02068FD
:1011D00000F018F92168C86940F00800C861C869C2
:1011E00020F00400C861CA6930690243CA6112E094
:1011F000206800F02FF92068C16941F40061C161E5
:10120000C16921F48061C161C169326941EA022189
:10121000C16100E00125FFF7A1FF70BD0446002574
:1012200094F83C0001280E46704770B5064606F15A
:101230003C0500242878012801D1022070BD01203E
:10124000287002226A70DFF84C023268936803400B
:1012500093600868020018BF102830D0202818BFFB
:1012600030282CD0402826D0502819D060281BD0F8
:10127000702806D0B0F5805F27D0B0F5005F07D0AA
:1012800022E000F02BF83068816841F0770105E03A
:1012900000F024F83068816841F48041816014E0F6
:1012A00000F018F850210BE0CA684968306800F077
:1012B00012F9602104E000F00DF8402100E0014641
:1012C000306800F01AF900E001240120687000F095
:1012D0000AF870BDCA6849683068EDE0CB684A68B2
:1012E0008968306811E10021297020467047F0B507
:1012F000694B0468694D6A4E6A4F984218BFB0F155
:10130000804F04D0B8421CBFB042A8420CD14A68FA
:1013100024F070041443984218BFB0F1804F0ED0EF
:10132000B84218BFB0420AD0A8421CBF5E4A9042E1
:1013300005D05E4DA8421CBF5D4A904203D1CA68E9
:1013400024F4407414434A6924F080041443046074
:1013500098428C68C4620A68826202D10969554A5F
:10136000116001234361F0BD70B5026A520852005A
:101370000262066A446885690B688A6825F073050D
:101380001D4326F002061643434B98420BD1CA6810
:101390004B6926F0080624F4407416438A691C43FE
:1013A00026F004061443446085614968416306627F
:1013B00070BD70B5026A384E22F010020262B0426F
:1013C000056A436884690A6824F4E64444EA02240E
:1013D0008A6825F0200545EA02150DD1CA684E69D4
:1013E00025F0800545EA02158A6923F44063164317
:1013F00025F0400543EA86034360846149688163C0
:10140000056270BD70B5026A22F480720262056ADC
:101410004368C4690A688E6824F0730414431E4A42
:1014200025F40075904245EA06250DD1CA684E693B
:1014300025F4006545EA02258A6923F440531643E2
:1014400025F4806543EA06134360C4614968C163BB
:10145000056270BD70B5026A0F4E22F480520262BE
:10146000B042046A4268C3690D6823F4E64343EA64
:1014700005238D6824F4005444EA053404D14D69F1
:1014800022F4804242EA85124260C36149680164E5
:10149000046270BD8800FFFF00000140000C0040A6
:1014A00000080040000400400040014000440140AA
:1014B000004801403000014010B5036A046A640826
:1014C0006400046223F00A03846924F0F00444EA0F
:1014D000021484612EE010B5036A23F01003036246
:1014E0008369046A23F4704343EA023324F0A004BE
:1014F000836144EA0114046210BD826822F0700224
:10150000114341F007018160704710B5846824F4ED
:101510007F442143114341EA0321816010BD10B58E
:1015200001F01F01036A01248C40A343036202FA05
:1015300001F1036A1943016210BD0EE002684368BD
:10154000024408305FEAC37C44BF4B445B1E52F840
:1015500004CB43F804CB091FF9D150F8041B002930
:10156000ECD1704770B500F13C031A78012A01D123
:10157000022070BD01221A7002245C7005686E683A
:10158000AC680A6826F0700616436E6002680E4862
:10159000824218BFB2F1804F0BD00D4882421CBF6F
:1015A0000C4DAA4205D0094882421CBF0A4DAA42EE
:1015B00004D1486824F080040443946001215970E8
:1015C0000020187070BD000000000140000C0040B9
:1015D0000004004000080040004001402DE9F843AD
:1015E000040016D02078DFF80063C10713D5B06877
:1015F00000F00C00042807D0B06800F00C000828A8
:101600003DD1706841023AD53068810303D56068E6
:10161000002800F063812078B44F810719D5B068A5
:1016200010F00C0F07D0B06800F00C0008285BD158
:101630007068410258D43068810703D5E0680128FA
:1016400040F04C813168206921F0F80141EAC00185
:1016500031602178080779D56069A549002868D0EC
:1016600001220A60FFF776F90546706F81076DD495
:10167000FFF770F9401B0228F7D9032031E16068B9
:10168000B0F5803F04D1306840F48030306011E024
:10169000B0F5A02F306806D140F48020306031686A
:1016A00041F4803105E020F480303060316821F46D
:1016B00080213160606858B1FFF74CF90546306809
:1016C0008103A8D4FFF746F9401B6528F7D3D4E778
:1016D000FFF740F90546306881039CD5FFF73AF9DA
:1016E000401B6528F7D3C8E7E068A8B1012139603D
:1016F000FFF730F905463068810705D4FFF72AF96E
:10170000401B0228F7D9B8E73068216920F0F800BB
:1017100040EAC10030609CE73860FFF71BF90546DE
:101720003168880795D5FFF715F9401B0228F7D9CE
:10173000A3E70860FFF70EF90546706F810705D52E
:10174000FFF708F9401B0228F7D996E720784107F0
:101750005FD5306C0025C1000AD400950125316C9D
:1017600041F080513164306C00F08050009000985E
:10177000DFF88081D8F80000C10513D4D8F8000044
:1017800040F48070C8F80000FFF7E4F88146D8F80C
:101790000000C10506D4FFF7DDF8A0EB0900022820
:1017A000F5D96AE7A068012805D00528306F06D171
:1017B00040F004003067306F40F0010005E0400861
:1017C00040003067306F20F00400306741F2893804
:1017D000A06860B1FFF7BEF88146306F810713D46F
:1017E000FFF7B8F8A0EB09004045F6D345E7FFF74F
:1017F000B1F88146306F810706D5FFF7ABF8A0EB53
:1018000009004045F6D338E71DB1306C20F0805018
:101810003064A069002863D0B16801F00C01082988
:101820003AD002282AD100203866FFF793F80546FF
:101830003068810105D5FFF78DF8401B0228F7D9E4
:101840001BE7E069216A626A0843A16A490840EA25
:101850008210491E40EA0140E16A40EA016070607E
:1018600001203866FFF776F804463068810137D4E6
:10187000FFF770F8001B0228F7D9FEE60020386653
:10188000FFF768F804463068810129D5FFF762F850
:10189000001B0228F7D9F0E601281FD07068E26922
:1018A00000F48001914202BF00F03F01226A9142A0
:1018B00001BF47F6C0710140626AB1EB821F0DD1D2
:1018C000A26A520800F44031521EB1EB024F02BF2F
:1018D00000F07060E16AB0EB016F01D0012000E020
:1018E0000020BDE8F28300BF0038024000004742FC
:1018F000800E4742007000402DE9F04104000F4681
:1019000054D0494E306800F00700B84202D200F0CF
:1019100073F84BD12068454D810712D5400703D598
:10192000A96841F4E051A9602078010703D5A868AF
:1019300040F46040A860A968A06821F0F00101436C
:10194000A9602178C80729D56068012802D12968D3
:101950008A0305E0022818BF032803D129688A01F9
:1019600003D423E029688A0720D5A968890840EABA
:101970008100A860FEF7EEFF8046A868616800F06D
:101980000C00B0EB810F09D0FEF7E4FFA0EB0800DC
:1019900041F289318842F0D303202BE0306800F017
:1019A0000700874204D200F027F801D0012021E08F
:1019B0002078410705D5AA68E06822F4E052024386
:1019C000AA602178080706D5A968206921F460413A
:1019D00041EAC001A96000F00DF9AA681449154B4D
:1019E000C2F30312895CC84018601348006800F015
:1019F0005DF80020BDE8F0813770316801F0070123
:101A0000B94270470B480D4A006813680C49C3F38C
:101A1000822206E00748094A006813680849C3F3B0
:101A20004232895CC8407047003C024000380240A6
:101A3000401D00080C00002008000020083802406B
:101A4000D41D000862F30F2262F31F42401810F009
:101A5000030308D0C91A1FD3DB0748BF00F8012DC4
:101A600028BF20F8022D130030B414461546103953
:101A700028BF20E93C00FAD8490728BF20E90C001C
:101A800048BF40F8042D890028BF20F8022D48BF28
:101A900000F8012D30BC7047C91818BF00F8012D9F
:101AA000CB0728BF00F8012D7047000038B50D4D59
:101AB0000D4B2A7804464FF47A711868B1FBF2F2A4
:101AC000B0FBF2F0FFF7E4F850B9102C08D2002276
:101AD00021464FF0FF30FFF7B3F8AC60002032BD75
:101AE000012032BD000000200C000020D3BBD9B182
:101AF000B2F5803F5BD2022A1ED98C46B1FBF2F1CF
:101B000002FB11C31B0443EA1043B3FBF2FC02FBCC
:101B10001C3380B240EA0343B3FBF2F002FB103205
:101B200040EA0C4000237047022A05D98446B0FBE6
:101B3000F2F002FB10C270474AB105D100F0010279
:101B400049085FEA3000704700220023704700F028
:101B500081B80B000200002100207047F7D300225B
:101B600000237047904271EB030CF2D370B5B1FAC9
:101B700081F4B3FA83F52C1BA340C4F1200532FA9B
:101B800005F63343A2405FF00046E64002E05B0802
:101B90005FEA3202841A71EB030524BF204629460E
:101BA0007641F4D302000B003000002170BD70B507
:101BB000B1FA81F4B2FA82F5C4F120046419B4F1E7
:101BC0002006DAD3B2405FF00044F440002502E082
:101BD00052085FEA3303C61A71EB020E24BF304687
:101BE000714664416D41F3D302000B0020002900CF
:101BF00070BD704730B5144C606800F00C000428CC
:101C000002D0082802D01DE0104830BD22682068AC
:101C10000023410202F03F0204D525680B49C5F3B9
:101C2000881003E020680A49C0F38810A1FB000176
:101C3000FFF75CFF2168C1F30141491C4900B0FB7B
:101C4000F1F030BD024830BD0438024000127A0085
:101C50000024F400704730B4002512E050F8042B43
:101C6000D30744BF4A44521E091F042942F8045BAB
:101C7000FAD213468C0744BF15809B1CC90748BF86
:101C80001D7050F8041B0029E8D130BC70470000DB
:101C900010B5074979441831064C7C44163404E0E9
:101CA0000A68081D114488470146A142F8D110BDB9
:101CB0002C0000004C0000004EF68851CEF20001CE
:101CC000086840F470000860BFF34F8FBFF36F8F58
:101CD0004FF00070E1EE100A704700007BFFFFFF3D
:101CE000D800000010000020000000004FF8FFFFA7
:101CF00010000000D00000000000002000000000E4
:101D0000FEE7FEE7FEE7FEE7FEE770477047704735
:101D100000F006B80148FEF719BC000010000020D2
:101D20000248416802788A1842607047000000202B
:101D30000248016841F470010160704788ED00E0DD
:101D4000000000000000000001020304060708096B
:101D500000F00DF8002801D0FFF79AFFAFF30080E4
:101D60000020AFF30080FEF701FE00F002F8012032
:101D7000704700F001B800000746384600F002F84E
:101D8000FBE7000080B5AFF30080024A1100182085
:101D9000ABBEFBE7260002000548014603B46846D7
:101DA00080F30988AFF30080FFF786FFFFF7D0FFCD
:101DB000A5EDF5FE0148804701480047311D0008A8
:101DC000991D000801000000000000001000000044
:101DD0000024F4000000000001020304FFF7FEBF2E
:101DE000FFF7FEBFFFF7FEBFFFF7FEBFFFF7FEBF27
:101DF000FFF7FEBFFFF7FEBFFFF7FEBFFFF7FEBF17
:101E0000FFF7FEBFFFF7FEBFFFF7FEBFFFF7FEBF06
:101E1000FFF7FEBFFFF7FEBFFFF7FEBFFFF7FEBFF6
:101E2000FFF7FEBFFFF7FEBFFFF7FEBFFFF7FEBFE6
:101E3000FFF7FEBFFFF7FEBFFFF7FEBFFFF7FEBFD6
:101E4000FFF7FEBFFFF7FEBFFFF7FEBFFFF7FEBFC6
:101E5000FFF7FEBFFFF7FEBFFFF7FEBFFFF7FEBFB6
:101E6000FFF7FEBFFFF7FEBFFFF7FEBFFFF7FEBFA6
:101E7000FFF7FEBFFFF7FEBFFFF7FEBFFFF7FEBF96
:101E8000FFF7FEBFFFF7FEBFFFF7FEBFFFF7FEBF86
:101E9000FFF7FEBFFFF7FEBFFFF7FEBFFFF7FEBF76
:101EA000FFF7FEBFFFF7FEBFFFF7FEBFFFF7FEBF66
:081EB000FFF7FEBFFFF7FEBFC4
:0400000508001D9939
:00000001FF
