:020000040800F2
:10000000A0040020311500087D1400087F140008AA
:100010008114000883140008851400080000000003
:10002000000000000000000000000000871400082D
:1000300089140008000000008B1400088D140008CB
:10004000591500085D1500086115000865150008C0
:10005000691500086D150008711500087515000870
:10006000791500087D150008811500088515000820
:10007000891500088D1500089115000895150008D0
:10008000991500089D150008A11500080000000042
:10009000000000000000000000000000A51500089E
:1000A000A9150008AD150008B1150008B515000820
:1000B00091140008B9150008BD150008C115000805
:1000C000C5150008C9150008CD150008D115000890
:1000D000D5150008D9150008DD150008000000003E
:1000E000E1150008E5150008E9150008000000000A
:1000F000000000000000000000000000ED150008F6
:1001000000000000F1150008F5150008F9150008B9
:1001100000000000000000000000000000000000DF
:10012000FD1500080116000805160008091600084C
:100130000D16000800000000000000000000000094
:100140000000000000000000000000001116000880
:1001500015160008191600081D16000821160008BB
:100160002516000829160008000000000000000005
:10017000000000000000000000000000000000007F
:10018000000000002D160008000000000000000024
:100190003116000838B5040001D1012032BD00F04D
:1001A00055F818B900F058F900F0FCF931E090F872
:1001B0003D10012901D001207047022180F83D1037
:1001C0000168CA6842F00102CA600168DFF868206D
:1001D000914218BFB1F1804F0FD0DFF860209142FB
:1001E0001CBFDFF85C30994207D0DFF858209142FD
:1001F0001CBFDFF85430994205D1896801F007012E
:10020000062904D001680A6842F001020A60002051
:10021000704702206870211D206800F021F901203C
:10022000A872A870E87028716871A871E8712872C6
:1002300068726870002032BD000001400004004078
:1002400000080040000C00400040014004F13C0563
:100250006878704710B50446206801698A0715D58B
:10026000C1688A0712D56FF002010161012222776D
:10027000806910F0030F204602D000F0E7F903E098
:1002800000F0E5F900F087F8002020772068016988
:100290004A0715D5C1684A0712D56FF004010161FC
:1002A00002222277806910F4407F204602D000F0BD
:1002B000CDF903E000F0CBF900F06DF800202077D5
:1002C000206801690A0715D5C1680A0712D56FF0C1
:1002D0000801016104222277C06910F0030F204653
:1002E00002D000F0B3F903E000F0B1F900F053F8E8
:1002F0000020207720680169CA0615D5C168CA06A2
:1003000012D56FF01001016108222277C06910F444
:10031000407F204602D000F099F903E000F097F901
:1003200000F039F80020207720680169CA0708D555
:10033000C168CA0705D56FF001010161204600F0D0
:1003400087F9206801690A0608D5C1680A0605D53B
:100350006FF080010161204600F097FA2068016982
:100360004A0608D5C1684A0605D56FF0400101610B
:10037000204600F08BFA206801698A060AD5C16818
:100380008A0607D56FF0200101612046BDE81040C4
:1003900000F07DBA10BD204600F07ABA70B506466E
:1003A00006F13C0500242878012801D1022070BD07
:1003B0000120287002226A70DFF8200132689368F9
:1003C000034093600868020018BF102830D020282E
:1003D00018BF30282CD0402826D0502819D06028AB
:1003E0001BD0702806D0B0F5805F27D0B0F5005F35
:1003F00007D022E000F02BF83068816841F07701E7
:1004000005E000F024F83068816841F480418160A3
:1004100014E000F018F850210BE0CA684968306811
:1004200000F07DF8602104E000F00DF8402100E0CC
:100430000146306800F085F800E001240120687072
:1004400000F00AF870BDCA684968306858E0CB68A7
:100450004A68896830687CE000212970204670472E
:10046000F0B51F4B04681F4D1F4E204F984218BF18
:10047000B0F1804F04D0B8421CBFB042A8420CD1AA
:100480004A6824F070041443984218BFB0F1804FBA
:100490000ED0B84218BFB0420AD0A8421CBF144ABE
:1004A000904205D0134DA8421CBF134A904203D17D
:1004B000CA6824F4407414434A6924F08004144345
:1004C000046098428C68C4620A68826202D1096939
:1004D0000A4A116001234361F0BD00008800FFFF5C
:1004E00000000140000C00400008004000040040F3
:1004F00000400140004401400048014030000140FC
:1005000010B5036A046A64086400046223F00A03F5
:10051000846924F0F00444EA0214846123E010B5F5
:10052000036A23F0100303628369046A23F47043AF
:1005300043EA023324F0A004836144EA0114046214
:1005400010BD826822F07002114341F00701816002
:10055000704710B5846824F47F442143114341EA75
:100560000321816010BD1943016210BD82B00020DB
:10057000009000223148416841F480414160416867
:1005800001F48041009100990092036843F0805388
:100590000360006800F0805000900098072002B0CF
:1005A00000F099B90068B0F1804F00D0704780B575
:1005B000002122480091026842F0010202600022FC
:1005C00000F036F81C2000F093F9BDE802401C2032
:1005D00000F0ABB910B586B004461422002101A882
:1005E00000F0CEF92168164881421FD1002215483B
:1005F0000092016941F400310161016901F40031A7
:100600000091009900920C21036843F001030360FC
:10061000022200F00DF80C48019102920021039192
:1006200004910721059101A900F0B4F906B010BDAD
:10063000006800F0010000900098704740380240C8
:1006400000440040303802400000024070477047CC
:1006500082490A1D904200D0704720B50A884B8815
:100660007F48521C0A8095B2AB4228BF012204D2B7
:1006700092B2B2F57A7F05DA0022BDE8204020214F
:1006800000F059BA00205B1C08804B8020BD10B5DB
:1006900086B000F065FA00F091F800F0EFF8002065
:1006A00000906F4C6F48016841F0040101600268DE
:1006B00002F004020092002200990092036843F0C5
:1006C00080030360016801F08001009100990092AD
:1006D000036843F001030360016801F00101009128
:1006E000009900922021036843F002030360006830
:1006F00000F0020000900098204600F01CFA4FF431
:1007000000504FF40411019002910022039201A9BC
:10071000554800F03FF92021019101220021039169
:100720000491029201A9204600F034F91022002120
:1007300002A800F025F908220021684600F020F9FF
:10074000464C4FF0804060600021A1600020E060D6
:1007500040F2E7316061E0612161201DFFF71AFD81
:1007600008B100F090F84FF48050029002A9201DCB
:10077000FFF714FE08B100F086F800210091019106
:10078000201D694600F006FA08B100F07CF8201D33
:10079000FFF70DFD3548364901604FF4E132002383
:1007A0000C2142608360C360036141618361C36166
:1007B00000F02CFA08B100F066F8FEE780B592B0C0
:1007C0003022002106A800F0DBF800F057F80020E6
:1007D00000902848016841F08051016000210068C4
:1007E00000F0805000900098234800910221026898
:1007F00022F4404242F4004202600122006800F408
:100800004040009000980691099210210A9102221E
:1008100000210C920D9110224FF4A8710E920F91AD
:10082000042207211092119106A800F08FFA08B156
:1008300072B6FEE7022102910F204FF48051019021
:100840000022049103920592022101A800F00CFC01
:1008500008B172B6FEE713B000BD00001000002022
:100860000000024030380240000802405C000020D6
:100870000044004040380240007000401422002133
:1008800001A800F07DB872B6FEE770477047704768
:1008900070470EE002684368024408305FEAC37C98
:1008A00044BF4B445B1E52F804CB43F804CB091FF2
:1008B000F9D150F8041B0029ECD17047090102005E
:1008C00002D4294881547047284B02F00F021A4481
:1008D00002F8041C7047264B19684FF6FF0200020D
:1008E000114000F4E0600843224908431860704753
:1008F00070B51F4B1C68C4F302230124C3F1070524
:10090000052D2EBF0F2504FA05F56D1E1E1D072EA1
:1009100034BF0023DB1E2940994004FA03F3BDE8ED
:1009200070405B1E1A401143C8E7010007D4012242
:1009300000F01F01104B8A40400943F82020704707
:1009400010B5401EB0F1807F01D3012010BD0B4CCB
:1009500060600F214FF0FF30FFF7B0FF0021A16072
:1009600007202060002010BD00E400E018ED00E04A
:100970000CED00E00000FA0500E100E010E000E00E
:1009800010B5044610460A460146204600F012FC07
:10099000204610BD2DE9F84F0D4600266849694AEA
:1009A0000F23044601202F68B04000EA0708804565
:1009B00040F0BB804FEA460C032707FA0CF76FEABA
:1009C000070E6F6807F00309B9F1010F1CBF07F0AC
:1009D0000307022F12D1A768D5F80C900EEA07077B
:1009E00009FA0CF949EA0707A760676827EA0000D7
:1009F0006F68C7F30017B74038436060B0002F79C5
:100A000007F00307032F21D0E768D5F808900EEA16
:100A1000070709FA0CF949EA0707E7602F7907F099
:100A20000307022F12D1F70804EB870700F01C0917
:100A3000D7F820A003FA09FB2AEA0B0AD5F810B070
:100A40000BFA09F949EA0A09C7F8209027680EEA63
:100A5000070E2F7907F0030707FA0CF747EA0E078E
:100A600027606F6817F4403F5FD0002700974FEA78
:100A7000960C176847F48047176000F00C00176861
:100A800007F48047009703FA00FE009F2E4F57F8A7
:100A90002C7027EA0E0E2D4FBC4208BF002713D042
:100AA0002B4FBC4208BF01270ED02A4FBC4208BFC3
:100AB000022709D0284FBC4208BF032704D0274F84
:100AC000BC420CBF0427072707FA00F01E4F40EA7C
:100AD0000E0047F82C006FEA08000F6800EA070CC8
:100AE0006F68FF0348BF48EA0C0CC1F800C04F68AC
:100AF00000EA070C6F68BF0348BF48EA0C0CC1F856
:100B000004C08F6800EA070C6F68FF0248BF48EA1C
:100B10000C0CC1F808C0CF6800EA070C68688002B6
:100B200048BF48EA0C0CC1F80CC0761C0F2E7FF6AB
:100B300039AFBDE8F18F02B9090481617047000047
:100B4000003C0140443802400838014000000240A7
:100B50000004024000080240000C02400010024065
:100B600080B50B48016841F400710160026842F4ED
:100B700080620260016841F4807101600320FFF728
:100B8000AAFE002000F04AFBFFF7F0FC002002BDA7
:100B9000003C024070B500F13C031A78012A01D1F3
:100BA000022070BD01221A7002245C7005686E6814
:100BB000AC680A6826F0700616436E6002680E483C
:100BC000824218BFB2F1804F0BD00D4882421CBF49
:100BD0000C4DAA4205D0094882421CBF0A4DAA42C8
:100BE00004D1486824F080040443946001215970C2
:100BF0000020187070BD000000000140000C004093
:100C000000040040000800400040014038B50400E6
:100C100001D1012032BD00F017F808B900F018F832
:100C200000F01BF800F023F8FFE7416100F001F845
:100C300032BD2068C16841F40051C1600020686085
:100C400020216970A970704704F13C0568787047ED
:100C5000002129702046FFF7BDBC24206870206861
:100C6000C16821F40051C160204600F00AB8206834
:100C7000016921F4904101612068416921F02A0154
:100C8000704770B5044622681169E06821F440514C
:100C900001431161D3682748A168034020690B43D1
:100CA00061690343E0690B430343D3605169A06961
:100CB00021F44071014351611F498A421CBF1F4802
:100CC000824202D100F05EFA01E000F053FA62685D
:100CD0002568E4691921B4F5004FA1FB00016FF00C
:100CE000630612D1D30F520000F0B8FA00F028F8D2
:100CF000F60032366420B6FBF0F0420002F4F872DF
:100D000002EB011200F0070010E0930F920000F0D8
:100D1000A5FA00F015F8360132366420B6FBF0F083
:100D200000F0F00202EB011200F00F008018A86042
:100D300070BD0000F369FFFF001001400014014086
:100D40006421B0FBF1F106FB010670472DE9F84381
:100D5000040016D02078DFF80063C10713D5B0680F
:100D600000F00C00042807D0B06800F00C00082840
:100D70003DD1706841023AD53068810303D560687F
:100D8000002800F063812078B44F810719D5B0683E
:100D900010F00C0F07D0B06800F00C0008285BD1F1
:100DA0007068410258D43068810703D5E068012893
:100DB00040F04C813168206921F0F80141EAC0011E
:100DC00031602178080779D56069A549002868D085
:100DD00001220A6000F0C6FA0546706F81076DD4E3
:100DE00000F0C0FA401B0228F7D9032031E1606807
:100DF000B0F5803F04D1306840F48030306011E0BD
:100E0000B0F5A02F306806D140F480203060316802
:100E100041F4803105E020F480303060316821F405
:100E200080213160606858B100F09CFA0546306856
:100E30008103A8D400F096FA401B6528F7D3D4E7C5
:100E400000F090FA0546306881039CD500F08AFADC
:100E5000401B6528F7D3C8E7E068A8B101213960D5
:100E600000F080FA05463068810705D400F07AFA70
:100E7000401B0228F7D9B8E73068216920F0F80054
:100E800040EAC10030609CE7386000F06BFA05462C
:100E90003168880795D500F065FA401B0228F7D91C
:100EA000A3E7086000F05EFA0546706F810705D57C
:100EB00000F058FA401B0228F7D996E7207841073E
:100EC0005FD5306C0025C1000AD400950125316C36
:100ED00041F080513164306C00F0805000900098F7
:100EE000DFF88081D8F80000C10513D4D8F80000DD
:100EF00040F48070C8F8000000F034FA8146D8F859
:100F00000000C10506D400F02DFAA0EB090002286C
:100F1000F5D96AE7A068012805D00528306F06D109
:100F200040F004003067306F40F0010005E04008F9
:100F300040003067306F20F00400306741F289389C
:100F4000A06860B100F00EFA8146306F810713D4BB
:100F500000F008FAA0EB09004045F6D345E700F0A1
:100F600001FA8146306F810706D500F0FBF9A0EB4E
:100F700009004045F6D338E71DB1306C20F08050B1
:100F80003064A069002863D0B16801F00C01082921
:100F90003AD002282AD10020386600F0E3F905464D
:100FA0003068810105D500F0DDF9401B0228F7D932
:100FB0001BE7E069216A626A0843A16A490840EABE
:100FC0008210491E40EA0140E16A40EA0160706017
:100FD0000120386600F0C6F904463068810137D434
:100FE00000F0C0F9001B0228F7D9FEE600203866A1
:100FF00000F0B8F904463068810129D500F0B2F953
:10100000001B0228F7D9F0E601281FD07068E269BA
:1010100000F48001914202BF00F03F01226A914238
:1010200001BF47F6C0710140626AB1EB821F0DD16A
:10103000A26A520800F44031521EB1EB024F02BFC7
:1010400000F07060E16AB0EB016F01D0012000E0B8
:101050000020BDE8F28300BF003802400000474294
:10106000800E4742007000402DE9F04104000F4619
:1010700054D0494E306800F00700B84202D200F068
:1010800073F84BD12068454D810712D5400703D531
:10109000A96841F4E051A9602078010703D5A86848
:1010A00040F46040A860A968A06821F0F001014305
:1010B000A9602178C80729D56068012802D129686C
:1010C0008A0305E0022818BF032803D129688A0192
:1010D00003D423E029688A0720D5A968890840EA53
:1010E0008100A86000F03EF98046A868616800F0C1
:1010F0000C00B0EB810F09D000F034F9A0EB080030
:1011000041F289318842F0D303202BE0306800F0AF
:101110000700874204D200F027F801D0012021E027
:101120002078410705D5AA68E06822F4E05202431E
:10113000AA602178080706D5A968206921F46041D2
:1011400041EAC001A96000F013F9AA681449154BDF
:10115000C2F30312895CC84018601348006800F0AD
:101160005DF80020BDE8F0813770316801F00701BB
:10117000B94270470B480D4A006813680C49C3F325
:10118000822206E00748094A006813680849C3F349
:101190004232895CC8407047003C0240003802403F
:1011A000BC1400080C000020080000200838024091
:1011B0005015000862F30F2262F31F42401810F02E
:1011C000030308D0C91A1FD3DB0748BF00F8012D5D
:1011D00028BF20F8022D130030B4144615461039EC
:1011E00028BF20E93C00FAD8490728BF20E90C00B5
:1011F00048BF40F8042D890028BF20F8022D48BFC1
:1012000000F8012D30BC7047C91818BF00F8012D37
:10121000CB0728BF00F8012D7047000038B50D4DF1
:101220000D4B2A7804464FF47A711868B1FBF2F23C
:10123000B0FBF2F0FFF784FB50B9102C08D200226B
:1012400021464FF0FF30FFF753FBAC60002032BD6A
:10125000012032BD000000200C000020D3BBD9B11A
:10126000B2F5803F5BD2022A1ED98C46B1FBF2F167
:1012700002FB11C31B0443EA1043B3FBF2FC02FB65
:101280001C3380B240EA0343B3FBF2F002FB10329E
:1012900040EA0C4000237047022A05D98446B0FB7F
:1012A000F2F002FB10C270474AB105D100F0010212
:1012B00049085FEA3000704700220023704700F0C1
:1012C00087B80B000200002100207047F7D30022EE
:1012D00000237047904271EB030CF2D370B5B1FA62
:1012E00081F4B3FA83F52C1BA340C4F1200532FA34
:1012F00005F63343A2405FF00046E64002E05B089B
:101300005FEA3202841A71EB030524BF20462946A6
:101310007641F4D302000B003000002170BD70B59F
:10132000B1FA81F4B2FA82F5C4F120046419B4F17F
:101330002006DAD3B2405FF00044F440002502E01A
:1013400052085FEA3303C61A71EB020E24BF30461F
:10135000714664416D41F3D302000B002000290067
:1013600070BD000001484068704700BF00000020C9
:1013700030B5144C606800F00C00042802D0082836
:1013800002D01DE0104830BD2268206800234102D1
:1013900002F03F0204D525680B49C5F3881003E02D
:1013A00020680A49C0F38810A1FB0001FFF756FF2F
:1013B0002168C1F30141491C4900B0FBF1F030BD87
:1013C000024830BD0438024000127A000024F400C4
:1013D000704730B4002512E050F8042BD30744BF07
:1013E0004A44521E091F042942F8045BFAD21346EC
:1013F0008C0744BF15809B1CC90748BF1D7050F85F
:10140000041B0029E8D130BC7047000010B5074923
:1014100079441831064C7C44163404E00A68081DEF
:10142000114488470146A142F8D110BD2C000000AC
:101430004C0000004EF68851CEF20001086840F4DE
:1014400070000860BFF34F8FBFF36F8F4FF00070D5
:10145000E1EE100A704700007BFFFFFF90000000E4
:1014600010000020000000002BF4FFFF100000001F
:10147000D00000000000002000000000FEE7FEE7B2
:10148000FEE7FEE7FEE770477047704700F006B8DA
:101490000148FEF7DFBE000014000020024841684A
:1014A00002788A18426070470000002002480168F4
:1014B00041F470010160704788ED00E00000000019
:1014C00000000000010203040607080900F00DF8FF
:1014D000002801D0FFF79AFFAFF300800020AFF3A0
:1014E0000080FFF7D4F800F002F80120704700F008
:1014F00001B800000746384600F002F8FBE700009C
:1015000080B5AFF30080024A11001820ABBEFBE7A4
:10151000260002000548014603B4684680F30988A6
:10152000AFF30080FFF786FFFFF7D0FFA5EDF5FED4
:101530000148804701480047AD1400081515000810
:101540000100000000000000100000000024F40072
:101550000000000001020304FFF7FEBFFFF7FEBF1B
:10156000FFF7FEBFFFF7FEBFFFF7FEBFFFF7FEBFAF
:10157000FFF7FEBFFFF7FEBFFFF7FEBFFFF7FEBF9F
:10158000FFF7FEBFFFF7FEBFFFF7FEBFFFF7FEBF8F
:10159000FFF7FEBFFFF7FEBFFFF7FEBFFFF7FEBF7F
:1015A000FFF7FEBFFFF7FEBFFFF7FEBFFFF7FEBF6F
:1015B000FFF7FEBFFFF7FEBFFFF7FEBFFFF7FEBF5F
:1015C000FFF7FEBFFFF7FEBFFFF7FEBFFFF7FEBF4F
:1015D000FFF7FEBFFFF7FEBFFFF7FEBFFFF7FEBF3F
:1015E000FFF7FEBFFFF7FEBFFFF7FEBFFFF7FEBF2F
:1015F000FFF7FEBFFFF7FEBFFFF7FEBFFFF7FEBF1F
:10160000FFF7FEBFFFF7FEBFFFF7FEBFFFF7FEBF0E
:10161000FFF7FEBFFFF7FEBFFFF7FEBFFFF7FEBFFE
:10162000FFF7FEBFFFF7FEBFFFF7FEBFFFF7FEBFEE
:04163000FFF7FEBF03
:0400000508001515C5
:00000001FF
