:020000040800F2
:10000000580400201D110008F9100008FB1000081A
:10001000FD100008FF10000801110008000000009A
:1000200000000000000000000000000003110008B4
:100030000511000800000000071100080911000860
:1000400035110008391100083D1100084111000860
:1000500045110008491100084D1100085111000810
:1000600055110008591100085D11000861110008C0
:1000700065110008691100086D1100087111000870
:1000800075110008791100087D11000800000000BA
:1000900000000000000000000000000081110008C6
:1000A00085110008891100088D11000891110008C0
:1000B00095110008991100089D110008A111000870
:1000C000A5110008A9110008AD110008B111000820
:1000D000B5110008B9110008BD11000800000000AA
:1000E000C1110008C5110008C91100080000000076
:1000F000000000000000000000000000CD1100081A
:1001000000000000D1110008D5110008D911000825
:1001100000000000000000000000000000000000DF
:10012000DD110008E1110008E5110008E9110008DF
:10013000ED110008000000000000000000000000B9
:10014000000000000000000000000000F1110008A5
:10015000F5110008F9110008FD110008011200084E
:10016000051200080912000800000000000000004D
:10017000000000000000000000000000000000007F
:10018000000000000D120008000000000000000048
:10019000111200082DE9F843040016D02078DFF88A
:1001A0000063C10713D5B06800F00C00042807D025
:1001B000B06800F00C0008283DD1706841023AD5C3
:1001C0003068810303D56068002800F063812078DF
:1001D000B44F810719D5B06810F00C0F07D0B06884
:1001E00000F00C0008285BD17068410258D43068D8
:1001F000810703D5E068012840F04C81316820690F
:1002000021F0F80141EAC00131602178080779D571
:100210006069A549002868D001220A6000F048F909
:100220000546706F81076DD400F042F9401B02282B
:10023000F7D9032031E16068B0F5803F04D1306820
:1002400040F48030306011E0B0F5A02F306806D166
:1002500040F480203060316841F4803105E020F4C2
:1002600080303060316821F480213160606858B19D
:1002700000F01EF9054630688103A8D400F018F993
:10028000401B6528F7D3D4E700F012F90546306823
:1002900081039CD500F00CF9401B6528F7D3C8E713
:1002A000E068A8B10121396000F002F90546306824
:1002B000810705D400F0FCF8401B0228F7D9B8E705
:1002C0003068216920F0F80040EAC10030609CE706
:1002D000386000F0EDF805463168880795D500F0E4
:1002E000E7F8401B0228F7D9A3E7086000F0E0F820
:1002F0000546706F810705D500F0DAF8401B02282B
:10030000F7D996E7207841075FD5306C0025C1000A
:100310000AD400950125316C41F080513164306C74
:1003200000F0805000900098DFF88081D8F800003D
:10033000C10513D4D8F8000040F48070C8F800005C
:1003400000F0B6F88146D8F80000C10506D400F0E8
:10035000AFF8A0EB09000228F5D96AE7A0680128E8
:1003600005D00528306F06D140F004003067306FAB
:1003700040F0010005E0400840003067306F20F099
:100380000400306741F28938A06860B100F090F84D
:100390008146306F810713D400F08AF8A0EB090082
:1003A0004045F6D345E700F083F88146306F81077A
:1003B00006D500F07DF8A0EB09004045F6D338E7FC
:1003C0001DB1306C20F080503064A069002863D0EB
:1003D000B16801F00C0108293AD002282AD1002086
:1003E000386600F065F805463068810105D500F0F3
:1003F0005FF8401B0228F7D91BE7E069216A626AAF
:100400000843A16A490840EA8210491E40EA0140B7
:10041000E16A40EA016070600120386600F048F847
:1004200004463068810137D400F042F8001B0228EE
:10043000F7D9FEE60020386600F03AF80446306846
:10044000810129D500F034F8001B0228F7D9F0E625
:1004500001281FD07068E26900F48001914202BF58
:1004600000F03F01226A914201BF47F6C07101408E
:10047000626AB1EB821F0DD1A26A520800F44031CA
:10048000521EB1EB024F02BF00F07060E16AB0EBA8
:10049000016F01D0012000E00020BDE8F28300BF21
:1004A0000038024000004742800E47420070004082
:1004B00001484068704700BF0000002038B50400C4
:1004C00001D1012032BD00F017F808B900F018F88A
:1004D00000F01BF800F023F8FFE7416100F001F89D
:1004E00032BD2068C16841F40051C16000206860DD
:1004F00020216970A970704704F13C056878704745
:1005000000212970204600F035B924206870206849
:10051000C16821F40051C160204600F0AAB82068EB
:10052000016921F4904101612068416921F02A01AB
:1005300070472DE9F843054605F13C060C467078F6
:1005400020281746994649D10CB1380001D1012025
:1005500045E03078012841D00121317000207060E1
:1005600021227270FFF7A4FFAF848046EF84A86851
:10057000B0F5805F04BF286900280EBF27462046DB
:1005800000270021317004460EE014F8012B426070
:1005900007E02868002CF8D137F8021BC1F30801E6
:1005A0004160E88C411EE9844346E88CCDF8009018
:1005B000002807D000228021284600F012F80028E9
:1005C000E7D005E000224021284600F00AF808B1F3
:1005D000032004E020207070002000E00220BDE82D
:1005E000F2832DE9F041069C05460E4690461F46D3
:1005F000286801683140B1420CBF0120002040450D
:100600001BD114F1010FF3D024B1FFF751FFC01B30
:100610008442EDD200F018F821F4D07100F010F807
:10062000F8D100F019F8FCD105F13C00202141700F
:10063000817000210170032000E00020BDE8F081FE
:1006400043E8001000287047286800F10C0151E8C9
:10065000001F00F10C037047286800F1140151E8F5
:10066000001F490800F11403490043E80010002866
:10067000704770B5044622681169E06821F4405162
:1006800001431161D3682748A168034020690B43E7
:1006900061690343E0690B430343D3605169A06977
:1006A00021F44071014351611F498A421CBF1F4818
:1006B000824202D100F026F901E000F01BF96268E5
:1006C0002568E4691921B4F5004FA1FB00016FF022
:1006D000630612D1D30F520000F02CF900F028F875
:1006E000F60032366420B6FBF0F0420002F4F872F5
:1006F00002EB011200F0070010E0930F920000F0EF
:1007000019F900F015F8360132366420B6FBF0F026
:1007100000F0F00202EB011200F00F008018A86058
:1007200070BD0000F369FFFF00100140001401409C
:100730006421B0FBF1F106FB0106704782B0002096
:10074000009000222448416841F4804141604168A2
:1007500001F48041009100990092036843F08053B6
:100760000360006800F0805000900098072002B0FD
:1007700000F08DB910B586B004461422002101A8FE
:1007800000F0CEF921681548814222D10022144898
:100790000092016941F400310161016901F4003105
:1007A0000091009900920C21036843F0010303605B
:1007B0000222006800F001000090009809480191B1
:1007C00002920021039104910721059101A900F0F3
:1007D000B1F906B010BD00004038024000440040AE
:1007E00030380240000002402DE9F04104000F467D
:1007F00054D0494E306800F00700B84202D200F0F1
:1008000073F84BD12068454D810712D5400703D5B9
:10081000A96841F4E051A9602078010703D5A868D0
:1008200040F46040A860A968A06821F0F00101438D
:10083000A9602178C80729D56068012802D12968F4
:100840008A0305E0022818BF032803D129688A011A
:1008500003D423E029688A0720D5A968890840EADB
:100860008100A860FFF724FE8046A868616800F058
:100870000C00B0EB810F09D0FFF71AFEA0EB0800C7
:1008800041F289318842F0D303202BE0306800F038
:100890000700874204D200F027F801D0012021E0B0
:1008A0002078410705D5AA68E06822F4E0520243A7
:1008B000AA602178080706D5A968206921F460415B
:1008C00041EAC001A96000F01BFAAA681449154B5F
:1008D000C2F30312895CC84018601348006800F036
:1008E0003FFA0020BDE8F0813770316801F0070160
:1008F000B94270470B480D4A006813680C49C3F3AE
:10090000822206E00748094A006813680849C3F3D1
:100910004232895CC8407047003C024000380240C7
:10092000841000080C000020080000200838024055
:100930002C110008D3BBD9B1B2F5803F5BD2022A9B
:100940001ED98C46B1FBF2F102FB11C31B0443EA32
:100950001043B3FBF2FC02FB1C3380B240EA0343BA
:10096000B3FBF2F002FB103240EA0C400023704768
:10097000022A05D98446B0FBF2F002FB10C2704790
:100980004AB105D100F0010249085FEA3000704722
:1009900000220023704700F003BA0B000200002180
:1009A00000207047F7D3002200237047904271EB7C
:1009B000030CF2D370B5B1FA81F4B3FA83F52C1BB2
:1009C000A340C4F1200532FA05F63343A2405FF09C
:1009D0000046E64002E05B085FEA3202841A71EBEF
:1009E000030524BF204629467641F4D302000B00BC
:1009F0003000002170BD70B5B1FA81F4B2FA82F511
:100A0000C4F120046419B4F12006DAD3B2405FF0D7
:100A10000044F440002502E052085FEA3303C61A9E
:100A200071EB020E24BF3046714664416D41F3D331
:100A300002000B002000290070BD30B501688468F9
:100A40004218416802EB5103C90703D54C4401E049
:100A5000491C08D19A4218BF12F9011B01D10C3070
:100A600030BD12F8015B002904F8015BF0D4491E87
:100A7000F7D5EFE70901020002D4244881547047FA
:100A8000234B02F00F021A4402F8041C7047214B5A
:100A900019684FF6FF020002114000F4E0600843BD
:100AA0001D4908431860704770B51A4B1C68C4F3A1
:100AB00002230124C3F10705052D2EBF0F2504FADB
:100AC00005F56D1E1E1D072E34BF0023DB1E2940B9
:100AD000994004FA03F3BDE870405B1E1A401143CD
:100AE000C8E710B5401EB0F1807F01D3012010BDD2
:100AF0000A4C60600F214FF0FF30FFF7BBFF002171
:100B0000A16007202060002010BD000000E400E08C
:100B100018ED00E00CED00E00000FA0510E000E048
:100B200010B5044610460A460146204600F03AF940
:100B3000204610BD2DE9F84F0D4600266849694A48
:100B40000F23044601202F68B04000EA07088045C3
:100B500040F0BB804FEA460C032707FA0CF76FEA18
:100B6000070E6F6807F00309B9F1010F1CBF07F00A
:100B70000307022F12D1A768D5F80C900EEA0707D9
:100B800009FA0CF949EA0707A760676827EA000035
:100B90006F68C7F30017B74038436060B0002F7923
:100BA00007F00307032F21D0E768D5F808900EEA75
:100BB000070709FA0CF949EA0707E7602F7907F0F8
:100BC0000307022F12D1F70804EB870700F01C0976
:100BD000D7F820A003FA09FB2AEA0B0AD5F810B0CF
:100BE0000BFA09F949EA0A09C7F8209027680EEAC2
:100BF000070E2F7907F0030707FA0CF747EA0E07ED
:100C000027606F6817F4403F5FD0002700974FEAD6
:100C1000960C176847F48047176000F00C001768BF
:100C200007F48047009703FA00FE009F2E4F57F805
:100C30002C7027EA0E0E2D4FBC4208BF002713D0A0
:100C40002B4FBC4208BF01270ED02A4FBC4208BF21
:100C5000022709D0284FBC4208BF032704D0274FE2
:100C6000BC420CBF0427072707FA00F01E4F40EADA
:100C70000E0047F82C006FEA08000F6800EA070C26
:100C80006F68FF0348BF48EA0C0CC1F800C04F680A
:100C900000EA070C6F68BF0348BF48EA0C0CC1F8B4
:100CA00004C08F6800EA070C6F68FF0248BF48EA7B
:100CB0000C0CC1F808C0CF6800EA070C6868800215
:100CC00048BF48EA0C0CC1F80CC0761C0F2E7FF60A
:100CD00039AFBDE8F18F02B90904816170470000A6
:100CE000003C014044380240083801400000024006
:100CF0000004024000080240000C024000100240C4
:100D000030B5144C606800F00C00042802D00828AC
:100D100002D01DE0104830BD226820680023410247
:100D200002F03F0204D525680B49C5F3881003E0A3
:100D300020680A49C0F38810A1FB0001FFF7FAFD03
:100D40002168C1F30141491C4900B0FBF1F030BDFD
:100D5000024830BD0438024000127A000024F4003A
:100D600038B50D4D0D4B2A7804464FF47A7118684A
:100D7000B1FBF2F2B0FBF2F0FFF7B3FE50B9102C6A
:100D800008D2002221464FF0FF30FFF78DFEAC6005
:100D9000002032BD012032BD000000200C000020E8
:100DA0007047000062F30F2262F31F42401810F0F8
:100DB000030308D0C91A1FD3DB0748BF00F8012D71
:100DC00028BF20F8022D130030B414461546103900
:100DD00028BF20E93C00FAD8490728BF20E90C00C9
:100DE00048BF40F8042D890028BF20F8022D48BFD5
:100DF00000F8012D30BC7047C91818BF00F8012D4C
:100E0000CB0728BF00F8012D7047000010B586B051
:100E100000F0D4F800F068F800F0C4F8002000906A
:100E2000594C5A48016841F004010160026802F01F
:100E300004020092002200990092036843F08003AC
:100E40000360016801F0800100910099009203683D
:100E500043F001030360016801F001010091009972
:100E600000922021036843F002030360006800F051
:100E70000200009000982046FFF72DFF4FF400502D
:100E80004FF40411019002910022039201A94048FD
:100E9000FFF750FE202101910122002103910491CE
:100EA000029201A92046FFF745FE3A4C3A482060DD
:100EB0004FF416510C20002260616160A260E26074
:100EC0002261A261E2612046FFF7F8FA08B100F062
:100ED0006EF864235FF0060236A12046FFF729FB77
:100EE000642000F085F8F4E780B592B0302200214C
:100EF00006A8FFF715FE00F055F8002000902748DF
:100F0000016841F0805101600021006800F08050CC
:100F100000900098224800910221026822F4404289
:100F200042F4004202600122006800F44040009058
:100F300000980691099210210A91022200210C9238
:100F40000D9110224FF4A8710E920F9104220721E7
:100F50001092119106A8FFF71DF908B172B6FEE7CD
:100F6000022102910F204FF4805101900022049140
:100F700003920592022101A8FFF736FC08B172B670
:100F8000FEE713B000BD0000000002403038024010
:100F90000008024010000020004400404038024099
:100FA000007000401422002101A8FFF7B9BD72B6FD
:100FB000FEE70000776173656461000080B50B484F
:100FC000016841F400710160026842F480620260CD
:100FD000016841F4807101600320FFF758FD002093
:100FE000FFF7BEFEFFF7AAFB002002BD003C024057
:100FF00038B50446FFF75CFA14F1010F054602D03C
:10100000044801786418FFF753FA401BA042FAD352
:1010100031BD00BF0000002010B5074979441831E8
:10102000064C7C44163404E00A68081D11448847C5
:101030000146A142F8D110BD2C000000380000008C
:101040004EF68851CEF20001086840F47000086046
:10105000BFF34F8FBFF36F8F4FF00070E1EE100AB8
:1010600070470000D7F9FFFFAC0100001A00000034
:10107000000000200248016841F4700101607047DF
:1010800088ED00E000000000000000000102030401
:101090000607080900F00DF8002801D0FFF7BCFF93
:1010A000AFF300800020AFF30080FFF7AFFE00F049
:1010B00002F80120704700F001B8000007463846EA
:1010C00000F002F8FBE7000080B5AFF30080024AB1
:1010D00011001820ABBEFBE72600020005480146C0
:1010E00003B4684680F30988AFF30080FFF7A8FFD8
:1010F000FFF7D0FFA5EDF5FEFEE7FEE7FEE7FEE712
:10110000FEE770477047704700F000B8024841683A
:1011100002788A184260704700000020014880472A
:101120000148004775100008DD10000800000000AD
:1011300001020304FFF7FEBFFFF7FEBFFFF7FEBF8C
:10114000FFF7FEBFFFF7FEBFFFF7FEBFFFF7FEBFD3
:10115000FFF7FEBFFFF7FEBFFFF7FEBFFFF7FEBFC3
:10116000FFF7FEBFFFF7FEBFFFF7FEBFFFF7FEBFB3
:10117000FFF7FEBFFFF7FEBFFFF7FEBFFFF7FEBFA3
:10118000FFF7FEBFFFF7FEBFFFF7FEBFFFF7FEBF93
:10119000FFF7FEBFFFF7FEBFFFF7FEBFFFF7FEBF83
:1011A000FFF7FEBFFFF7FEBFFFF7FEBFFFF7FEBF73
:1011B000FFF7FEBFFFF7FEBFFFF7FEBFFFF7FEBF63
:1011C000FFF7FEBFFFF7FEBFFFF7FEBFFFF7FEBF53
:1011D000FFF7FEBFFFF7FEBFFFF7FEBFFFF7FEBF43
:1011E000FFF7FEBFFFF7FEBFFFF7FEBFFFF7FEBF33
:1011F000FFF7FEBFFFF7FEBFFFF7FEBFFFF7FEBF23
:10120000FFF7FEBFFFF7FEBFFFF7FEBFFFF7FEBF12
:10121000FFF7FEBF0001F9000010FC000124F4BB41
:0112200000CD
:04000005080010DD02
:00000001FF
