:020000040800F2
:10000000E8040020751C0008511C0008531C00085F
:10001000551C0008571C0008591C0008000000006F
:100020000000000000000000000000005B1C000851
:100030005D1C0008000000005F1C0008611C000837
:100040009D1C0008A11C0008A51C0008A91C000894
:10005000AD1C0008B11C0008B51C0008B91C000844
:10006000BD1C0008C11C0008C51C0008C91C0008F4
:10007000CD1C0008D11C0008D51C0008D91C0008A4
:10008000DD1C0008E11C0008E51C00080000000061
:10009000000000000000000000000000E91C000853
:1000A000ED1C0008F11C0008F51C0008F91C0008F4
:1000B000FD1C0008011D0008051D0008091D0008A1
:1000C0000D1D0008111D0008151D0008191D000850
:1000D0001D1D0008211D0008251D0008000000004E
:1000E000291D00082D1D0008311D0008000000001A
:1000F000000000000000000000000000351D0008A6
:1001000000000000391D00083D1D0008411D0008C9
:1001100000000000000000000000000000000000DF
:10012000451D0008491D00084D1D0008511D00080F
:10013000551D000800000000000000000000000045
:10014000000000000000000000000000591D000831
:100150005D1D0008611D0008651D0008691D00087F
:100160006D1D0008711D0008000000000000000067
:10017000000000000000000000000000000000007F
:1001800000000000751D00080000000000000000D5
:10019000791D000838B5040001D1012032BD00F0FE
:1001A00093F818B900F05BF900F0D4FAFFE70220E9
:1001B0006870211D206800F056F90120A872A8700F
:1001C000E87028716871A871E871287268726870A7
:1001D000002032BD886800F00700062870470846F6
:1001E000016841F001010160704738B5040001D198
:1001F000012032BD00F068F818B900F030F900F0C5
:1002000025FBD4E710B5044604F13E0009B9027895
:1002100007E0042908BF427803D008290CBF827880
:10022000C278012A01D0012010BD11B9022202704A
:100230000AE0042902D10222427005E0082907BF22
:10024000022282700223C3702068012200F023FA88
:1002500000F021F818BFB1F1804F0DD000F017F871
:100260001CBFDFF85820914206D000F00CF81CBFEC
:10027000DFF85020914202D1FFF7ACFF01D0FFF729
:10028000AEFF002010BDDFF8380081427047DFF874
:100290002800814270472168DFF81800814205D1AB
:1002A000DFF82C100A6842F400420A60216881429B
:1002B00070470000000001400004004000080040BA
:1002C000000C00400040014004F13C056878704794
:1002D00044000140002084F83C002846704770B577
:1002E00000F058F801D1022070BD012084F83C00D4
:1002F00032B1042A15D0082A25D00C2A34D045E082
:10030000206800F0EDF82168886940F008008861F5
:10031000886920F0040088618A69306902438A6133
:1003200035E0206800F001F92068816941F400613E
:100330008161816921F4806181618169326941EA69
:100340000221816123E0206800F018F92168C86962
:1003500040F00800C861C86920F00400C861CA699B
:1003600030690243CA6112E0206800F02FF920686A
:10037000C16941F40061C161C16921F48061C16159
:10038000C169326941EA0221C16100E00125FFF73C
:10039000A1FF70BD0446002594F83C0001280E46DC
:1003A000704770B5064606F13C0500242878012800
:1003B00001D1022070BD0120287002226A70DFF88E
:1003C0004C0232689368034093600868020018BFCB
:1003D000102830D0202818BF30282CD0402826D014
:1003E000502819D060281BD0702806D0B0F5805F47
:1003F00027D0B0F5005F07D022E000F02BF830687E
:10040000816841F0770105E000F024F830688168E8
:1004100041F48041816014E000F018F850210BE0B5
:10042000CA684968306800F012F9602104E000F001
:100430000DF8402100E00146306800F01AF900E0B4
:1004400001240120687000F00AF870BDCA6849688C
:100450003068EDE0CB684A688968306811E10021B6
:10046000297020467047F0B5694B0468694D6A4EA3
:100470006A4F984218BFB0F1804F04D0B8421CBFF9
:10048000B042A8420CD14A6824F070041443984248
:1004900018BFB0F1804F0ED0B84218BFB0420AD09A
:1004A000A8421CBF5E4A904205D05E4DA8421CBFC8
:1004B0005D4A904203D1CA6824F4407414434A69E7
:1004C00024F080041443046098428C68C4620A6873
:1004D000826202D10969554A116001234361F0BD6E
:1004E00070B5026A520852000262066A4468856961
:1004F0000B688A6825F073051D4326F00206164333
:10050000434B98420BD1CA684B6926F0080624F485
:10051000407416438A691C4326F004061443446061
:10052000856149684163066270BD70B5026A384EE4
:1005300022F010020262B042056A436884690A68C8
:1005400024F4E64444EA02248A6825F0200545EABA
:1005500002150DD1CA684E6925F0800545EA0215DD
:100560008A6923F44063164325F0400543EA860375
:100570004360846149688163056270BD70B5026A39
:1005800022F480720262056A4368C4690A688E6850
:1005900024F0730414431E4A25F40075904245EA82
:1005A00006250DD1CA684E6925F4006545EA022585
:1005B0008A6923F44053164325F4806543EA061301
:1005C0004360C4614968C163056270BD70B5026A69
:1005D0000F4E22F480520262B042046A4268C3693C
:1005E0000D6823F4E64343EA05238D6824F40054A0
:1005F00044EA053404D14D6922F4804242EA85126E
:100600004260C36149680164046270BD8800FFFFF5
:1006100000000140000C00400008004000040040C1
:1006200000400140004401400048014030000140CA
:1006300010B5036A046A64086400046223F00A03C4
:10064000846924F0F00444EA021484612EE010B5B9
:10065000036A23F0100303628369046A23F470437E
:1006600043EA023324F0A004836144EA01140462E3
:1006700010BD826822F07002114341F007018160D1
:10068000704710B5846824F47F442143114341EA44
:100690000321816010BD10B501F01F01036A012420
:1006A0008C40A343036202FA01F1036A1943016219
:1006B00010BD0EE002684368024408305FEAC37C64
:1006C00044BF4B445B1E52F804CB43F804CB091FD4
:1006D000F9D150F8041B0029ECD1704782B00020FA
:1006E000009000225248416841F4804141604168D5
:1006F00001F48041009100990092036843F0805317
:100700000360006800F0805000900098072002B05D
:1007100000F0ABB810B586B000F057F82168454836
:10072000814215D100F04DF8416941F48071416179
:10073000416901F4807100910099009201210368E0
:1007400043F001030360032200F067F800F036F87D
:1007500006B010BD81B00068374988420BD1002235
:1007600033480092016841F002010160006800F026
:1007700002000090009801B0704710B586B000F0FC
:1007800024F821682C48814215D100F01AF8022281
:10079000016841F0040101608021006800F004005C
:1007A0000090009825480191029200210391049144
:1007B000022100F002F806B010BD059101A900F079
:1007C0009DB800221E480092704704461422002162
:1007D00001A800F079B910B586B0FFF7F6FF2168DF
:1007E0001848814217D1FFF7ECFF016941F400314D
:1007F0000161016901F400310091009900920C211E
:10080000036843F001030360022200F006F804913C
:100810000721FFF7D2FF06B010BD006800F001000D
:1008200000900098084801910292002103917047BE
:10083000403802400020014000040040000802400F
:100840003038024000440040000002407047000081
:100850000901020002D4244881547047234B02F05E
:100860000F021A4402F8041C7047214B19684FF616
:10087000FF020002114000F4E06008431D490843F4
:100880001860704770B51A4B1C68C4F3022301242A
:10089000C3F10705052D2EBF0F2504FA05F56D1EC2
:1008A0001E1D072E34BF0023DB1E2940994004FA89
:1008B00003F3BDE870405B1E1A401143C8E710B552
:1008C000401EB0F1807F01D3012010BD0A4C606052
:1008D0000F214FF0FF30FFF7BBFF0021A160072081
:1008E0002060002010BD000000E400E018ED00E0F2
:1008F0000CED00E00000FA0510E000E02DE9F84FF3
:100900000D4600266849694A0F23044601202F68D6
:10091000B04000EA0708804540F0BB804FEA460C33
:10092000032707FA0CF76FEA070E6F6807F0030951
:10093000B9F1010F1CBF07F00307022F12D1A768FE
:10094000D5F80C900EEA070709FA0CF949EA0707EF
:10095000A760676827EA00006F68C7F30017B74011
:1009600038436060B0002F7907F00307032F21D0D0
:10097000E768D5F808900EEA070709FA0CF949EA82
:100980000707E7602F7907F00307022F12D1F70856
:1009900004EB870700F01C09D7F820A003FA09FB35
:1009A0002AEA0B0AD5F810B00BFA09F949EA0A0944
:1009B000C7F8209027680EEA070E2F7907F0030783
:1009C00007FA0CF747EA0E0727606F6817F4403FF5
:1009D0005FD0002700974FEA960C176847F48047CE
:1009E000176000F00C00176807F48047009703FABF
:1009F00000FE009F2E4F57F82C7027EA0E0E2D4F49
:100A0000BC4208BF002713D02B4FBC4208BF0127B0
:100A10000ED02A4FBC4208BF022709D0284FBC4243
:100A200008BF032704D0274FBC420CBF0427072769
:100A300007FA00F01E4F40EA0E0047F82C006FEA5C
:100A400008000F6800EA070C6F68FF0348BF48EA18
:100A50000C0CC1F800C04F6800EA070C6F68BF03B8
:100A600048BF48EA0C0CC1F804C08F6800EA070CC4
:100A70006F68FF0248BF48EA0C0CC1F808C0CF6895
:100A800000EA070C6868800248BF48EA0C0CC1F80D
:100A90000CC0761C0F2E7FF639AFBDE8F18F02B97E
:100AA0000904816170470000003C01404438024065
:100AB00008380140000002400004024000080240E3
:100AC000000C02400010024010B5044610460A46D1
:100AD0000146204600F002F8204610BD62F30F22C6
:100AE00062F31F42401810F0030308D0C91A1FD345
:100AF000DB0748BF00F8012D28BF20F8022D1300A6
:100B000030B414461546103928BF20E93C00FAD805
:100B1000490728BF20E90C0048BF40F8042D890090
:100B200028BF20F8022D48BF00F8012D30BC7047C7
:100B3000C91818BF00F8012DCB0728BF00F8012DF8
:100B40007047000070B5044600250CB9012070BD47
:100B500004F13006306920B92046FFF7DBFD7561EE
:100B600035733069C10600F192803069DFF8601496
:100B700020F4885040F002003061086820F44030D2
:100B800008600A68606802430A602068416821F4CE
:100B90008071416020684168226941EA0221416018
:100BA0002068416821F04071416021684A68A0686E
:100BB00002434A602068816821F4006181602168F5
:100BC0008A68E06802438A602068A16ADFF804242A
:100BD0009142816821F0706181600CD021688A683F
:100BE000A06A02438A6000F05BF821688A68E06AC4
:100BF00002438A6001E000F053F82068816821F028
:100C0000020100F049F8227E41EA4201816094F835
:100C100020002168002848680FD040F40060486038
:100C20002068416821F46041416020684168626A3F
:100C3000521E41EA4231416002E020F40060486007
:100C40002068C16A21F47001C1622068C16AE2694A
:100C5000521E41EA0251C1622068816821F400718C
:100C600000F01AF8327841EA422100F015F821F438
:100C7000806100F011F8626941EA8221816075614A
:100C8000316921F0020141F00101316100E00125EB
:100C900000203073284670BD8160206881687047ED
:100CA0002068816821F040518160704738B500F0BC
:100CB000C5F801D1022032BD00F0CDF822D500F0F8
:100CC000A5F846BF906820F00600002000F08CF8E0
:100CD000DFF8FC120B6813F01F0F06D1816811F0CA
:100CE000405F11D100F0B2F80EE0DFF8EC1288425C
:100CF00002BFDFF8E802026812F0405F04D100F0A2
:100D000098F801E000F079F8002032BD00F13C01D4
:100D10000A78012A01D10220704701220A70026874
:100D200093685B085B00936000688268D00705D415
:100D30004A6822F4885242F001024A60002008709A
:100D40007047F8B50C46064606F13C0530688168E8
:100D50004A050AD58068C10507D5686840F02000BB
:100D60006860002129700120F2BD00F041F90746BA
:100D7000306801688A0714D414F1010FF8D024B147
:100D800000F036F9C01B8442F2D2306801688A074D
:100D9000EED4686840F004006860002129700320E8
:100DA000F2BD6FF012020260686840F40070686083
:100DB0003168886810F0405F04BF307E002811D190
:100DC000C86A10F4700F02D0886841050AD46868B8
:100DD00020F4807068606868C10403D4686840F0DB
:100DE000010068600020F2BD9060002313706FF076
:100DF00022000A68106008687047506840F01000D0
:100E00005060906840F00100906070475568DFF8CE
:100E1000D001054045F4807555605868430505D5F7
:100E2000506820F4005040F4805050605068C30473
:100E30007047016841F08041016070470146002021
:100E400001F13C0200901378012B7047816841F05A
:100E50008041816070470120107008688368DC075A
:100E600014D48368DFF87C4143F001038360DFF82A
:100E700078010368B3FBF4F404EB4404009402E04B
:100E80000098401E009000980028F9D10B689868DF
:100E9000C40770470068C06C704778B502460020F0
:100EA000009092F83C30012B01D1022072BD01204C
:100EB00082F83C0007240B6810680A2B12D30A3B07
:100EC000C56803EB43039C4025EA0404C460C3687F
:100ED0000D688C68A5F10A0606EB4606B44023436C
:100EE000C3600FE0056903EB430304FA03F325EA4B
:100EF0000303036103690D688C6805EB4505AC408D
:100F0000234303611F244B68072B0CD25B1E456BE8
:100F100000F050F84463436B4D680C886E1E00F07F
:100F200044F843631BE00D2B0CD2DB1F056B00F074
:100F300041F80463036B4D680C88EE1F00F035F830
:100F400003630CE00D3BC56A00F034F8C462C36A69
:100F50004D680C88A5F10D0600F027F8C3621E4B02
:100F600098421DD10C681A48122C03D1036843F42F
:100F7000800303600B68102B18BF112B10D103687E
:100F800043F4000303600868102809D11649154C82
:100F90000B68B3FBF4F40A204443009400F010F80B
:100FA000002182F83C10002072BD06EB8606B4409A
:100FB0002343704703EB83039C4025EA04047047F6
:100FC00002E00098401E009000980028F9D1704778
:100FD000042301400100000F0020014008200140CF
:100FE000FEF9FFFF40420F000C000020006C70472C
:100FF00001484068704700BF000000202DE9F84319
:10100000040016D02078DFF80063C10713D5B0685C
:1010100000F00C00042807D0B06800F00C0008288D
:101020003DD1706841023AD53068810303D56068CC
:10103000002800F063812078B44F810719D5B0688B
:1010400010F00C0F07D0B06800F00C0008285BD13E
:101050007068410258D43068810703D5E0680128E0
:1010600040F04C813168206921F0F80141EAC0016B
:1010700031602178080779D56069A549002868D0D2
:1010800001220A60FFF7B4FF0546706F81076DD437
:10109000FFF7AEFF401B0228F7D9032031E160685B
:1010A000B0F5803F04D1306840F48030306011E00A
:1010B000B0F5A02F306806D140F480203060316850
:1010C00041F4803105E020F480303060316821F453
:1010D00080213160606858B1FFF78AFF05463068AB
:1010E0008103A8D4FFF784FF401B6528F7D3D4E71A
:1010F000FFF77EFF0546306881039CD5FFF778FF38
:10110000401B6528F7D3C8E7E068A8B10121396022
:10111000FFF76EFF05463068810705D4FFF768FFCB
:10112000401B0228F7D9B8E73068216920F0F800A1
:1011300040EAC10030609CE73860FFF759FF054680
:101140003168880795D5FFF753FF401B0228F7D970
:10115000A3E70860FFF74CFF0546706F810705D5D0
:10116000FFF746FF401B0228F7D996E72078410792
:101170005FD5306C0025C1000AD400950125316C83
:1011800041F080513164306C00F080500090009844
:10119000DFF88081D8F80000C10513D4D8F800002A
:1011A00040F48070C8F80000FFF722FF8146D8F8AD
:1011B0000000C10506D4FFF71BFFA0EB09000228C1
:1011C000F5D96AE7A068012805D00528306F06D157
:1011D00040F004003067306F40F0010005E0400847
:1011E00040003067306F20F00400306741F28938EA
:1011F000A06860B1FFF7FCFE8146306F810713D411
:10120000FFF7F6FEA0EB09004045F6D345E7FFF7F0
:10121000EFFE8146306F810706D5FFF7E9FEA0EBB0
:1012200009004045F6D338E71DB1306C20F08050FE
:101230003064A069002863D0B16801F00C0108296E
:101240003AD002282AD100203866FFF7D1FE0546A1
:101250003068810105D5FFF7CBFE401B0228F7D986
:101260001BE7E069216A626A0843A16A490840EA0B
:101270008210491E40EA0140E16A40EA0160706064
:1012800001203866FFF7B4FE04463068810137D488
:10129000FFF7AEFE001B0228F7D9FEE600203866F5
:1012A000FFF7A6FE04463068810129D5FFF7A0FEAE
:1012B000001B0228F7D9F0E601281FD07068E26908
:1012C00000F48001914202BF00F03F01226A914286
:1012D00001BF47F6C0710140626AB1EB821F0DD1B8
:1012E000A26A520800F44031521EB1EB024F02BF15
:1012F00000F07060E16AB0EB016F01D0012000E006
:101300000020BDE8F28300BF0038024000004742E1
:10131000800E4742007000402DE9F8418DB000F08A
:101320007BF900F00BF900F06FF900200090AB4C56
:10133000AB48AC4D0168AC4E41F00401016006F1D0
:101340003007026802F00402009200220099009225
:10135000036843F080030360016801F0800100919D
:1013600000990092036843F001030360016801F0F3
:1013700001010091009900928021036843F002036B
:101380000360006800F00200009000982046FFF71C
:1013900086FB00F0CEF84FF400504FF4041101909A
:1013A00002910022039201A99048FFF7A7FA802139
:1013B00000F0B7F82046FFF7A1FA402100F0B1F89D
:1013C0002846FFF79BFA102200216846FFF77CFBB6
:1013D000874830604FF480318648B0620022012097
:1013E000F06170617160B2603261327686F82020FF
:1013F000F262F2603A703046FFF7A4FB08B100F0E9
:1014000008F90020012100900191029069463046C0
:10141000FFF743FD08B100F0FCF87748B8614FF4DE
:10142000E131F961002038627862B8620C213863DA
:101430007863F96206F1480000F008F908B100F09D
:10144000E8F81022002109A8FFF73EFB082200213E
:101450006846FFF739FB1C22002102A8FFF734FB86
:101460006648F865002139660020786640F2E73169
:10147000F8667867B96606F18C084046FEF78AFE82
:1014800008B100F0C6F84FF48050099009A9404611
:10149000FEF787FF08B100F0BCF84046FEF7A5FE56
:1014A00008B100F0B6F8002100910191404669466C
:1014B00000F06CF908B100F0ACF860210022029154
:1014C00003920492069202A904224046FEF707FF07
:1014D00008B100F09EF84046FFF74FF9042140465E
:1014E000FEF790FE3046FFF7E1FB0A213046FFF79A
:1014F00028FC3046FFF77AFD80050ED53046FFF711
:10150000C9FCF96D8863012280212046FFF7C7FAE4
:1015100000F00FF8642000F075F93046FFF7F6FB95
:10152000E0E701910122002103910491029201A9B7
:101530007047002240212846FFF7B1BA80B592B02B
:101540003022002106A8FFF7BFFA00F05DF8002066
:1015500000902B48016841F0805101600021006833
:1015600000F0805000900098264800910221026807
:1015700022F4404242F4004202600122006800F47A
:101580004040009000980691099210210A91022291
:1015900000210C920D9110224FF4A8710E920F9120
:1015A000042207211092119106A8FFF727FD08B128
:1015B00072B6FEE7022102910F204FF48051019094
:1015C0000022049103920592022101A800F02EF955
:1015D00008B172B6FEE713B000BD00000000024083
:1015E0003038024000040240100000200008024091
:1015F000002001400100000F0044004000040040B2
:1016000040380240007000401422002101A8FFF77A
:101610005BBA72B6FEE7000080B50B48016841F482
:1016200000710160026842F480620260016841F466
:10163000807101600320FFF718F9002000F09CF989
:10164000FFF74CF8002002BD003C024038B5040012
:1016500001D1012032BD00F017F808B900F018F8E8
:1016600000F01BF800F023F8FFE7416100F001F8FB
:1016700032BD2068C16841F40051C160002068603B
:1016800020216970A970704704F13C0568787047A3
:10169000002129702046FFF79EB82420687020683A
:1016A000C16821F40051C160204600F00AB82068EA
:1016B000016921F4904101612068416921F02A010A
:1016C000704770B5044622681169E06821F4405102
:1016D00001431161D3682748A168034020690B4387
:1016E00061690343E0690B430343D3605169A06917
:1016F00021F44071014351611F498A421CBF1F48B8
:10170000824202D100F020F901E000F015F9626890
:101710002568E4691921B4F5004FA1FB00016FF0C1
:10172000630612D1D30F520000F046F900F028F8FA
:10173000F60032366420B6FBF0F0420002F4F87294
:1017400002EB011200F0070010E0930F920000F08E
:1017500033F900F015F8360132366420B6FBF0F0AC
:1017600000F0F00202EB011200F00F008018A860F8
:1017700070BD0000F369FFFF00100140001401403C
:101780006421B0FBF1F106FB0106704770B500F172
:101790003C031A78012A01D1022070BD01221A707F
:1017A00002245C7005686E68AC680A6826F07006F2
:1017B00016436E6002680E48824218BFB2F1804F35
:1017C0000BD00D4882421CBF0C4DAA4205D00948DF
:1017D00082421CBF0A4DAA4204D1486824F080040A
:1017E00004439460012159700020187070BD0000FE
:1017F00000000140000C00400004004000080040D0
:101800000040014038B50446FFF7F2FB14F1010F28
:10181000054602D0044801786418FFF7E9FB401B35
:10182000A042FAD331BD00BF000000202DE9F041F5
:1018300004000F4654D0494E306800F00700B8420B
:1018400002D200F073F84BD12068454D810712D5C4
:10185000400703D5A96841F4E051A9602078010749
:1018600003D5A86840F46040A860A968A06821F08A
:10187000F0010143A9602178C80729D560680128D3
:1018800002D129688A0305E0022818BF032803D182
:1018900029688A0103D423E029688A0720D5A9682A
:1018A000890840EA8100A860FFF7A2FB8046A8688B
:1018B000616800F00C00B0EB810F09D0FFF798FBD6
:1018C000A0EB080041F289318842F0D303202BE0DD
:1018D000306800F00700874204D200F027F801D0FA
:1018E000012021E02078410705D5AA68E06822F4AC
:1018F000E0520243AA602178080706D5A96820694A
:1019000021F4604141EAC001A96000F0D9F8AA6859
:101910001449154BC2F30312895CC8401860134880
:10192000006800F029F80020BDE8F08137703168C8
:1019300001F00701B94270470B480D4A006813686F
:101940000C49C3F3822206E00748094A006813687D
:101950000849C3F34232895CC8407047003C0240EA
:1019600000380240DC1B00080C00002008000020AA
:1019700008380240941C000838B50D4D0D4B2A78EC
:1019800004464FF47A711868B1FBF2F2B0FBF2F042
:10199000FEF795FF50B9102C08D2002221464FF0D7
:1019A000FF30FEF76FFFAC60002032BD012032BD7A
:1019B000000000200C000020D3BBD9B1B2F5803F5D
:1019C0005BD2022A1ED98C46B1FBF2F102FB11C395
:1019D0001B0443EA1043B3FBF2FC02FB1C3380B24E
:1019E00040EA0343B3FBF2F002FB103240EA0C4042
:1019F00000237047022A05D98446B0FBF2F002FBAF
:101A000010C270474AB105D100F0010249085FEAEF
:101A10003000704700220023704700F081B80B00AF
:101A20000200002100207047F7D3002200237047F6
:101A3000904271EB030CF2D370B5B1FA81F4B3FAB2
:101A400083F52C1BA340C4F1200532FA05F633437D
:101A5000A2405FF00046E64002E05B085FEA320227
:101A6000841A71EB030524BF204629467641F4D33E
:101A700002000B003000002170BD70B5B1FA81F496
:101A8000B2FA82F5C4F120046419B4F12006DAD365
:101A9000B2405FF00044F440002502E052085FEAE3
:101AA0003303C61A71EB020E24BF304671466441FF
:101AB0006D41F3D302000B002000290070BD00002F
:101AC00030B5144C606800F00C00042802D00828DF
:101AD00002D01DE0104830BD22682068002341027A
:101AE00002F03F0204D525680B49C5F3881003E0D6
:101AF00020680A49C0F38810A1FB0001FFF75CFFD2
:101B00002168C1F30141491C4900B0FBF1F030BD2F
:101B1000024830BD0438024000127A000024F4006C
:101B2000704730B4002512E050F8042BD30744BFAF
:101B30004A44521E091F042942F8045BFAD2134694
:101B40008C0744BF15809B1CC90748BF1D7050F807
:101B5000041B0029E8D130BC7047000010B50749CC
:101B600079441831064C7C44163404E00A68081D98
:101B7000114488470146A142F8D110BD2C00000055
:101B80004C0000004EF68851CEF20001086840F487
:101B900070000860BFF34F8FBFF36F8F4FF000707E
:101BA000E1EE100A704700007BFFFFFFD400000049
:101BB0001000002000000000FBEAFFFF1000000002
:101BC000C40000000000002000000000024801687E
:101BD00041F470010160704788ED00E000000000F2
:101BE00000000000010203040607080900F00DF8D8
:101BF000002801D0FFF7B2FFAFF300800020AFF361
:101C00000080FFF789FB00F002F80120704700F028
:101C100001B800000746384600F002F8FBE7000074
:101C200080B5AFF30080024A11001820ABBEFBE77D
:101C3000260002000548014603B4684680F309887F
:101C4000AFF30080FFF79EFFFFF7D0FFA5EDF5FE95
:101C5000FEE7FEE7FEE7FEE7FEE7704770477047E6
:101C600000F000B80248416802788A184260704764
:101C7000000000200148804701480047CD1B0008B4
:101C8000351C0008010000000000000010000000EA
:101C90000024F4000000000001020304FFF7FEBF6F
:101CA000FFF7FEBFFFF7FEBFFFF7FEBFFFF7FEBF68
:101CB000FFF7FEBFFFF7FEBFFFF7FEBFFFF7FEBF58
:101CC000FFF7FEBFFFF7FEBFFFF7FEBFFFF7FEBF48
:101CD000FFF7FEBFFFF7FEBFFFF7FEBFFFF7FEBF38
:101CE000FFF7FEBFFFF7FEBFFFF7FEBFFFF7FEBF28
:101CF000FFF7FEBFFFF7FEBFFFF7FEBFFFF7FEBF18
:101D0000FFF7FEBFFFF7FEBFFFF7FEBFFFF7FEBF07
:101D1000FFF7FEBFFFF7FEBFFFF7FEBFFFF7FEBFF7
:101D2000FFF7FEBFFFF7FEBFFFF7FEBFFFF7FEBFE7
:101D3000FFF7FEBFFFF7FEBFFFF7FEBFFFF7FEBFD7
:101D4000FFF7FEBFFFF7FEBFFFF7FEBFFFF7FEBFC7
:101D5000FFF7FEBFFFF7FEBFFFF7FEBFFFF7FEBFB7
:101D6000FFF7FEBFFFF7FEBFFFF7FEBFFFF7FEBFA7
:0C1D7000FFF7FEBFFFF7FEBFFFF7FEBF4E
:0400000508001C359E
:00000001FF
